:1000000073C00000A1C000009FC0000047C40000F2
:100010009BC0000099C0000097C0000095C0000080
:1000200093C0000091C0000063C400008DC00000B8
:100030008BC0000089C0000087C0000085C00000A0
:1000400083C0000081C000007FC000007DC00000B0
:100050007BC0000079C0000077C0000082C40000AF
:1000600073C00000EDC6000021C700006DC0000095
:100070006BC0000069C0000067C0000065C00000E0
:1000800063C0000061C000005FC000005DC00000F0
:100090005BC0000059C0000057C0000055C0000000
:1000A00053C0000051C000004FC000004DC0000010
:1000B0004BC0000049C0000047C0000045C0000020
:1000C00043C0000041C000003FC000003DC0000030
:1000D0003BC0000039C0000037C0000035C0000040
:1000E00033C00000A204880711241FBECFEFD1E265
:1000F000DEBFCDBF00E00CBF12E0A0E0B2E0E6E65C
:10010000F5E100E00BBF02C007900D92A837B107E0
:10011000D9F723E0A8E7B2E001C01D92A538B207E5
:10012000E1F710E0C8EED0E000E006C02297010938
:10013000FE010BBF0E94AD0AC43ED10780E0080754
:10014000A9F7EFD70C94B10A5BCF84B1806684B96C
:10015000E1E0F1E0808188618083E1E8F0E0808186
:100160008A608083E1EAF0E080818A608083E0E851
:10017000F0E0808183608083E0EAF0E0808183604A
:1001800080830895FC01413031F040F0423061F04D
:10019000443039F0089571956195710971836083D8
:1001A00008957195619571097383628308951F9312
:1001B000CF93DF93EB01142FE5DFBE0160957095BF
:1001C0007370113019F198F0123079F11430D9F5BB
:1001D0008091A00080638093A0008091A0008F7721
:1001E0008093A0007093AB006093AA002CC0809114
:1001F00080008F7C8093800080918000806C809351
:10020000800070938900609388001DC080918000F9
:10021000806380938000809180008F77809380003E
:1002200070938B0060938A000EC08091A0008F7C39
:100230008093A0008091A000806C8093A0007093B8
:10024000A9006093A800DF91CF911F91089577FFD7
:1002500005C071956195710944E001C042E0A7CFE6
:1002600077FF05C071956195710941E001C040E0DB
:100270009ECF0F931F93CF93DF93EC018B01F0DFA1
:10028000B801CE01DF91CF911F910F91E0CFCF93B5
:10029000DF93EC015A9AE5E0F1E080818160808390
:1002A000E9E6F0E0808180618083EA9AE8E6F0E0A8
:1002B000808182608083ECE6F0E0808182608083D0
:1002C000789499D36C8B7D8B8E8B9F8B94D3688B1A
:1002D000798B8A8B9B8BDF91CF910895FC016130E4
:1002E00029F460817181828193810895648175818F
:1002F000868197810895CF93DF93EC01188219824C
:100300001A821B821C821D821E821F8218861986F9
:100310001A861B861C861D861E861F866CD3688BDC
:10032000798B8A8B9B8B67D36C8B7D8B8E8B9F8B12
:10033000CE01489615D1CE01CA96DF91CF9110C15A
:100340008F929F92AF92BF92CF92DF92EF92FF92E5
:100350001F93CF93DF93EC01162F4DD3113029F467
:10036000C888D988EA88FB8804C0CC88DD88EE88F4
:10037000FF886C197D098E099F09DCD76B017C0110
:10038000113049F488819981AA81BB8148855985BA
:100390006A857B8508C08C819D81AE81BF814C853B
:1003A0005D856E857F854C015D01841A950AA60ADC
:1003B000B70AC501B401BED74B015C01113071F41D
:1003C00088819981AA81BB8188879987AA87BB8701
:1003D00012D3688B798B8A8B9B8B0DC08C819D810E
:1003E000AE81BF818C879D87AE87BF8704D36C8B1E
:1003F0007D8B8E8B9F8B20E030E04AE754E4C50173
:10040000B4010E94280AA7019601FBD6DF91CF9183
:100410001F91FF90EF90DF90CF90BF90AF909F9093
:100420008F900895CF93DF93EC01613029F488DF3A
:1004300055D7CE01CA9605C062E082DF4FD7CE0104
:100440004896DF91CF9177C00F931F93CF93DF939F
:10045000EC018A01613019F4BA01CA960AC062300F
:1004600029F061110BC0BA01CA969CD0B801CE0127
:100470004896DF91CF911F910F9194C0DF91CF915A
:100480001F910F910895FC01613069F44081518101
:10049000628173814F5F5F4F6F4F7F4F4083518306
:1004A00062837383089544815581668177814F5FAC
:1004B0005F4F6F4F7F4F44835583668377830895E3
:1004C000CF92DF92EF92FF92CF93DF93EC0168859A
:1004D0007985882777FD8095982F2ED76B017C0131
:1004E0002E893F89488D598D6A897B898C899D89A0
:1004F00024D62A8D3B8D4C8D5D8D1FD69B01AC0182
:10050000C701B6011AD6E5D6CB01611524E0720702
:1005100014F08FEF93E08832910514F488E290E0B4
:100520009D878C8799878887DF91CF91FF90EF9087
:10053000DF90CF900895CF93DF93EC01CB016A85D4
:100540007B85681B790B882777FD8095982FF4D6DB
:100550006A8B7B8B8C8B9D8BCE01DF91CF91B0CF43
:10056000FC0110821182128213821482158216827B
:100570001782118610861586148616861786108AAD
:10058000118A128A138A148A158A168A178A108E7B
:10059000118E128E138E148E158E168E178E10A23B
:1005A00011A20895FC01738762870895CF92DF92AC
:1005B000EF92FF9261E08FE792E090DE6B017C01A9
:1005C00066E072E088EE92E024D562E08FE792E088
:1005D00029DFBC018BED92E043DE61E08FE792E022
:1005E00021DFBC018BED92E032DE60E172E088EE4B
:1005F00092E00FD52AE030E0B701A60188EE92E044
:1006000073D56AE172E088EE92E003D540917902F9
:1006100050917A0260917B0270917C022AE030E076
:1006200088EE92E06DD58091790290917A02A09146
:100630007B02B0917C02A7019601281B390B4A0B63
:100640005B0B243631054105510570F16AE67FEFF9
:100650008BED92E0FCDD60E77EEF8BED92E000DE5B
:100660006EE170E080E090E0F5D160E070E08BED4D
:1006700092E0FFDD80917D0290917E020196909341
:100680007E0280937D023FEF47EA51E631504040C1
:100690005040E1F700C00000C0927902D0927A0287
:1006A000E0927B02F0927C02FF90EF90DF90CF907F
:1006B00008958F929F92AF92BF92CF92DF92EF9266
:1006C000FF92CF93DF9361E08FE792E007DE6B014B
:1006D0007C016CE271E08BED92E0B9DD66E272E0E4
:1006E00088EE92E096D460E172E088EE92E091D4D8
:1006F0002AE030E0B701A60188EE92E0F5D46AE185
:1007000072E088EE92E085D44091790250917A02AD
:1007100060917B0270917C022AE030E088EE92E0EA
:10072000EFD4C0917D02D0917E02809179029091A8
:100730007A02A0917B02B0917C0246015701881A8F
:10074000990AAA0ABB0AFE01EE0FFF1FE050FE4FF6
:1007500060817181882777FD8095982FEDD521EEF6
:100760003AE744E15FE374D6B4D5CB01AA2797FDFD
:10077000A095BA2F88159905AA05BB0568F521969D
:10078000D0937E02C0937D026AE67FEF8BED92E00C
:100790005EDD60E77EEF8BED92E062DD6EE170E0A2
:1007A00080E090E057D160E070E08BED92E061DD99
:1007B0002FEF87EA91E6215080409040E1F700C09A
:1007C00000008FE792E097DDC0927902D0927A0222
:1007D000E0927B02F0927C02DF91CF91FF90EF904C
:1007E000DF90CF90BF90AF909F908F9008958091B1
:1007F0007D0290917E02009709F4D8CE8130910558
:1008000009F457CF029731F5809178028111F5CF25
:1008100061E08FE792E062DD6093790270937A0283
:1008200080937B0290937C026BE272E088EE92E010
:10083000F0D34091790250917A0260917B027091DD
:100840007C022AE030E088EE92E05AD481E0809386
:100850007802D3CF60E070E08BED92E00ACDC7DF85
:1008600064E170E080E090E0F5C026E040E051EE09
:1008700060E070E088EE92E083D28BED92E065DC80
:100880008FE792E004DD44E650E060E08FE792E01D
:10089000DBDD6EE472E088EE92E0BFC31F920F9240
:1008A0000FB60F9211240BB60F922F933F934F93D5
:1008B0005F936F937F938F939F93AF93BF93EF93C8
:1008C000FF9361E08FE792E0DEDDFF91EF91BF9152
:1008D000AF919F918F917F916F915F914F913F91D8
:1008E0002F910F900BBE0F900FBE0F901F90189579
:1008F0001F920F920FB60F9211240BB60F922F93E7
:100900003F934F935F936F937F938F939F93AF9397
:10091000BF93EF93FF9362E08FE792E0B4DDFF9126
:10092000EF91BF91AF919F918F917F916F915F9167
:100930004F913F912F910F900BBE0F900FBE0F90D4
:100940001F90189582E2E7E9F2E0DF01982F1D92EF
:100950009A95E9F7E9EBF2E0DF011D928A95E9F754
:1009600008951F920F920FB60F9211242F933F9369
:100970008F939F93AF93BF938091E0029091E10298
:10098000A091E202B091E3023091DF0223E0230F55
:100990002D3720F40196A11DB11D05C026E8230FB7
:1009A0000296A11DB11D2093DF028093E002909377
:1009B000E102A093E202B093E3028091E4029091FD
:1009C000E502A091E602B091E7020196A11DB11DDA
:1009D0008093E4029093E502A093E602B093E702CD
:1009E000BF91AF919F918F913F912F910F900FBE2B
:1009F0000F901F9018952FB7F8946091E0027091B6
:100A0000E1028091E2029091E3022FBF08953FB787
:100A1000F8948091E4029091E502A091E602B091F1
:100A2000E70226B5A89B05C02F3F19F00196A11D2E
:100A3000B11D3FBF6627782F892F9A2F620F711D36
:100A4000811D911D42E0660F771F881F991F4A95EF
:100A5000D1F70895CF92DF92EF92FF92CF93DF9379
:100A60006B017C01D4DFEB01C114D104E104F1047A
:100A700079F061D3CCDF6C1B7D0B683E7340A0F333
:100A800081E0C81AD108E108F108C851DC4FECCF69
:100A9000DF91CF91FF90EF90DF90CF900895789401
:100AA00084B5826084BD84B5816084BD85B5826073
:100AB00085BD85B5816085BDEEE6F0E08081816011
:100AC0008083E1E8F0E01082808182608083808111
:100AD00081608083E0E8F0E0808181608083E1EBE9
:100AE000F0E0808184608083E0EBF0E080818160D1
:100AF0008083E1E9F0E08081826080838081816091
:100B00008083E0E9F0E0808181608083E1EAF0E0C9
:100B1000808182608083808181608083E0EAF0E070
:100B2000808181608083E1E2F1E080818260808366
:100B3000808181608083E0E2F1E080818160808358
:100B4000EAE7F0E080818460808380818260808336
:100B50008081816080838081806880831092C10061
:100B60000895FC01818D228D90E0805C9F4F821B57
:100B700091098F7399270895FC01918D828D9817A3
:100B800031F0828DE80FF11D858D90E008958FEF93
:100B90009FEF0895FC01918D828D981761F0828DF1
:100BA000DF01A80FB11D5D968C91928D9F5F9F73A1
:100BB000928F90E008958FEF9FEF08958FE797E071
:100BC000892B39F080E090E0892B19F098D18111C0
:100BD00025C080E090E0892B41F080E090E0892BF7
:100BE00021F00E94000081111CC080E090E0892B60
:100BF00041F080E090E0892B21F00E9400008111FB
:100C000013C080E090E0892BA1F080E090E0892B78
:100C100081F00E94000081110AC008950E94000026
:100C2000D8CF0E940000E1CF0E940000EACF0C94D0
:100C300000000895FC01848DDF01A80FB11DA35AA7
:100C4000BF4F2C91848D90E001968F739927848FEC
:100C5000A689B7892C93A089B1898C9180648C93E3
:100C6000938D848D981306C00288F389E02D8081CE
:100C70008F7D80830895CF93DF93EC01888D882347
:100C8000C1F0EA89FB89808185FD05C0A889B98901
:100C90008C9186FD0EC00FB607FCF5CF808185FFD5
:100CA000F2CFA889B9898C9185FFEDCFCE01C2DF43
:100CB000E8CFDF91CF910895CF92DF92FF920F930B
:100CC0001F93CF93DF931F92CDB7DEB76C0181E006
:100CD000D60158968C9358975B969C915B975C963F
:100CE0008C915C97981307C05096ED91FC915197A9
:100CF000808185FD2DC0F601038D10E00F5F1F4F31
:100D00000F731127F02EF601848DF81210C00FB664
:100D100007FCF9CFD6015096ED91FC915197808157
:100D200085FFF1CFC601698385DF6981ECCF838DB3
:100D3000E80FF11DE35AFF4F6083D6015B960C93D9
:100D40005B975296ED91FC915397808180620CC025
:100D5000D6015696ED91FC91579760835096ED9190
:100D6000FC91519780818064808381E090E00F90B6
:100D7000DF91CF911F910F91FF90DF90CF90089559
:100D8000BF92CF92DF92EF92FF92CF93DF93EC016D
:100D90006A017B01B22EE889F98982E080834115DE
:100DA00081EE58076105710599F060E079E08DE307
:100DB00090E0A7019601AFD32150310941095109B3
:100DC0005695479537952795211580E1380790F07E
:100DD000E889F989108260E874E88EE190E0A70163
:100DE000960199D3215031094109510956954795EA
:100DF00037952795EC85FD853083EE85FF8520832B
:100E0000188EEC89FD89B082EA89FB898081806136
:100E10008083EA89FB89808188608083EA89FB89F5
:100E2000808180688083EA89FB8980818F7D8083CF
:100E3000DF91CF91FF90EF90DF90CF90BF9008951A
:100E40001F920F920FB60F9211240BB60F922F9391
:100E50008F939F93EF93FF93E091F802F091F90243
:100E60008081E091FE02F091FF0282FD12C090812C
:100E7000809101038F5F8F7320910203821751F0DD
:100E8000E0910103F0E0E851FD4F958F809301035D
:100E900001C08081FF91EF919F918F912F910F90D1
:100EA0000BBE0F900FBE0F901F9018951F920F92C0
:100EB0000FB60F9211240BB60F922F933F934F93BF
:100EC0005F936F937F938F939F93AF93BF93EF93B2
:100ED000FF9388EE92E0AEDEFF91EF91BF91AF916C
:100EE0009F918F917F916F915F914F913F912F9142
:100EF0000F900BBE0F900FBE0F901F90189588EEAD
:100F000092E02FDE21E0892B09F420E0822F089562
:100F10001092EB021092EA0288EE93E0A0E0B0E0BB
:100F20008093EC029093ED02A093EE02B093EF0257
:100F30008AE592E09093E9028093E80285EC90E0E4
:100F40009093F5028093F40284EC90E09093F70282
:100F50008093F60280EC90E09093F9028093F8027F
:100F600081EC90E09093FB028093FA0282EC90E097
:100F70009093FD028093FC0286EC90E09093FF0238
:100F80008093FE0210920103109202031092030359
:100F9000109204030895CF92DF92EF92FF920F9385
:100FA0001F93CF93DF937C016A01EB0100E010E017
:100FB0000C151D0571F06991D701ED91FC9101901F
:100FC000F081E02DC7011995892B19F00F5F1F4F94
:100FD000EFCFC801DF91CF911F910F91FF90EF905C
:100FE000DF90CF9008956115710581F0DB010D90C0
:100FF0000020E9F7AD0141505109461B570BDC01B8
:10100000ED91FC910280F381E02D199480E090E055
:101010000895E9CF66E672E0E6CF0F931F93CF9372
:10102000DF93EC01E0DF8C01CE01F4DF800F911F34
:10103000DF91CF911F910F9108958F929F92AF9260
:10104000BF92CF92DF92EF92FF920F931F93CF93B5
:10105000DF93CDB7DEB7A1970FB6F894DEBF0FBE12
:10106000CDBF7C01C42EE52FCB01D22E19A221E0E9
:101070002D1510F02AE0D22E8E010F5D1F4F8D2C02
:10108000912CA12CB12C6C2D7E2FA501940143D263
:101090008C2DD29E80191124015011098A3014F42C
:1010A000805D01C0895CF80180832115310541050F
:1010B000510521F0C22EE32FCA01E5CFB801C701C7
:1010C00092DFA1960FB6F894DEBF0FBECDBFDF91C1
:1010D000CF911F910F91FF90EF90DF90CF90BF9035
:1010E000AF909F908F9008952115310541F4DC0158
:1010F000ED91FC910190F081E02D642F19949DCF2A
:101100000F931F93CF93DF93EC01EEDF8C01CE01A1
:1011100081DF800F911FDF91CF911F910F91089573
:101120000895BDDCFDDFA1DBCEEDD5E098DB209797
:10113000E9F344DDFBCF08955058BB27AA270ED012
:101140004DC13ED130F043D120F031F49F3F11F436
:101150001EF433C10EF4E095E7FB29C1E92F4FD10E
:1011600080F3BA17620773078407950718F071F4C4
:101170009EF567C10EF4E0950B2EBA2FA02D0B0142
:10118000B90190010C01CA01A0011124FF27591BCC
:1011900099F0593F50F4503E68F11A16F040A22FD2
:1011A000232F342F4427585FF3CF46953795279543
:1011B000A795F0405395C9F77EF41F16BA0B620B42
:1011C000730B840BBAF09150A1F0FF0FBB1F661F89
:1011D000771F881FC2F70EC0BA0F621F731F841FCC
:1011E00048F4879577956795B795F7959E3F08F0F2
:1011F000B3CF9395880F08F09927EE0F97958795B1
:1012000008950CD0EBC0E3D040F0DAD030F021F4F8
:101210005F3F19F0CCC0511115C1CFC0F0D098F389
:101220009923C9F35523B1F3951B550BBB27AA2767
:1012300062177307840738F09F5F5F4F220F331FD9
:10124000441FAA1FA9F333D00E2E3AF0E0E830D0A5
:1012500091505040E695001CCAF729D0FE2F27D0A8
:10126000660F771F881FBB1F261737074807AB0776
:10127000B0E809F0BB0B802DBF01FF2793585F4FEB
:101280002AF09E3F510568F092C0DCC05F3FECF34E
:10129000983EDCF3869577956795B795F7959F5FB0
:1012A000C9F7880F911D9695879597F90895E1E004
:1012B000660F771F881FBB1F621773078407BA0763
:1012C00020F0621B730B840BBA0BEE1F88F7E095BE
:1012D000089504D06894B111B5C0089598D088F0ED
:1012E0009F5790F0B92F9927B751A0F0D1F0660F12
:1012F000771F881F991F1AF0BA95C9F712C0B1302D
:1013000081F09FD0B1E008959CC0672F782F882787
:10131000B85F39F0B93FCCF3869577956795B3956B
:10132000D9F73EF490958095709561957F4F8F4FDA
:101330009F4F0895E89409C097FB3EF490958095DF
:10134000709561957F4F8F4F9F4F9923A9F0F92F8B
:1013500096E9BB279395F695879577956795B79509
:10136000F111F8CFFAF4BB0F11F460FF1BC06F5FEF
:101370007F4F8F4F9F4F16C0882311F096E911C001
:10138000772321F09EE8872F762F05C0662371F022
:1013900096E8862F70E060E02AF09A95660F771F36
:1013A000881FDAF7880F9695879597F9089597F92A
:1013B0009F6780E870E060E008959FEF80EC0895FB
:1013C00000240A9416161706180609060895002424
:1013D0000A9412161306140605060895092E03949E
:1013E000000C11F4882352F0BB0F40F4BF2B11F412
:1013F00060FF04C06F5F7F4F8F4F9F4F089557FD71
:101400009058440F551F59F05F3F71F04795880F72
:1014100097FB991F61F09F3F79F087950895121609
:1014200013061406551FF2CF4695F1DF08C01616B5
:1014300017061806991FF1CF869571056105089466
:101440000895E894BB2766277727CB0197F908957D
:101450000BD0C4CFB5DF28F0BADF18F0952309F020
:10146000A6CFABCF1124EECFCADFA0F3959FD1F367
:10147000950F50E0551F629FF001729FBB27F00D42
:10148000B11D639FAA27F00DB11DAA1F649F662797
:10149000B00DA11D661F829F2227B00DA11D621FE6
:1014A000739FB00DA11D621F839FA00D611D221FA0
:1014B000749F3327A00D611D231F849F600D211D84
:1014C000822F762F6A2F11249F5750408AF0E1F027
:1014D00088234AF0EE0FFF1FBB1F661F771F881F70
:1014E00091505040A9F79E3F510570F060CFAACFB0
:1014F0005F3FECF3983EDCF3869577956795B7955B
:10150000F795E7959F5FC1F7FE2B880F911D969584
:10151000879597F90895A1E21A2EAA1BBB1BFD011E
:101520000DC0AA1FBB1FEE1FFF1FA217B307E407C2
:10153000F50720F0A21BB30BE40BF50B661F771F1A
:10154000881F991F1A9469F76095709580959095FA
:101550009B01AC01BD01CF0108950790F691E02DEC
:061560001994F894FFCF7E
:101566001400B4001400666F727761726420310053
:10157600635F7469636B733A20002073745F7469E8
:10158600636B733A2000726F7420007363743A20A1
:10159600006769766520636F6D6D616E64733A20CE
:1015A600662C20622C206C2C20722C207300696E15
:1015B6006974206F6B00000000005C06CB07B10564
:1015C600CA05BC053B060D0A006E616E00696E66B3
:0815D600006F7666002E000094
:00000001FF
