:1000000012C1000041C100003FC100003DC100001D
:100010003BC1000039C1000037C1000035C10000FC
:1000200033C1000031C100002FC100002DC100000C
:100030002BC1000029C1000027C1000025C100001C
:1000400023C1000021C100001FC100001DC100002C
:100050001BC1000019C1000017C100000C94560B11
:1000600013C100000C94C3080C94F9080DC10000E2
:100070000BC100001DC1000007C1000005C1000048
:1000800003C1000001C10000FFC00000FDC000006E
:10009000FBC00000F9C00000F7C000004EC5000022
:1000A000F3C00000F1C00000EFC00000EDC0000090
:1000B000EBC00000E9C00000E7C00000E5C00000A0
:1000C000E3C00000E1C00000DFC00000DDC00000B0
:1000D000DBC00000D9C00000D7C00000D5C00000C0
:1000E000D3C00000E406E706D606DA06E0061E07DF
:1000F000EB06EF06F506F906FD06030707070B07F3
:100100001E07110715071907084AD73B3BCE016E9A
:1001100084BCBFFDC12F3D6C74319ABD56833DDA5E
:100120003D00C77F11BED9E4BB4C3E916BAAAABE6D
:10013000000000803F0000000A0B02090C0D0E08B1
:1001400007030401000000000000000000000000A0
:10015000000000000000000000000000000000009F
:10016000000012111000000000000000000000005C
:10017000000000000000000000000000010210204C
:1001800020080810204010204080020102010804CD
:100190000201010204081020408080402010080461
:1001A00002018004020180402010080402010804BA
:1001B00002010102040810204080010204081020FE
:1001C0004080050505050705080808080202020227
:1001D0000A0A0808040404040101010101010101E3
:1001E0000303030303030303040707070C0C0C0CAE
:1001F0000C0C0C0C02020202060606060606060697
:100200000B0B0B0B0B0B0B0B000022002500280027
:100210002B002E003100340002010000050108010E
:100220000B01BE042B0911241FBECFEFD1E2DEBFAC
:10023000CDBF00E00CBF12E0A0E0B2E0E8E4FEE1D8
:1002400000E00BBF02C007900D92AA34B107D9F7A6
:1002500023E0AAE4B2E001C01D92A63BB207E1F799
:1002600012E0C6E2D2E000E006C022970109FE01DA
:100270000BBF0E940A0FC232D10780E00807A9F71E
:100280000E946F090C94220FBBCEEAE7F0E01082C7
:10029000808184608083808180688083ACE7B0E067
:1002A0001C928C9180648C938081806480830895FB
:1002B0001F920F920FB60F9211240BB60F928F93CD
:1002C000EF93FF93EAE7F0E0808180648083FF9101
:1002D000EF918F910F900BBE0F900FBE0F901F905C
:1002E0001895482F63E070E088E290E0ADD08FE190
:1002F00093E00197F1F700C0000041E062E070E098
:1003000088E290E0A1D08FE193E00197F1F700C07F
:10031000000040E062E070E088E290E095C0FF926B
:100320000F931F93CF93DF938C0140E064E070E064
:1003300088E290E089D085E08A95F1F7000081E0BD
:10034000D0DFE80183E0F82E07E010E0888190E03C
:10035000002E02C0959587950A94E2F78170C1DF5F
:100360000150110998F7FA942196F110EDCFCCE0E5
:10037000D0E080E0B6DF2197E1F741E064E070E093
:1003800088E290E0DF91CF911F910F91FF905CC0C8
:100390000F931F93CF93DF9300D0CDB7DEB79C01AF
:1003A000181619060CF564E670E00E94CF0ECB011A
:1003B000EAE0F0E0BF010E94CF0E80509E4FDC01CA
:1003C0008C918983C901BF010E94CF0E9C01CB0192
:1003D000BF010E94CF0E80509E4FFC0180818A8316
:1003E000F901E050FE4F23C000271127081B190B0D
:1003F0008D39FFEF9F0714F082E001C082E6898308
:10040000C90166EF7FEF0E94CF0ECB012AE030E0FA
:10041000B9010E94CF0E80509E4FDC018C918A83DF
:10042000C801B9010E94CF0E80509E4FFC0180810F
:100430008B83CE01019673DF0F900F900F90DF91A9
:10044000CF911F910F910895FC01208181E090E0F0
:10045000062E01C0880F0A94EAF7442319F0282BCE
:10046000208308958095822380830895DC01ED9197
:10047000FC910190F081E02D19940F931F93CF937D
:10048000DF938C01EB0169E670E080E592E063D2D6
:10049000B80180E592E0EADFBE0180E592E0E6DFA8
:1004A00061E080E592E058D281E090E0DF91CF9169
:1004B0001F910F91089560E070E08AE090E0DDDF29
:1004C0006FE070E08AE090E0D8DF60E070E08AE002
:1004D00090E0D3DF60E470E084E290E0CEDF6CE88F
:1004E00070E085E290E0C9DF62E070E086E290E0D3
:1004F000C4DF68E870E087E290E0BFDF6CE070E0A6
:1005000088E290E0BADF6AE070E089E290E0B5DF6F
:1005100061E870E08AE290E0B0DF61E070E084E6DC
:1005200090E0ABDF63E070E087E690E0A6DF60E894
:1005300070E081E090E0A1DF64E070E084E390E0AF
:100540009CDF60E070E084E690E097DF60E070E0C0
:100550008AE690E092DF61E070E084E690E08DDF73
:1005600060E270E08AE690E088DF63E170E084E3B7
:1005700090E083CF0F931F93CF93DF938C01EB0118
:1005800069E670E080E592E0E6D1B80180E592E0AE
:100590006DDF60E080E592E0DFD121E030E041E016
:1005A00050E069E670E080E592E0CAD180E592E033
:1005B00025D1182F69E670E080E592E0CCD1BE012C
:1005C00080E592E053DF60E080E592E0C5D121E074
:1005D00030E041E050E069E670E080E592E0B0D1C3
:1005E00080E592E00BD1982F8827810F911DDF9134
:1005F000CF911F910F91089526E040E051EE60E009
:1006000070E080E193E05FD56BE072E080E193E021
:10061000B8D68CE187B918B838DE80E592E07BD196
:1006200060E070E08BE690E028DF45DF60E172E09B
:1006300080E193E0A6C64F925F926F927F928F9275
:100640009F92AF92BF92CF92DF92EF92FF921F9351
:10065000CF93DF93EC01162F68817981882777FD8E
:100660008095982F0E942E0D4B015C016A817B8141
:10067000882777FD8095982F0E942E0D2B013C0135
:100680006C817D81882777FD8095982F0E942E0DA3
:100690006B017C0111111BC0A3019201C301B201C6
:1006A0000E940E0E2B013C01A7019601C701B60165
:1006B0000E940E0E9B01AC01C301B2010E94030C0B
:1006C0000E94750E9B01AC01C501B40137C0113009
:1006D000D9F4A5019401C501B4010E940E0E4B018D
:1006E0005C01A7019601C701B6010E940E0E9B0195
:1006F000AC01C501B4010E94030C0E94750E9B0160
:10070000AC01C301B2011AC0A3019201C301B2013D
:100710000E940E0E2B013C01A5019401C501B401FC
:100720000E940E0E9B01AC01C301B2010E94030C9A
:100730000E94750E9B01AC01C701B6010E94930C8B
:10074000DF91CF911F91FF90EF90DF90CF90BF90FE
:10075000AF909F908F907F906F905F904F900C9490
:10076000670CEF92FF920F931F93CF93DF93EC01EF
:100770006BE370E08CE390E0FDDE7C016DE370E004
:100780008EE390E0F7DE8C016FE370E080E490E0B0
:10079000F1DEF982E8821B830A839D838C83DF91DB
:1007A000CF911F910F91FF90EF9008958AE492E00E
:1007B000D8DF60E08AE492E03EDFAB01BC0122E0DA
:1007C00030E080E193E062D760E08AE492E033DFDA
:1007D0000E94FB0CCB01DCDD2FEF83EC99E0215074
:1007E00080409040E1F700C00000089580918002B1
:1007F00090E020918102821B91090895209181024D
:1008000080918002281750F4E22FF0E0EE57FD4F60
:10081000808190E02F5F2093810208958FEF9FEFFA
:100820000895E091810280918002E81730F4F0E0B1
:10083000EE57FD4F808190E008958FEF9FEF089570
:100840000895CF92DF92EF92FF920F931F93CF9371
:10085000DF937C01CB018A0120915C02222389F085
:10086000EB016B01C40ED51ECC15DD0561F069915D
:10087000D701ED91FC910190F081E02DC701199510
:10088000F3CF642F31D1C801DF91CF911F910F9128
:10089000FF90EF90DF90CF900895CF93DF931F925A
:1008A000CDB7DEB7698320915C022223D1F020917D
:1008B0005D02203240F021E030E0FC0133832283EE
:1008C00080E090E014C080915E02E82FF0E0E15AF1
:1008D000FD4F998190838F5F80935E0280935D02CC
:1008E00004C061E0CE010196FFD081E090E00F905E
:1008F000DF91CF910895FC011382128248EE53E0FC
:1009000060E070E044835583668377838CE192E0F6
:100910009183808308951092810210928002109238
:100920005E0210925D022DC0862F413208F040E237
:1009300062E872E042D010928102809380020895B2
:10094000F3CF81E080935C0260937F0210925E029D
:1009500010925D020895F5CF0F93062F21E040918C
:100960005D026FE572E080917F026BD010925E02B3
:1009700010925D0210925C020F91089580E592E062
:10098000BACF10920F0381E080930D0310920C03F5
:1009900061E084E154D261E085E151D2E9EBF0E01D
:1009A00080818E7F808380818D7F808388E48093A7
:1009B000B80085E48093BC000895413208F03FC040
:1009C00090910F039111FCCF91E090930F0320932E
:1009D0000D032FEF2093A2021092E702240F209321
:1009E000E60290930E0390910E03880F892B80935B
:1009F0000E0380910C03813041F410920C0380911E
:100A00000E038093BB0085EC01C085EE8093BC0093
:100A100080910F038130E1F38091E702841710F495
:100A20004091E70228EE32E0FB01D9018A2F821BB8
:100A3000841718F48D918193F9CF842F089580E065
:100A400008950F93413208F046C090910F03911121
:100A5000FCCF92E090930F0300930D039FEF9093D0
:100A6000A2021092E7024093E602FB0168EE72E0F8
:100A7000DB019A2F961B941718F491919D93F9CF4F
:100A800010920E0390910E03880F892B80930E0312
:100A900080910C03813041F410920C0380910E037D
:100AA0008093BB0085EC01C085EE8093BC002223BF
:100AB00021F080910F038230E1F38091A2028F3FF9
:100AC00061F08091A202803251F08091A2028033C5
:100AD00041F483E007C081E005C080E003C082E00C
:100AE00001C084E00F910895613298F420910F03C2
:100AF000243089F46093C402FC0186EC92E0DC01AE
:100B00002A2F281B261718F421912D93F9CF80E066
:100B1000089581E0089582E0089585ED8093BC00FA
:100B20008091BC0084FDFCCF10920F03089585ECEA
:100B30008093BC0010920F0308951F920F920FB67E
:100B40000F9211240BB60F922F933F934F935F9305
:100B50006F937F938F939F93AF93BF93EF93FF9385
:100B60008091B900887F803609F49CC068F588328E
:100B700009F45BC090F4803109F454C038F4882340
:100B800009F4F3C0883009F44DC0F2C0883109F48B
:100B90004CC0803209F45DC0EBC0803409F468C0F9
:100BA00048F4803309F455C0883309F0E1C08093DC
:100BB000A202A7C0803509F44FC0883509F45DC092
:100BC000883409F0D5C0D3C0883909F4C4C0A8F46A
:100BD000883709F467C038F4883609F463C0803771
:100BE00009F460C0C5C0883809F4B5C0803909F47B
:100BF0005FC0803809F0BCC05BC0803B09F483C093
:100C000038F4803A09F466C0883A09F47CC0B0C070
:100C1000803C09F4A4C0883C09F4A1C0883B09F4D5
:100C200087C0A6C080910E0310C09091E70280910A
:100C3000E602981770F5E091E70281E08E0F80934D
:100C4000E702F0E0E851FD4F80818093BB0085EC26
:100C500083C08093A2028BC0E091E70281E08E0FF7
:100C60008093E7028091BB00F0E0E851FD4F808364
:100C70009091E7028091E6026BC0E091E70281E08B
:100C80008E0F8093E7028091BB00F0E0E851FD4FAA
:100C9000808380910D0381116AC081E080930C03F1
:100CA00084EA5EC083E080930F031092A302CFCF4B
:100CB0008091A302803208F04EC0E091A30281E04F
:100CC0008E0F8093A3028091BB00F0E0EC55FD4FA6
:100CD0008083BDCF8091A302803230F4E091A302E3
:100CE000F0E0EC55FD4F108218DF6091A30270E038
:100CF000E0910803F091090384EA92E019951092BB
:100D0000A30215DF35C084E080930F031092C50263
:100D10001092C402E0910A03F0910B03199580919F
:100D2000C402811105C081E08093C4021092C60202
:100D3000E091C50281E08E0F8093C502F0E0EA5396
:100D4000FD4F80818093BB009091C5028091C402C9
:100D5000981708F47CCF85E88093BC0009C085EC27
:100D60008093BC0010920F0303C01092A202D5DE44
:100D7000FF91EF91BF91AF919F918F917F916F9173
:100D80005F914F913F912F910F900BBE0F900FBE2F
:100D90000F901F90189590E0FC013197E231F1051A
:100DA00008F04CC0EE58FF4F0C94040F8091800067
:100DB0008F7703C0809180008F7D8093800008959D
:100DC00080918000877FF9CF84B58F7702C084B58A
:100DD0008F7D84BD08958091B0008F7703C080918E
:100DE000B0008F7D8093B0000895809190008F7740
:100DF00007C0809190008F7D03C080919000877F15
:100E00008093900008958091A0008F7707C0809113
:100E1000A0008F7D03C08091A000877F8093A000F9
:100E20000895809120018F7707C0809120018F7DE8
:100E300003C080912001877F8093200108950F9344
:100E40001F93CF93DF931F92CDB7DEB7282F30E0EB
:100E5000F901EA5CFE4F8491F901E458FE4F1491C8
:100E6000F901EE53FE4F04910023C1F0882319F0DD
:100E7000698391DF6981E02FF0E0EE0FFF1FE85FEB
:100E8000FD4FA591B4919FB7F8948C91611103C067
:100E90001095812301C0812B8C939FBF0F90DF9110
:100EA000CF911F910F910895FC01818D228D90E0CB
:100EB000805C9F4F821B91098F7399270895FC01D5
:100EC000918D828D981731F0828DE80FF11D858DFF
:100ED00090E008958FEF9FEF0895FC01918D828D32
:100EE000981761F0828DDF01A80FB11D5D968C917E
:100EF000928D9F5F9F73928F90E008958FEF9FEF89
:100F0000089582E299E0892B39F080E090E0892B06
:100F100019F098D1811125C080E090E0892B41F033
:100F200080E090E0892B21F00E94000081111CC01C
:100F300080E090E0892B41F080E090E0892B21F067
:100F40000E940000811113C080E090E0892BA1F085
:100F500080E090E0892B81F00E94000081110AC09E
:100F600008950E940000D8CF0E940000E1CF0E94A7
:100F70000000EACF0C9400000895FC01848DDF018D
:100F8000A80FB11DA35ABF4F2C91848D90E00196FC
:100F90008F739927848FA689B7892C93A089B189EB
:100FA0008C9180648C93938D848D981306C00288F5
:100FB000F389E02D80818F7D80830895CF93DF9327
:100FC000EC01888D8823C1F0EA89FB89808185FD49
:100FD00005C0A889B9898C9186FD0EC00FB607FCA3
:100FE000F5CF808185FFF2CFA889B9898C9185FFE3
:100FF000EDCFCE01C2DFE8CFDF91CF910895CF9240
:10100000DF92FF920F931F93CF93DF931F92CDB781
:10101000DEB76C0181E0D60158968C9358975B96A9
:101020009C915B975C968C915C97981307C0509647
:10103000ED91FC915197808185FD2DC0F601038DC6
:1010400010E00F5F1F4F0F731127F02EF601848DF4
:10105000F81210C00FB607FCF9CFD6015096ED91EB
:10106000FC915197808185FFF1CFC601698385DFAF
:101070006981ECCF838DE80FF11DE35AFF4F608348
:10108000D6015B960C935B975296ED91FC9153972A
:10109000808180620CC0D6015696ED91FC915797E5
:1010A00060835096ED91FC9151978081806480839C
:1010B00081E090E00F90DF91CF911F910F91FF9011
:1010C000DF90CF900895BF92CF92DF92EF92FF9280
:1010D000CF93DF93EC016A017B01B22EE889F98995
:1010E00082E08083411581EE58076105710599F012
:1010F00060E079E08DE390E0A701960163D621508E
:10110000310941095109569547953795279521157C
:1011100080E1380790F0E889F989108260E874E886
:101120008EE190E0A70196014DD621503109410989
:1011300051095695479537952795EC85FD85308360
:10114000EE85FF852083188EEC89FD89B082EA89BF
:10115000FB89808180618083EA89FB898081886046
:101160008083EA89FB89808180688083EA89FB89A2
:1011700080818F7D8083DF91CF91FF90EF90DF9012
:10118000CF90BF9008951F920F920FB60F92112427
:101190000BB60F922F938F939F93EF93FF93E09152
:1011A0002003F09121038081E0912603F091270331
:1011B00082FD12C09081809129038F5F8F732091EF
:1011C0002A03821751F0E0912903F0E0E05FFC4F21
:1011D000958F8093290301C08081FF91EF919F91AA
:1011E0008F912F910F900BBE0F900FBE0F901F90FD
:1011F00018951F920F920FB60F9211240BB60F92F3
:101200002F933F934F935F936F937F938F939F930E
:10121000AF93BF93EF93FF9380E193E0AEDEFF9136
:10122000EF91BF91AF919F918F917F916F915F915E
:101230004F913F912F910F900BBE0F900FBE0F90CB
:101240001F90189580E193E02FDE21E0892B09F4AF
:1012500020E0822F0895109213031092120388EE5B
:1012600093E0A0E0B0E08093140390931503A09363
:101270001603B09317038CE292E0909311038093CE
:10128000100385EC90E090931D0380931C0384EC85
:1012900090E090931F0380931E0380EC90E0909366
:1012A00021038093200381EC90E0909323038093AB
:1012B000220382EC90E0909325038093240386EC34
:1012C00090E09093270380932603109229031092B5
:1012D0002A0310922B0310922C030895089530D204
:1012E000FDDF8AD9C1E8D7E061DA2097E9F309DEAA
:1012F000FBCFCF92DF92EF92FF920F931F93CF938A
:10130000DF936C017A01EB01E60EF71E00E010E0BE
:10131000CE15DF0561F06991D601ED91FC91019048
:10132000F081E02DC6011995080F191FF1CFC801F2
:10133000DF91CF911F910F91FF90EF90DF90CF90B1
:1013400008956115710581F0DB010D900020E9F72A
:10135000AD0141505109461B570BDC01ED91FC9149
:101360000280F381E02D199480E090E00895DC0183
:10137000ED91FC910190F081E02D199468E372E009
:10138000E0CF0F931F93CF93DF93EC01DADF8C0153
:10139000CE01F4DF800F911FDF91CF911F910F914C
:1013A00008958F929F92AF92BF92CF92DF92EF9269
:1013B000FF920F931F93CF93DF93CDB7DEB7A19723
:1013C0000FB6F894DEBF0FBECDBF7C01C42EE52F53
:1013D000CB01D22E19A221E02D1510F02AE0D22E39
:1013E0008E010F5D1F4F8D2C912CA12CB12C6C2DDB
:1013F0007E2FA5019401E6D48C2DD29E8019112454
:10140000015011098A3014F4805D01C0895CF80133
:101410008083211531054105510521F0C22EE32FAE
:10142000CA01E5CFB801C7018CDFA1960FB6F894C9
:10143000DEBF0FBECDBFDF91CF911F910F91FF9007
:10144000EF90DF90CF90BF90AF909F908F900895D6
:10145000CF92DF92EF92FF920F931F93CF93DF9380
:10146000EC016A017B012115310579F4E881F981EC
:101470000190F081E02D642FDF91CF911F910F91AA
:10148000FF90EF90DF90CF9019942A303105D9F476
:1014900077FF18C06DE26BDF8C0144275527BA0136
:1014A0004C195D096E097F092AE0CE017ADF800FB1
:1014B000911FDF91CF911F910F91FF90EF90DF90DF
:1014C000CF9008952AE0B701A601CE01DF91CF9118
:1014D0001F910F91FF90EF90DF90CF9062CF4F92CE
:1014E0005F926F927F928F929F92AF92BF92CF92B4
:1014F000DF92EF92FF920F931F93CF93DF93EC0154
:101500006A017B01B22E9A01AB01C701B6012ED44C
:10151000882319F06BE372E024C026013701E894B8
:1015200077F82FEF3FEF4FE75FE7C301B2011ED41B
:1015300081110CC02FEF3FEF4FE75FE7C301B2010E
:10154000EED118161CF46FE372E00BC02FEF3FEFE3
:101550004FE75FE4C701B60156D31816A4F463E45D
:1015600072E0CE01DF91CF911F910F91FF90EF902C
:10157000DF90CF90BF90AF909F908F907F906F90B3
:101580005F904F90DECE2FEF3FEF4FE75FECC7014C
:10159000B601C5D187FDE3CF20E030E0A901C70146
:1015A000B601BDD187FF09C06DE2CE01E0DE8C013E
:1015B000F7FAF094F7F8F09402C000E010E0A12CE4
:1015C00060E070E080E09FE3AB1439F020E030E0B1
:1015D00040E251E4A8D1A394F7CF9B01AC01C7012D
:1015E000B60111D16B017C010BD22B013C0134D22D
:1015F0009B01AC01C701B60105D16B017C012AE05A
:10160000B301A201CE01CDDE080F191FBB2031F0BE
:1016100067E472E0CE0195DE080F191F7B2C77205E
:1016200019F120E030E040E251E4C701B601F6D202
:101630006B017C01E0D14B01AA2497FCA094BA2C49
:101640002AE030E0B501A401CE0102DF080F191F26
:10165000C501B40103D29B01AC01C701B601D2D0D0
:101660006B017C017A94DBCFC801DF91CF911F9190
:101670000F91FF90EF90DF90CF90BF90AF909F9031
:101680008F907F906F905F904F9008950F931F936E
:10169000CF93DF93EC0123DF8C01CE016FDE800F4F
:1016A000911FDF91CF911F910F9108951F920F927B
:1016B0000FB60F9211242F933F938F939F93AF9365
:1016C000BF938091AE039091AF03A091B003B0910E
:1016D000B1033091AD0323E0230F2D3720F40196A1
:1016E000A11DB11D05C026E8230F0296A11DB11D45
:1016F0002093AD038093AE039093AF03A093B00308
:10170000B093B1038091B2039091B303A091B4035D
:10171000B091B5030196A11DB11D8093B2039093C2
:10172000B303A093B403B093B503BF91AF919F915E
:101730008F913F912F910F900FBE0F901F90189592
:10174000789484B5826084BD84B5816084BD85B59C
:10175000826085BD85B5816085BDEEE6F0E0808163
:1017600081608083E1E8F0E0108280818260808384
:10177000808181608083E0E8F0E080818160808307
:10178000E1EBF0E0808184608083E0EBF0E0808139
:1017900081608083E1E9F0E08081826080838081E4
:1017A00081608083E0E9F0E0808181608083E1EA0C
:1017B000F0E0808182608083808181608083E0EAC4
:1017C000F0E0808181608083E1E2F1E080818260ED
:1017D0008083808181608083E0E2F1E080818160AC
:1017E0008083EAE7F0E0808184608083808182608A
:1017F0008083808181608083808180688083109273
:10180000C10008955058BB27AA270ED0C2C1B3D13A
:1018100030F0B8D120F031F49F3F11F41EF483C1B1
:101820000EF4E095E7FB79C1E92FC4D180F3BA1734
:10183000620773078407950718F071F49EF5DCC101
:101840000EF4E0950B2EBA2FA02D0B01B9019001DB
:101850000C01CA01A0011124FF27591B99F0593F1F
:1018600050F4503E68F11A16F040A22F232F342F67
:101870004427585FF3CF469537952795A795F040B5
:101880005395C9F77EF41F16BA0B620B730B840BCA
:10189000BAF09150A1F0FF0FBB1F661F771F881F82
:1018A000C2F70EC0BA0F621F731F841F48F48795DA
:1018B00077956795B795F7959E3F08F0B3CF9395C9
:1018C000880F08F09927EE0F979587950895DF9375
:1018D000DD27B92FBF7740E85FE3161617064807E4
:1018E0005B0710F4D92F93D19F938F937F936F93BE
:1018F0003AD2E8E0F1E01AD14CD12F913F914F91CB
:101900005F9198D1DD2349F09058A2EA2AED3FE09B
:1019100049EC5FE3D0785D2787DFDF913AC1D9D00A
:1019200008F481E008950CD034C12CD140F023D1CB
:1019300030F021F45F3F19F0F0C051115EC1F3C0E7
:1019400039D198F39923C9F35523B1F3951B550B5E
:10195000BB27AA2762177307840738F09F5F5F4F82
:10196000220F331F441FAA1FA9F333D00E2E3AF0C3
:10197000E0E830D091505040E695001CCAF729D0DD
:10198000FE2F27D0660F771F881FBB1F261737072C
:101990004807AB07B0E809F0BB0B802DBF01FF275C
:1019A00093585F4F2AF09E3F510568F0B6C025C19D
:1019B0005F3FECF3983EDCF3869577956795B79596
:1019C000F7959F5FC9F7880F911D9695879597F9B1
:1019D0000895E1E0660F771F881FBB1F621773072A
:1019E0008407BA0720F0621B730B840BBA0BEE1F3F
:1019F00088F7E095089504D06894B111FEC0089569
:101A0000E1D088F09F5790F0B92F9927B751A0F0F7
:101A1000D1F0660F771F881F991F1AF0BA95C9F782
:101A200012C0B13081F0E8D0B1E00895E5C0672F71
:101A3000782F8827B85F39F0B93FCCF38695779532
:101A40006795B395D9F73EF490958095709561951B
:101A50007F4F8F4F9F4F0895E89409C097FB3EF446
:101A600090958095709561957F4F8F4F9F4F9923EB
:101A7000A9F0F92F96E9BB279395F6958795779569
:101A80006795B795F111F8CFFAF4BB0F11F460FF29
:101A90001BC06F5F7F4F8F4F9F4F16C0882311F081
:101AA00096E911C0772321F09EE8872F762F05C095
:101AB000662371F096E8862F70E060E02AF09A9530
:101AC000660F771F881FDAF7880F9695879597F925
:101AD0000895990F0008550FAA0BE0E8FEEF1616BF
:101AE0001706E807F907C0F012161306E407F50712
:101AF00098F0621B730B840B950B39F40A2661F086
:101B0000232B242B252B21F408950A2609F4A14028
:101B1000A6958FEF811D811D089597F99F6780E835
:101B200070E060E008959FEF80EC0895DF93CF931D
:101B30001F930F93FF92EF92DF927B018C016894C9
:101B400005C0DA2EEF0176D0FE01E894A59125912B
:101B5000359145915591AEF3EF0166DEFE01970197
:101B6000A801DA9479F7DF90EF90FF900F911F9121
:101B7000CF91DF91089500240A94161617061806CF
:101B80000906089500240A94121613061406050681
:101B90000895092E0394000C11F4882352F0BB0F12
:101BA00040F4BF2B11F460FF04C06F5F7F4F8F4F75
:101BB0009F4F089557FD9058440F551F59F05F3FB0
:101BC00071F04795880F97FB991F61F09F3F79F05F
:101BD00087950895121613061406551FF2CF4695E1
:101BE000F1DF08C0161617061806991FF1CF869563
:101BF0007105610508940895E894BB276627772747
:101C0000CB0197F9089565DF08F48FEF08959B01E4
:101C1000AC0160E070E080E89FE385CE0BD0B9CFE7
:101C2000AADF28F0AFDF18F0952309F076CF7BCF3D
:101C30001124E3CFBFDFA0F3959FD1F3950F50E0C0
:101C4000551F629FF001729FBB27F00DB11D639F6E
:101C5000AA27F00DB11DAA1F649F6627B00DA11D14
:101C6000661F829F2227B00DA11D621F739FB00DBA
:101C7000A11D621F839FA00D611D221F749F33272A
:101C8000A00D611D231F849F600D211D822F762FC3
:101C90006A2F11249F5750408AF0E1F088234AF0C0
:101CA000EE0FFF1FBB1F661F771F881F915050400C
:101CB000A9F79E3F510570F030CF9FCF5F3FECF307
:101CC000983EDCF3869577956795B795F795E795F8
:101CD0009F5FC1F7FE2B880F911D9695879597F909
:101CE000089511F40EF41FCF45C06CDFD0F3992393
:101CF000D9F3CEF39F57550B87FF4AD00024A0E6B7
:101D000040EA900180585695979528F4805C660FBC
:101D1000771F881F20F026173707480730F4621B0B
:101D2000730B840B202931294A2BA695179407940D
:101D3000202531254A2758F7660F771F881F20F086
:101D400026173707480730F4620B730B840B200DFE
:101D5000311D411DA09581F7B901842F9158880F3D
:101D60009695879508959B01AC0158CFB2DE880BFC
:101D7000990B08959F3F31F0915020F48795779506
:101D80006795B795880F911D9695879597F9089552
:101D900091505040660F771F881FD2F7089597FB28
:101DA000072E16F4009406D077FD08D037D007FC34
:101DB00005D03EF4909581959F4F0895709561955B
:101DC0007F4F0895A1E21A2EAA1BBB1BFD010DC077
:101DD000AA1FBB1FEE1FFF1FA217B307E407F507DB
:101DE00020F0A21BB30BE40BF50B661F771F881FB7
:101DF000991F1A9469F760957095809590959B014D
:101E0000AC01BD01CF010895EE0FFF1F0590F491C5
:101E1000E02D19940790F691E02D1994AA1BBB1B95
:101E200051E107C0AA1FBB1FA617B70710F0A61BDA
:101E3000B70B881F991F5A95A9F780959095BC01FB
:081E4000CD010895F894FFCFD5
:101E4800FC60DAF266B6BEE0FEF6027465737400F2
:101E5800696E6974206F6B00000000004D04210456
:101E6800F603FE031104200400000000FF077909AF
:101E780054076D075F07DE070D0A006E616E006983
:0A1E88006E66006F7666002E000003
:00000001FF
