:1000000073C000009FC000009DC000009BC00000A6
:1000100099C0000097C0000095C0000093C0000088
:1000200091C000008FC000008DC000008BC0000098
:1000300089C0000087C0000085C0000083C00000A8
:1000400081C000007FC000007DC000007BC00000B8
:1000500079C0000077C0000075C0000022C6000013
:1000600071C0000017C500004BC500006BC0000048
:1000700069C0000047C3000065C0000063C0000005
:1000800061C000005FC000005DC000005BC00000F8
:1000900059C0000057C0000055C0000053C0000008
:1000A00051C000004FC000004DC000004BC0000018
:1000B00049C0000047C0000045C0000043C0000028
:1000C00041C000003FC000003DC000003BC0000038
:1000D00039C0000037C0000035C0000033C0000048
:1000E00031C00000D603B20511241FBECFEFD1E20C
:1000F000DEBFCDBF00E00CBF12E0A0E0B2E0E0ED5B
:10010000FEE000E00BBF02C007900D92A23FB107D6
:10011000D9F723E0A2EFB2E001C01D92AF3DB207D4
:10012000E1F710E0C8EED0E000E005C02297010939
:10013000FE010BBFB3D6C43ED10780E00807B1F77C
:1001400055D5C4C65DCFCF93DF93E9E1F2E020E05F
:1001500030E0408151814817590730F4F901EE0F22
:10016000FF1FE55EFD4F1FC06F3229F4A5E7B2E027
:1001700040E050E00DC0613011F5F8CF6732B1F0CA
:100180006623A1F04E5F5F4F14964E325105B9F0D1
:10019000CD91DC911197C817D90780F7FA01EE0FBE
:1001A000FF1FE958FD4F8081918111C08D3392402E
:1001B00018F48FEF9FEF0BC083E090E008C02E5F34
:1001C0003F4F34962E32310521F687EE93E0DF91D2
:1001D000CF91089584B1806684B9E1E0F1E0808137
:1001E00088618083E1E8F0E080818A608083E1EAD1
:1001F000F0E080818A608083E0E8F0E080818360C5
:100200008083E0EAF0E0808183608083089561303C
:1002100031F040F0623071F0643049F0089591950A
:1002200081959109909338038093370308959195B0
:1002300081959109909336038093350308951F9318
:10024000CF93DF93EC01162FE2DFCE0180959095DE
:100250009370113019F198F0123079F11430D9F50A
:100260002091A00020632093A0002091A0002F7770
:100270002093A0009093AB008093AA002CC0209103
:1002800080002F7C2093800020918000206C2093A0
:10029000800090938900809388001DC02091800089
:1002A000206320938000209180002F77209380008E
:1002B00090938B0080938A000EC02091A0002F7C29
:1002C0002093A0002091A000206C2093A000909388
:1002D000A9008093A800DF91CF911F91089597FF07
:1002E00005C064E091958195910901C062E0A7CFB6
:1002F00097FF05C061E091958195910901C060E08B
:100300009ECFCF93DF93EC01F3DFCE01DF91CF914E
:10031000E6CFCF92DF92EF92FF920F931F93CF938E
:10032000DF938C01C62ED42E82E0681305C0C091E5
:100330003703D091380314C0C0913503D0913603F0
:1003400091E0691769F020913703309138032C0F41
:100350003D1F37FF02C02F5F3F4FE901D595C7957D
:10036000C017D1070CF0D194ED2CFF24E7FCF094DA
:10037000C017D10709F1D7FE04C00C171D0734F0D0
:100380001BC0DD2019F0C017D107B4F4C11003C0A1
:10039000CE01B7DF08C082E0C81203C0CE01A8DFDB
:1003A00002C0CE019CDF8FE99FE00197F1F700C00A
:1003B0000000CE0DDF1DDCCFDF91CF911F910F919B
:1003C000FF90EF90DF90CF900895462F60E0A1CF8F
:1003D00065E080E090E0F9CF789410927A009091F7
:1003E0007A00976090937A0090917A009068909349
:1003F0007A0010927C0090917C00906490937C0035
:10040000882379F080917A00806280937A008091CD
:100410007A00886080937A0080917B00887F809347
:100420007B0080917A00806480937A0078940895AC
:10043000ECE7F0E09081907F90839081982B9083FF
:100440000895FC01208181E090E0062E01C0880F14
:100450000A94EAF7442319F0282B20830895809505
:10046000822380830895482F63E070E088E290E063
:10047000E8DF8FE193E00197F1F700C00000429AB6
:100480008FE193E00197F1F700C0000042980895D2
:10049000CF92DF92FF920F931F93CF93DF931F9220
:1004A000CDB7DEB7182F449885E08A95F1F70000A4
:1004B00081E09983D8DFC12E9981D92E33E0F32EC4
:1004C00007E010E0F601808190E0002E02C09595D3
:1004D00087950A94E2F78170C6DF0150110990F701
:1004E000FA948FEFC81AD80AF110EACF0CE010E0A6
:1004F00080E0B9DF01501109D9F7449A0F90DF91DC
:10050000CF911F910F91FF90DF90CF9008950F939F
:100510001F93CF93DF9300D0CDB7DEB79C011816A1
:100520001906ECF464E670E068D4CB01EAE0F0E090
:10053000BF0163D4825F9D4FDC018C918983C90127
:10054000BF015BD49C01CB01BF0157D4825F9D4F9B
:10055000FC0180818A83F901E25FFD4F20C0002702
:100560001127081B190B8D39FFEF9F0714F082E04C
:1005700001C082E68983C90166EF7FEF3ED4CB01DB
:100580002AE030E0B90139D4825F9D4FDC018C91C3
:100590008A83C801B90131D4825F9D4FFC018081FB
:1005A0008B83CE01019674DF0F900F900F90DF9137
:1005B000CF911F910F9108958CE187B918B80895D4
:1005C00026E040E051EE60E070E089E393E002D283
:1005D00081E002DFFFDDF0DF6AE08CE291E0F5DE32
:1005E00060E072E089E393E04CC343E061E080E0C7
:1005F00090E08FDE2FEF8BE49DE121508040904012
:10060000E1F700C0000063E072E089E393E039C3E2
:1006100043E062E080E090E07CDE2FEF8BE49DE140
:10062000215080409040E1F700C0000068E072E097
:1006300089E393E026C3CCDE65E084ED9EEFC5DE62
:100640002FEF85EA9EE0215080409040E1F700C006
:10065000000008950F931F93CF93DF93E4E1F3E03D
:1006600060E070E0CB0101911191222717FD2095E8
:10067000322F600F711F821F931F23E0E433F207B4
:1006800091F720E130E040E050E0ECD361E3C901B4
:100690005ADDEC01E3EFF2E060E070E0CB010191A4
:1006A0001191222717FD2095322F600F711F821F95
:1006B000931F23E0E331F20791F720E130E040E0BF
:1006C00050E0D0D361E3C9013EDD8C01CE011FDFD4
:1006D000C630D1051CF0063011057CF4ACDF0C17D8
:1006E0001D0714F495DF01C080DF72DE8CE291E01B
:1006F000DF91CF911F910F9104CEDF91CF911F9188
:100700000F9108951F920F920FB60F9211240BB6FE
:100710000F922F933F934F935F936F937F938F939A
:100720009F93AF93BF93EF93FF938091F202209139
:10073000780030917900811113C08091340390E0EA
:10074000FC01EE0FFF1FEC5EFC4F3183208301960E
:100750008F7099278093340381E08093F20212C056
:100760008091130390E0FC01EE0FFF1FED50FD4F51
:100770003183208301968F70992780931303109201
:10078000F20280E055DEFF91EF91BF91AF919F9112
:100790008F917F916F915F914F913F912F910F902A
:1007A0000BBE0F900FBE0F901F9018951092340340
:1007B000109213030895FC01818D228D90E0805CDE
:1007C0009F4F821B91098F7399270895FC01918D8A
:1007D000828D981731F0828DE80FF11D858D90E0A4
:1007E00008958FEF9FEF0895FC01918D828D9817EA
:1007F00061F0828DDF01A80FB11D5D968C91928D05
:100800009F5F9F73928F90E008958FEF9FEF089501
:1008100089EA95E0892B39F080E090E0892B19F086
:1008200098D1811125C080E090E0892B41F080E0D3
:1008300090E0892B21F00E94000081111CC080E013
:1008400090E0892B41F080E090E0892B21F00E941C
:100850000000811113C080E090E0892BA1F080E0BE
:1008600090E0892B81F00E94000081110AC0089558
:100870000E940000D8CF0E940000E1CF0E9400003B
:10088000EACF0C9400000895FC01848DDF01A80FCD
:10089000B11DA35ABF4F2C91848D90E001968F73A8
:1008A0009927848FA689B7892C93A089B1898C91C7
:1008B00080648C93938D848D981306C00288F3898D
:1008C000E02D80818F7D80830895CF93DF93EC01AD
:1008D000888D8823C1F0EA89FB89808185FD05C068
:1008E000A889B9898C9186FD0EC00FB607FCF5CF9B
:1008F000808185FFF2CFA889B9898C9185FFEDCFE2
:10090000CE01C2DFE8CFDF91CF910895CF92DF9281
:10091000FF920F931F93CF93DF931F92CDB7DEB754
:100920006C0181E0D60158968C9358975B969C9108
:100930005B975C968C915C97981307C05096ED91ED
:10094000FC915197808185FD2DC0F601038D10E04B
:100950000F5F1F4F0F731127F02EF601848DF812D1
:1009600010C00FB607FCF9CFD6015096ED91FC915F
:100970005197808185FFF1CFC601698385DF698149
:10098000ECCF838DE80FF11DE35AFF4F6083D60152
:100990005B960C935B975296ED91FC9153978081F7
:1009A00080620CC0D6015696ED91FC9157976083FA
:1009B0005096ED91FC91519780818064808381E015
:1009C00090E00F90DF91CF911F910F91FF90DF90FA
:1009D000CF900895BF92CF92DF92EF92FF92CF9384
:1009E000DF93EC016A017B01B22EE889F98982E08C
:1009F0008083411581EE58076105710599F060E02B
:100A000079E08DE390E0A70196010AD221503109E7
:100A1000410951095695479537952795211580E14C
:100A2000380790F0E889F989108260E874E88EE16F
:100A300090E0A7019601F4D12150310941095109F3
:100A40005695479537952795EC85FD853083EE853E
:100A5000FF852083188EEC89FD89B082EA89FB89A5
:100A6000808180618083EA89FB89808188608083BE
:100A7000EA89FB89808180688083EA89FB8980819B
:100A80008F7D8083DF91CF91FF90EF90DF90CF90AB
:100A9000BF9008951F920F920FB60F9211240BB6BC
:100AA0000F922F938F939F93EF93FF93E0914903BE
:100AB000F0914A038081E0914F03F091500382FD51
:100AC00012C09081809152038F5F8F7320915303E6
:100AD000821751F0E0915203F0E0E75CFC4F958FF4
:100AE0008093520301C08081FF91EF919F918F917C
:100AF0002F910F900BBE0F900FBE0F901F90189567
:100B00001F920F920FB60F9211240BB60F922F93D4
:100B10003F934F935F936F937F938F939F93AF9385
:100B2000BF93EF93FF9389E393E0AEDEFF91EF91E4
:100B3000BF91AF919F918F917F916F915F914F91F5
:100B40003F912F910F900BBE0F900FBE0F901F90F3
:100B5000189589E393E02FDE21E0892B09F420E04A
:100B6000822F089510923C0310923B0388EE93E08D
:100B7000A0E0B0E080933D0390933E03A0933F0339
:100B8000B093400385ED92E090933A03809339034C
:100B900085EC90E0909346038093450384EC90E0CD
:100BA000909348038093470380EC90E090934A032E
:100BB0008093490381EC90E090934C0380934B0326
:100BC00082EC90E090934E0380934D0386EC90E08E
:100BD0009093500380934F0310925203109253034B
:100BE000109254031092550308950895A4D0FDDF88
:100BF000E7DCC8E0D4E02EDD2097E9F309DEFBCF87
:100C0000CF92DF92EF92FF920F931F93CF93DF93D8
:100C10006C017A01EB01E60EF71E00E010E0CE1544
:100C2000DF0561F06991D601ED91FC910190F081B1
:100C3000E02DC6011995080F191FF1CFC801DF91EA
:100C4000CF911F910F91FF90EF90DF90CF9008957B
:100C50006115710581F0DB010D900020E9F7AD0110
:100C600041505109461B570BDC01ED91FC9102806C
:100C7000F381E02D199480E090E0089561EE72E038
:100C8000E7CF0F931F93CF93DF93EC01E1DF8C014C
:100C9000CE01F4DF800F911FDF91CF911F910F9153
:100CA00008951F920F920FB60F9211242F933F9326
:100CB0008F939F93AF93BF938091D7039091D80365
:100CC000A091D903B091DA033091D60323E0230F2A
:100CD0002D3720F40196A11DB11D05C026E8230F74
:100CE0000296A11DB11D2093D6038093D703909344
:100CF000D803A093D903B093DA038091DB039091DA
:100D0000DC03A091DD03B091DE030196A11DB11DAE
:100D10008093DB039093DC03A093DD03B093DE03A9
:100D2000BF91AF919F918F913F912F910F900FBEE7
:100D30000F901F901895789484B5826084BD84B517
:100D4000816084BD85B5826085BD85B5816085BDC6
:100D5000EEE6F0E0808181608083E1E8F0E01082DF
:100D6000808182608083808181608083E0E8F0E020
:100D7000808181608083E1EBF0E08081846080830A
:100D8000E0EBF0E0808181608083E1E9F0E0808148
:100D900082608083808181608083E0E9F0E08081EF
:100DA00081608083E1EAF0E08081826080838081DD
:100DB00081608083E0EAF0E0808181608083E1E20D
:100DC000F1E0808182608083808181608083E0E2C5
:100DD000F1E0808181608083EAE7F0E080818460D7
:100DE0008083808182608083808181608083808134
:100DF000806880831092C100089597FB072E16F437
:100E0000009406D077FD08D04DD007FC05D03EF405
:100E1000909581959F4F0895709561957F4F0895A6
:100E2000A1E21A2EAA1BBB1BFD010DC0AA1FBB1FEE
:100E3000EE1FFF1FA217B307E407F50720F0A21B60
:100E4000B30BE40BF50B661F771F881F991F1A94CD
:100E500069F760957095809590959B01AC01BD01F7
:100E6000CF010895052E97FB16F400940FD057FD7F
:100E700005D0D6DF07FC02D046F408C05095409557
:100E8000309521953F4F4F4F5F4F08959095809536
:100E9000709561957F4F8F4F9F4F08950790F69102
:100EA000E02D1994AA1BBB1B51E107C0AA1FBB1F51
:100EB000A617B70710F0A61BB70B881F991F5A95E6
:100EC000A9F780959095BC01CD010895F894FFCFC6
:100ED0006F6B006C65667400726967687400FC6013
:100EE000DAF266B6BEE0FEF60258020300F4010430
:100EF00000BC0105007C0106004F0107002C010821
:100F00000013010900FA000A00F0000B00DA000CDF
:100F100000CD000D00BE000E00B4000F00AC0010AC
:100F200000A30011009C001200960013008F001413
:100F3000008E0015008D0016008C00170087001829
:100F400000820019004B02030026020400C30105C1
:100F50000084010600520107003101080011010957
:100F600000F4000A00E1000B00D1000C00C3000DEA
:100F700000B8000E00AC000F00A000100098001197
:100F800000900012008C00130089001400810015ED
:100F9000007C00160078001700740018006E00191D
:100FA000000000000086040006DB03F403E603658E
:100FB000040D0A006E616E00696E66006F76660051
:020FC0002E0001
:00000001FF
