:1000000072C000009EC000009CC000009AC00000AA
:1000100098C0000096C0000094C0000092C000008C
:1000200090C000008EC000008CC000008AC000009C
:1000300088C0000086C0000084C0000082C00000AC
:1000400080C000007EC000007CC000007AC00000BC
:1000500078C0000076C0000074C0000045C50000F4
:1000600070C0000057C300008BC300006AC00000CE
:1000700068C0000066C0000064C0000062C00000EC
:1000800060C000005EC000005CC000005AC00000FC
:1000900058C0000056C0000054C0000052C000000C
:1000A00050C000004EC000004CC000004AC000001C
:1000B00048C0000046C0000044C0000042C000002C
:1000C00040C000003EC000003CC000003AC000003C
:1000D00038C0000036C0000034C0000032C000004C
:1000E00030C00000F20311241FBECFEFD1E2DEBF0B
:1000F000CDBF00E00CBF12E0A0E0B2E0E8EBFCE016
:1001000000E00BBF02C007900D92A433B107D9F7EE
:1001100022E0A4E3B2E001C01D92AE3DB207E1F7D8
:1001200010E0C6EED0E000E005C022970109FE0114
:100130000BBFBCD5C43ED10780E00807B1F796D30A
:10014000B9C55ECFEAE7F0E01082808187608083E6
:10015000ACE7B0E08C9180648C9380818068808370
:1001600080818064808380917800909179000895E7
:100170003A9A3B9A3C9AE6DF26E040E051EE60E096
:1001800070E088E392E066C2EFE9FFE03197F1F7B3
:1001900000C0000090917C00907F90937C00909133
:1001A0007C00892B80937C0080917A00806480930E
:1001B0007A0080917A00806180937A0080917A0041
:1001C00084FDFCCF80917A00806180937A008091D9
:1001D00078009091790008950F931F93CF93DF9348
:1001E000CAE0D0E0009136021091370280E0CCDF07
:1001F000800F911F90933702809336020091340252
:100200001091350281E0C0DF080F191F10933502ED
:1002100000933402219731F7809136029091370292
:10022000EAE0F0E0BF010CD59B01709337026093C8
:100230003602C801BF0104D5FB01709335026093FB
:100240003402B9016350710983E89AE1F9D464502A
:1002500071097093030260930202BF016B5F7F4FCD
:1002600082E69BE0EDD461507109709301026093C6
:1002700000024AE050E0B90188E392E021D46091A5
:100280003402709135024AE050E088E392E018D4DD
:1002900060910202709103024AE050E088E392E02C
:1002A000E6D364E072E088E392E028D36091000234
:1002B000709101024AE050E088E392E0DFD3809140
:1002C000000290910102209102023091030228174E
:1002D00039073CF0919581959109909303028093A1
:1002E000020268E072E088E392E013D360910202B8
:1002F000709103024AE050E088E392E0BFD361E1ED
:1003000072E088E392E005D38091020290910302AB
:10031000DF91CF911F910F910895E0EAF0E0908175
:100320009F7D908390819068908390E09093A90046
:100330008093A8000895E0E8F0E090819F7D90838D
:1003400090819068908390E09093890080938800DA
:100350000895E0EAF0E090819F7790839081906229
:10036000908390E09093AB008093AA000895E0E81A
:10037000F0E090819F77908390819062908390E0ED
:1003800090938B0080938A00089526DF9C01215F63
:100390003F4F2F313105B8F497FF05C084E6D9DF10
:1003A00084E6C9DF06C0892B71F084E6B6DF84E6F7
:1003B000DEDF2FEF87E893E1215080409040E1F7A6
:1003C00000C00000089584E6C4DF84E6D0CFE1EAEF
:1003D000F0E0808182608083808188608083E0EAB1
:1003E000F0E08081816080831092A5001092A400CB
:1003F0000895E1E8F0E080818260808380818860F8
:100400008083E0E8F0E08081816080838081806289
:10041000808310928500109284000895269A259A70
:10042000E1E0F1E080818860808380818061808369
:10043000E0DFCDDF9DCEFC01818D228D90E0805CE0
:100440009F4F821B91098F7399270895FC01918D0D
:10045000828D981731F0828DE80FF11D858D90E027
:1004600008958FEF9FEF0895FC01918D828D98176D
:1004700061F0828DDF01A80FB11D5D968C91928D88
:100480009F5F9F73928F90E008958FEF9FEF089585
:1004900089EE93E0892B39F080E090E0892B19F008
:1004A00098D1811125C080E090E0892B41F080E057
:1004B00090E0892B21F00E94000081111CC080E097
:1004C00090E0892B41F080E090E0892B21F00E94A0
:1004D0000000811113C080E090E0892BA1F080E042
:1004E00090E0892B81F00E94000081110AC00895DC
:1004F0000E940000D8CF0E940000E1CF0E940000BF
:10050000EACF0C9400000895FC01848DDF01A80F50
:10051000B11DA35ABF4F2C91848D90E001968F732B
:100520009927848FA689B7892C93A089B1898C914A
:1005300080648C93938D848D981306C00288F38910
:10054000E02D80818F7D80830895CF93DF93EC0130
:10055000888D8823C1F0EA89FB89808185FD05C0EB
:10056000A889B9898C9186FD0EC00FB607FCF5CF1E
:10057000808185FFF2CFA889B9898C9185FFEDCF65
:10058000CE01C2DFE8CFDF91CF910895CF92DF9205
:10059000FF920F931F93CF93DF931F92CDB7DEB7D8
:1005A0006C0181E0D60158968C9358975B969C918C
:1005B0005B975C968C915C97981307C05096ED9171
:1005C000FC915197808185FD2DC0F601038D10E0CF
:1005D0000F5F1F4F0F731127F02EF601848DF81255
:1005E00010C00FB607FCF9CFD6015096ED91FC91E3
:1005F0005197808185FFF1CFC601698385DF6981CD
:10060000ECCF838DE80FF11DE35AFF4F6083D601D5
:100610005B960C935B975296ED91FC91539780817A
:1006200080620CC0D6015696ED91FC91579760837D
:100630005096ED91FC91519780818064808381E098
:1006400090E00F90DF91CF911F910F91FF90DF907D
:10065000CF900895BF92CF92DF92EF92FF92CF9307
:10066000DF93EC016A017B01B22EE889F98982E00F
:100670008083411581EE58076105710599F060E0AE
:1006800079E08DE390E0A7019601EED22150310987
:10069000410951095695479537952795211580E1D0
:1006A000380790F0E889F989108260E874E88EE1F3
:1006B00090E0A7019601D8D2215031094109510992
:1006C0005695479537952795EC85FD853083EE85C2
:1006D000FF852083188EEC89FD89B082EA89FB8929
:1006E000808180618083EA89FB8980818860808342
:1006F000EA89FB89808180688083EA89FB8980811F
:100700008F7D8083DF91CF91FF90EF90DF90CF902E
:10071000BF9008951F920F920FB60F9211240BB63F
:100720000F922F938F939F93EF93FF93E091480243
:10073000F09149028081E0914E02F0914F0282FDDA
:1007400012C09081809151028F5F8F73209152026D
:10075000821751F0E0915102F0E0E85CFD4F958F77
:100760008093510201C08081FF91EF919F918F9101
:100770002F910F900BBE0F900FBE0F901F901895EA
:100780001F920F920FB60F9211240BB60F922F9358
:100790003F934F935F936F937F938F939F93AF9309
:1007A000BF93EF93FF9388E392E0AEDEFF91EF916A
:1007B000BF91AF919F918F917F916F915F914F9179
:1007C0003F912F910F900BBE0F900FBE0F901F9077
:1007D000189588E392E02FDE21E0892B09F420E0D0
:1007E000822F089510923B0210923A0288EE93E015
:1007F000A0E0B0E080933C0290933D02A0933E02C3
:10080000B0933F0288E192E09093390280933802DE
:1008100085EC90E0909345028093440284EC90E054
:10082000909347028093460280EC90E090934902B7
:100830008093480281EC90E090934B0280934A02AF
:1008400082EC90E090934D0280934C0286EC90E015
:1008500090934F0280934E021092510210925202D6
:1008600010925302109254020895089587D1FDDF2B
:10087000D5DDC8E4D2E089DD2097E9F309DEFBCFBE
:10088000CF92DF92EF92FF920F931F93CF93DF935C
:100890006C017A01EB01E60EF71E00E010E0CE15C8
:1008A000DF0561F06991D601ED91FC910190F08135
:1008B000E02DC6011995080F191FF1CFC801DF916E
:1008C000CF911F910F91FF90EF90DF90CF900895FF
:1008D0006115710581F0DB010D900020E9F7AD0194
:1008E00041505109461B570BDC01ED91FC910280F0
:1008F000F381E02D199480E090E00895E9CFDC01C8
:10090000ED91FC910190F081E02D199464E272E088
:10091000DFCF0F931F93CF93DF93EC01D9DF8C01CF
:10092000CE01F4DF800F911FDF91CF911F910F91C6
:1009300008958F929F92AF92BF92CF92DF92EF92E3
:10094000FF920F931F93CF93DF93CDB7DEB7A1979D
:100950000FB6F894DEBF0FBECDBF7C01C42EE52FCD
:10096000CB01D22E19A221E02D1510F02AE0D22EB3
:100970008E010F5D1F4F8D2C912CA12CB12C6C2D55
:100980007E2FA501940170D18C2DD29E8019112447
:10099000015011098A3014F4805D01C0895CF801AE
:1009A0008083211531054105510521F0C22EE32F29
:1009B000CA01E5CFB801C7018BDFA1960FB6F89445
:1009C000DEBF0FBECDBFDF91CF911F910F91FF9082
:1009D000EF90DF90CF90BF90AF909F908F90089551
:1009E000CF92DF92EF92FF920F931F93CF93DF93FB
:1009F000EC016A017B012115310579F4E881F98167
:100A00000190F081E02D642FDF91CF911F910F9124
:100A1000FF90EF90DF90CF9019942A303105D9F4F0
:100A200077FF18C06DE26BDF8C0144275527BA01B0
:100A30004C195D096E097F092AE0CE017ADF800F2B
:100A4000911FDF91CF911F910F91FF90EF90DF9059
:100A5000CF9008952AE0B701A601CE01DF91CF9192
:100A60001F910F91FF90EF90DF90CF9062CF9A018E
:100A7000AB01662757FD6095762FB2CF0F931F937A
:100A8000CF93DF93EC019A01AB01662757FD609588
:100A9000762FA6DF8C01CE0139DF800F911FDF9109
:100AA000CF911F910F9108952115310541F4DC017B
:100AB000ED91FC910190F081E02D642F199439CFD4
:100AC0000F931F93CF93DF93EC019A01AB0160E08A
:100AD00070E0EADF8C01CE0119DF800F911FDF91FA
:100AE000CF911F910F9108951F920F920FB60F9201
:100AF00011242F933F938F939F93AF93BF93809134
:100B0000D6029091D702A091D802B091D90230912B
:100B1000D50223E0230F2D3720F40196A11DB11D2E
:100B200005C026E8230F0296A11DB11D2093D50212
:100B30008093D6029093D702A093D802B093D902A3
:100B40008091DA029091DB02A091DC02B091DD028B
:100B50000196A11DB11D8093DA029093DB02A09350
:100B6000DC02B093DD02BF91AF919F918F913F91D5
:100B70002F910F900FBE0F901F901895789484B509
:100B8000826084BD84B5816084BD85B5826085BD89
:100B900085B5816085BDEEE6F0E08081816080836F
:100BA000E1E8F0E010828081826080838081816052
:100BB0008083E0E8F0E0808181608083E1EBF0E019
:100BC000808184608083E0EBF0E0808181608083BD
:100BD000E1E9F0E0808182608083808181608083B0
:100BE000E0E9F0E0808181608083E1EAF0E08081EB
:100BF00082608083808181608083E0EAF0E0808190
:100C000081608083E1E2F1E0808182608083808185
:100C100081608083E0E2F1E0808181608083EAE7A7
:100C2000F0E0808184608083808182608083808125
:100C3000816080838081806880831092C1000895E4
:100C4000AA1BBB1B51E107C0AA1FBB1FA617B707F2
:100C500010F0A61BB70B881F991F5A95A9F780950E
:100C60009095BC01CD010895A1E21A2EAA1BBB1BD1
:100C7000FD010DC0AA1FBB1FEE1FFF1FA217B30768
:100C8000E407F50720F0A21BB30BE40BF50B661F7E
:100C9000771F881F991F1A9469F760957095809542
:100CA00090959B01AC01BD01CF0108950790F6918D
:080CB000E02D1994F894FFCF28
:100CB80001000100202C200045726765626E69738F
:100CC800002E2E0000000000C60240041B02340261
:100CD8002602A5020D0A006E616E00696E66006F3D
:040CE800766600002C
:00000001FF
