:1000000073C00000A2C00000A0C0000057C40000E0
:100010009CC000009AC0000098C0000096C000007C
:1000200094C0000092C0000073C400008EC00000A5
:100030008CC000008AC0000088C0000086C000009C
:1000400084C0000082C0000080C000007EC00000AC
:100050007CC000007AC0000078C00000DFC400004F
:1000600074C000004AC700007EC700006EC00000D8
:100070006CC000006AC0000068C0000066C00000DC
:1000800064C0000062C0000060C000005EC00000EC
:100090005CC000005AC0000058C0000056C00000FC
:1000A00054C0000052C0000050C000004EC000000C
:1000B0004CC000004AC0000048C0000046C000001C
:1000C00044C0000042C0000040C000003EC000002C
:1000D0003CC000003AC0000038C0000036C000003C
:1000E00034C00000B204E50711241FBECFEFD1E2F7
:1000F000DEBFCDBF00E00CBF12E0A0E0B2E0E8E060
:10010000F8E100E00BBF02C007900D92AA38B107DA
:10011000D9F723E0AAE8B2E001C01D92A739B207DF
:10012000E1F710E0C8EED0E000E006C02297010938
:10013000FE010BBF0E94EF0BC43ED10780E0080711
:10014000A9F70E94C9090C94020C5ACF84B18066A9
:1001500084B9E1E0F1E0808188618083E1E8F0E04A
:1001600080818A608083E1EAF0E080818A60808318
:10017000E0E8F0E0808183608083E0EAF0E0808165
:10018000836080830895FC01413031F040F04230BB
:1001900061F0443039F0089571956195710971836A
:1001A00060830895719561957109738362830895E1
:1001B0001F93CF93DF93EB01142FE5DFBE01609512
:1001C00070957370113019F198F0123079F1143084
:1001D000D9F58091A00080638093A0008091A00059
:1001E0008F778093A0007093AB006093AA002CC01F
:1001F000809180008F7C8093800080918000806C53
:100200008093800070938900609388001DC0809166
:100210008000806380938000809180008F7780933E
:10022000800070938B0060938A000EC08091A000C4
:100230008F7C8093A0008091A000806C8093A000B0
:100240007093A9006093A800DF91CF911F9108954A
:1002500077FF05C071956195710944E001C042E0E6
:10026000A7CF77FF05C071956195710941E001C085
:1002700040E09ECF0F931F93CF93DF93EC018B0150
:10028000F0DFB801CE01DF91CF911F910F91E0CF48
:10029000CF93DF93EC015A9AE5E0F1E08081816031
:1002A0008083E9E6F0E0808180618083EA9AE8E675
:1002B000F0E0808182608083ECE6F0E08081826003
:1002C00080837894F5D36C8B7D8B8E8B9F8BF0D352
:1002D000688B798B8A8B9B8BDF91CF910895FC0182
:1002E000613029F4608171818281938108956481F4
:1002F0007581868197810895CF93DF93EC011882F1
:1003000019821A821B821C821D821E821F821886FD
:1003100019861A861B861C861D861E861F86C8D3D4
:10032000688B798B8A8B9B8BC3D36C8B7D8B8E8BED
:100330009F8BCE0148961DD1CE01CA96DF91CF91F9
:1003400018C18F929F92AF92BF92CF92DF92EF929D
:10035000FF921F93CF93DF93EC01162FA9D3113097
:1003600029F4C888D988EA88FB8804C0CC88DD884D
:10037000EE88FF886C197D098E099F090E94D20AB8
:100380006B017C01113049F488819981AA81BB817C
:10039000488559856A857B8508C08C819D81AE81A1
:1003A000BF814C855D856E857F854C015D01841A1A
:1003B000950AA60AB70AC501B4010E94D20A4B01E8
:1003C0005C01113071F488819981AA81BB81888791
:1003D0009987AA87BB876CD3688B798B8A8B9B8B19
:1003E0000DC08C819D81AE81BF818C879D87AE873A
:1003F000BF875ED36C8B7D8B8E8B9F8B20E030E034
:100400004AE754E4C501B4010E94600BA7019601BC
:100410000E94390ADF91CF911F91FF90EF90DF90FA
:10042000CF90BF90AF909F908F900895CF93DF9320
:10043000EC01613031F485DF0E94A60ACE01CA9634
:1004400006C062E07EDF0E94A60ACE014896DF91D8
:10045000CF9179C00F931F93CF93DF93EC018A0163
:10046000613019F4BA01CA960AC0623029F06111EC
:100470000BC0BA01CA969FD0B801CE014896DF9151
:10048000CF911F910F9197C0DF91CF911F910F9145
:100490000895FC01613069F440815181628173816A
:1004A0004F5F5F4F6F4F7F4F4083518362837383F2
:1004B000089544815581668177814F5F5F4F6F4F0B
:1004C0007F4F44835583668377830895CF92DF926D
:1004D000EF92FF92CF93DF93EC01688579858827AF
:1004E00077FD8095982F0E94D40A6B017C012E899C
:1004F0003F89488D598D6A897B898C899D8955D71B
:100500002A8D3B8D4C8D5D8D50D79B01AC01C70171
:10051000B6014BD70E94A10ACB01611524E07207F6
:1005200014F08FEF93E08832910514F488E290E0A4
:100530009D878C8799878887DF91CF91FF90EF9077
:10054000DF90CF900895CF93DF93EC01CB016A85C4
:100550007B85681B790B882777FD8095982F0E94F3
:10056000D40A6A8B7B8B8C8B9D8BCE01DF91CF91D4
:10057000ADCFFC0110821182128213821482158287
:10058000168217821186108615861486168617869F
:10059000108A118A128A138A148A158A168A178A6F
:1005A000108E118E128E138E148E158E168E178E3F
:1005B00010A211A20895FC017387628708958F929B
:1005C0009F92AF92BF92CF92DF92EF92FF9261E043
:1005D00081E992E084DE6B017C016CE072E08AEFDD
:1005E00092E074D562E081E992E020DFBC018DEEFB
:1005F00092E037DE61E081E992E018DFBC018DEE28
:1006000092E026DE66E172E08AEF92E05FD52AE0B2
:1006100030E0B701A6018AEF92E0C3D560E272E054
:100620008AEF92E053D540918B0250918C026091F9
:100630008D0270918E022AE030E08AEF92E0BDD503
:1006400080918B0290918C02A0918D02B0918E02CC
:1006500046015701881A990AAA0ABB0AE0918F023B
:10066000F0919002EE0FFF1FEA5FFD4F60817181F4
:10067000882777FD8095982F97D79B01AC0195D659
:1006800060D7CB01AA2797FDA095BA2F88169906A7
:10069000AA06BB0670F16AE67FEF8DEE92E0D8DD28
:1006A00060E77EEF8DEE92E0DCDD6EE170E080E0F1
:1006B00090E02DD260E070E08DEE92E0DBDD809185
:1006C0008F029091900201969093900280938F02F6
:1006D0002FEF87EA91E6215080409040E1F700C07B
:1006E0000000C0928B02D0928C02E0928D02F092B8
:1006F0008E02FF90EF90DF90CF90BF90AF909F90D1
:100700008F9008958F929F92AF92BF92CF92DF9277
:10071000EF92FF92CF93DF9361E081E992E0DFDD1A
:100720006B017C016CE271E08DEE92E091DD6CE298
:1007300072E08AEF92E0CAD466E172E08AEF92E05A
:10074000C5D42AE030E0B701A6018AEF92E029D5AE
:1007500060E272E08AEF92E0B9D440918B0250914E
:100760008C0260918D0270918E022AE030E08AEF57
:1007700092E023D5C0918F02D091900280918B029C
:1007800090918C02A0918D02B0918E02460157018A
:10079000881A990AAA0ABB0AFE01EE0FFF1FEA5F38
:1007A000FD4F60817181882777FD8095982FFCD659
:1007B00021EE3AE744E15FE383D7C3D6CB01AA2712
:1007C00097FDA095BA2F88159905AA05BB0568F570
:1007D0002196D0939002C0938F026AE67FEF8DEE50
:1007E00092E036DD60E77EEF8DEE92E03ADD6EE17D
:1007F00070E080E090E08BD160E070E08DEE92E000
:1008000039DD2FEF87EA91E6215080409040E1F7F3
:1008100000C0000081E992E06FDDC0928B02D092AF
:100820008C02E0928D02F0928E02DF91CF91FF90C8
:10083000EF90DF90CF90BF90AF909F908F900895F2
:1008400080918F0290919002009709F4B8CE813088
:10085000910509F457CF029731F580918A028111F1
:10086000F5CF61E081E992E03ADD60938B0270930D
:100870008C0280938D0290938E0261E372E08AEF86
:1008800092E024D440918B0250918C0260918D02B1
:1008900070918E022AE030E08AEF92E08ED481E0FF
:1008A00080938A02D3CF60E070E08DEE92E0E2CCDC
:1008B000C7DF64E170E080E090E029C11F920F92F1
:1008C0000FB60F9211240BB60F922F933F934F93B5
:1008D0005F936F937F938F939F93AF93BF93EF93A8
:1008E000FF9361E081E992E0D4DDFF91EF91BF9148
:1008F000AF919F918F917F916F915F914F913F91B8
:100900002F910F900BBE0F900FBE0F901F90189558
:100910001F920F920FB60F9211240BB60F922F93C6
:100920003F934F935F936F937F938F939F93AF9377
:10093000BF93EF93FF9362E081E992E0AADDFF911C
:10094000EF91BF91AF919F918F917F916F915F9147
:100950004F913F912F910F900BBE0F900FBE0F90B4
:100960001F90189582E2E9EAF2E0DF01982F1D92CC
:100970009A95E9F7EBECF2E0DF011D928A95E9F731
:10098000089567E372E08AEF92E0A4D38AEF92E0E1
:1009900045D1892BD9F341E060E070E08AEF92E025
:1009A0008AD470930702609306028AEF92E036D1F0
:1009B000892BD9F341E060E070E08AEF92E07BD4CC
:1009C00070930902609308028AEF92E027D1892B85
:1009D000D9F341E060E070E08AEF92E06CD470936C
:1009E0000B0260930A02089526E040E051EE60E0B9
:1009F00070E08AEF92E021D28DEE92E0A7DB81E9F0
:100A000092E046DCBEDF44E650E060E081E992E03F
:100A100021DD60E672E08AEF92E05CC31F920F92E4
:100A20000FB60F9211242F933F938F939F93AF9301
:100A3000BF938091F2029091F302A091F402B091E1
:100A4000F5023091F10223E0230F2D3720F40196B7
:100A5000A11DB11D05C026E8230F0296A11DB11DE1
:100A60002093F1028093F2029093F302A093F40298
:100A7000B093F5028091F6029091F702A091F802EE
:100A8000B091F9020196A11DB11D8093F6029093D9
:100A9000F702A093F802B093F902BF91AF919F9132
:100AA0008F913F912F910F900FBE0F901F9018952F
:100AB0002FB7F8946091F2027091F3028091F402E2
:100AC0009091F5022FBF08953FB7F8948091F602F8
:100AD0009091F702A091F802B091F90226B5A89B77
:100AE00005C02F3F19F00196A11DB11D3FBF66271C
:100AF000782F892F9A2F620F711D811D911D42E061
:100B0000660F771F881F991F4A95D1F70895CF92D6
:100B1000DF92EF92FF92CF93DF936B017C01D4DFE2
:100B2000EB01C114D104E104F10479F03CD4CCDF31
:100B30006C1B7D0B683E7340A0F381E0C81AD1089E
:100B4000E108F108C851DC4FECCFDF91CF91FF9065
:100B5000EF90DF90CF900895789484B5826084BD43
:100B600084B5816084BD85B5826085BD85B58160B1
:100B700085BDEEE6F0E0808181608083E1E8F0E011
:100B80001082808182608083808181608083E0E840
:100B9000F0E0808181608083E1EBF0E0808184601F
:100BA0008083E0EBF0E0808181608083E1E9F0E028
:100BB000808182608083808181608083E0E9F0E0D1
:100BC000808181608083E1EAF0E0808182608083BF
:100BD000808181608083E0EAF0E0808181608083B1
:100BE000E1E2F1E0808182608083808181608083A6
:100BF000E0E2F1E0808181608083EAE7F0E08081DB
:100C00008460808380818260808380818160808332
:100C10008081806880831092C1000895FC01818DDD
:100C2000228D90E0805C9F4F821B91098F739927E2
:100C30000895FC01918D828D981731F0828DE80F17
:100C4000F11D858D90E008958FEF9FEF0895FC01D1
:100C5000918D828D981761F0828DDF01A80FB11DF3
:100C60005D968C91928D9F5F9F73928F90E0089517
:100C70008FEF9FEF08958CED97E0892B39F080E09E
:100C800090E0892B19F098D1811125C080E090E087
:100C9000892B41F080E090E0892B21F00E94000038
:100CA00081111CC080E090E0892B41F080E090E051
:100CB000892B21F00E940000811113C080E090E098
:100CC000892BA1F080E090E0892B81F00E94000048
:100CD00081110AC008950E940000D8CF0E94000030
:100CE000E1CF0E940000EACF0C9400000895FC01BF
:100CF000848DDF01A80FB11DA35ABF4F2C91848DA5
:100D000090E001968F739927848FA689B7892C93D9
:100D1000A089B1898C9180648C93938D848D981374
:100D200006C00288F389E02D80818F7D808308953D
:100D3000CF93DF93EC01888D8823C1F0EA89FB898A
:100D4000808185FD05C0A889B9898C9186FD0EC07A
:100D50000FB607FCF5CF808185FFF2CFA889B9894E
:100D60008C9185FFEDCFCE01C2DFE8CFDF91CF912F
:100D70000895CF92DF92FF920F931F93CF93DF934B
:100D80001F92CDB7DEB76C0181E0D60158968C93E7
:100D900058975B969C915B975C968C915C979813A7
:100DA00007C05096ED91FC915197808185FD2DC033
:100DB000F601038D10E00F5F1F4F0F731127F02E08
:100DC000F601848DF81210C00FB607FCF9CFD601DA
:100DD0005096ED91FC915197808185FFF1CFC6012E
:100DE000698385DF6981ECCF838DE80FF11DE35ABC
:100DF000FF4F6083D6015B960C935B975296ED9103
:100E0000FC915397808180620CC0D6015696ED917B
:100E1000FC91579760835096ED91FC91519780819A
:100E20008064808381E090E00F90DF91CF911F91EB
:100E30000F91FF90DF90CF900895BF92CF92DF92F5
:100E4000EF92FF92CF93DF93EC016A017B01B22E08
:100E5000E889F98982E08083411581EE58076105B0
:100E6000710599F060E079E08DE390E0A7019601CB
:100E70008AD4215031094109510956954795379532
:100E80002795211580E1380790F0E889F9891082CB
:100E900060E874E88EE190E0A701960174D42150D7
:100EA0003109410951095695479537952795EC85A4
:100EB000FD853083EE85FF852083188EEC89FD89C2
:100EC000B082EA89FB89808180618083EA89FB891D
:100ED000808188608083EA89FB8980818068808343
:100EE000EA89FB8980818F7D8083DF91CF91FF909C
:100EF000EF90DF90CF90BF9008951F920F920FB6A2
:100F00000F9211240BB60F922F938F939F93EF9311
:100F1000FF93E0910A03F0910B038081E0911003AD
:100F2000F091110382FD12C09081809113038F5FB5
:100F30008F7320911403821751F0E0911303F0E0B6
:100F4000E650FD4F958F8093130301C08081FF9180
:100F5000EF919F918F912F910F900BBE0F900FBE2D
:100F60000F901F9018951F920F920FB60F92112499
:100F70000BB60F922F933F934F935F936F937F9393
:100F80008F939F93AF93BF93EF93FF938AEF92E07A
:100F9000AEDEFF91EF91BF91AF919F918F917F91C5
:100FA0006F915F914F913F912F910F900BBE0F90DA
:100FB0000FBE0F901F9018958AEF92E02FDE21E070
:100FC000892B09F420E0822F08951092FD021092DF
:100FD000FC0288EE93E0A0E0B0E08093FE029093E4
:100FE000FF02A0930003B09301038CE692E090937C
:100FF000FB028093FA0285EC90E0909307038093C4
:10100000060384EC90E0909309038093080380EC3E
:1010100090E090930B0380930A0381EC90E090930F
:101020000D0380930C0382EC90E090930F03809368
:101030000E0386EC90E090931103809310031092BE
:1010400013031092140310921503109216030895BF
:10105000CF92DF92EF92FF920F931F93CF93DF9384
:101060007C016A01EB0100E010E00C151D0571F038
:101070006991D701ED91FC910190F081E02DC701BC
:101080001995892B19F00F5F1F4FEFCFC801DF9122
:10109000CF911F910F91FF90EF90DF90CF90089527
:1010A0006115710581F0DB010D900020E9F7AD01BC
:1010B00041505109461B570BDC01ED91FC91028018
:1010C000F381E02D199480E090E00895E9CF68E77E
:1010D00072E0E6CF0F931F93CF93DF93EC01E0DF35
:1010E0008C01CE01F4DF800F911FDF91CF911F9112
:1010F0000F9108958F929F92AF92BF92CF92DF92FD
:10110000EF92FF920F931F93CF93DF93CDB7DEB78C
:10111000A1970FB6F894DEBF0FBECDBF7C01C42EE1
:10112000E52FCB01D22E19A221E02D1510F02AE0D7
:10113000D22E8E010F5D1F4F8D2C912CA12CB12C26
:101140006C2D7E2FA50194011ED38C2DD29E80196B
:101150001124015011098A3014F4805D01C0895CAA
:10116000F8018083211531054105510521F0C22E7A
:10117000E32FCA01E5CFB801C70192DFA1960FB6F0
:10118000F894DEBF0FBECDBFDF91CF911F910F91BD
:10119000FF90EF90DF90CF90BF90AF909F908F9097
:1011A00008952115310541F4DC01ED91FC91019088
:1011B000F081E02D642F19949DCF0F931F93CF934F
:1011C000DF93EC01EEDF8C01CE0181DF800F911FF8
:1011D000DF91CF911F910F9108950F931F93CF939C
:1011E000DF93EC0165DC688779878A879B87E881D4
:1011F000F9810084F185E02DCE01199597FF14C087
:1012000057DC088519852A853B85601B710B820B8D
:10121000930B0C811D812E813F816017710782071E
:10122000930728F38FEF9FEFDF91CF911F910F91DD
:101230000895FF920F931F93CF93DF93EC018B01DF
:10124000F42ECE01CADF9C0197FD28C08D32910596
:1012500019F1C0970A9710F1FF2019F02E323105CD
:10126000F9F001301105F9F00230110569F42D3063
:10127000310551F034F4295031092230310520F084
:1012800012C02032310579F4E881F9810680F781B6
:10129000E02DCE011995D5CF8DE203C0C90105C05F
:1012A0008EE290E002C08FEF9FEFDF91CF911F9110
:1012B0000F91FF900895CF92DF92FF920F931F93AB
:1012C000CF93DF9300D01F92CDB7DEB76C01042F10
:1012D00040E0AFDFFC0197FD49C020E030E0A9010C
:1012E000F12C112707FD1095E017F107E1F0ED3221
:1012F000F105B9F0CF01C0970A97A8F4AAE0B0E0D1
:1013000064D29B01AC01CF01AA2797FDA095BA2F0B
:10131000280F391F4A1F5B1F20533109410951090A
:1013200002C0FF24F394D601ED91FC910680F78171
:10133000E02DC60129833A834B835C831995C6014E
:101340004CDFFC01C09729813A814B815C810A976F
:1013500058F2E017F10741F2FF2061F06627772786
:10136000CB01621B730B840B950B06C060E070E031
:10137000CB0102C0CA01B9010F900F900F900F90DE
:10138000DF91CF911F910F91FF90DF90CF90089543
:101390000895E2DBFDDF28DBCBE3D6E089DA209796
:1013A000E9F369DCFBCF08955058BB27AA270ED07C
:1013B0004DC13ED130F043D120F031F49F3F11F4C4
:1013C0001EF433C10EF4E095E7FB29C1E92F4FD19C
:1013D00080F3BA17620773078407950718F071F452
:1013E0009EF567C10EF4E0950B2EBA2FA02D0B01D0
:1013F000B90190010C01CA01A0011124FF27591B5A
:1014000099F0593F50F4503E68F11A16F040A22F5F
:10141000232F342F4427585FF3CF469537952795D0
:10142000A795F0405395C9F77EF41F16BA0B620BCF
:10143000730B840BBAF09150A1F0FF0FBB1F661F16
:10144000771F881FC2F70EC0BA0F621F731F841F59
:1014500048F4879577956795B795F7959E3F08F07F
:10146000B3CF9395880F08F09927EE0F979587953E
:1014700008950CD0EBC0E3D040F0DAD030F021F486
:101480005F3F19F0CCC0511115C1CFC0F0D098F317
:101490009923C9F35523B1F3951B550BBB27AA27F5
:1014A00062177307840738F09F5F5F4F220F331F67
:1014B000441FAA1FA9F333D00E2E3AF0E0E830D033
:1014C00091505040E695001CCAF729D0FE2F27D036
:1014D000660F771F881FBB1F261737074807AB0704
:1014E000B0E809F0BB0B802DBF01FF2793585F4F79
:1014F0002AF09E3F510568F092C0DCC05F3FECF3DC
:10150000983EDCF3869577956795B795F7959F5F3D
:10151000C9F7880F911D9695879597F90895E1E091
:10152000660F771F881FBB1F621773078407BA07F0
:1015300020F0621B730B840BBA0BEE1F88F7E0954B
:10154000089504D06894B111B5C0089598D088F07A
:101550009F5790F0B92F9927B751A0F0D1F0660F9F
:10156000771F881F991F1AF0BA95C9F712C0B130BA
:1015700081F09FD0B1E008959CC0672F782F882715
:10158000B85F39F0B93FCCF3869577956795B395F9
:10159000D9F73EF490958095709561957F4F8F4F68
:1015A0009F4F0895E89409C097FB3EF4909580956D
:1015B000709561957F4F8F4F9F4F9923A9F0F92F19
:1015C00096E9BB279395F695879577956795B79597
:1015D000F111F8CFFAF4BB0F11F460FF1BC06F5F7D
:1015E0007F4F8F4F9F4F16C0882311F096E911C08F
:1015F000772321F09EE8872F762F05C0662371F0B0
:1016000096E8862F70E060E02AF09A95660F771FC3
:10161000881FDAF7880F9695879597F9089597F9B7
:101620009F6780E870E060E008959FEF80EC089588
:1016300000240A94161617061806090608950024B1
:101640000A9412161306140605060895092E03942B
:10165000000C11F4882352F0BB0F40F4BF2B11F49F
:1016600060FF04C06F5F7F4F8F4F9F4F089557FDFE
:101670009058440F551F59F05F3F71F04795880F00
:1016800097FB991F61F09F3F79F087950895121697
:1016900013061406551FF2CF4695F1DF08C0161643
:1016A00017061806991FF1CF8695710561050894F4
:1016B0000895E894BB2766277727CB0197F908950B
:1016C0000BD0C4CFB5DF28F0BADF18F0952309F0AE
:1016D000A6CFABCF1124EECFCADFA0F3959FD1F3F5
:1016E000950F50E0551F629FF001729FBB27F00DD0
:1016F000B11D639FAA27F00DB11DAA1F649F662725
:10170000B00DA11D661F829F2227B00DA11D621F73
:10171000739FB00DA11D621F839FA00D611D221F2D
:10172000749F3327A00D611D231F849F600D211D11
:10173000822F762F6A2F11249F5750408AF0E1F0B4
:1017400088234AF0EE0FFF1FBB1F661F771F881FFD
:1017500091505040A9F79E3F510570F060CFAACF3D
:101760005F3FECF3983EDCF3869577956795B795E8
:10177000F795E7959F5FC1F7FE2B880F911D969512
:10178000879597F90895A1E21A2EAA1BBB1BFD01AC
:101790000DC0AA1FBB1FEE1FFF1FA217B307E40750
:1017A000F50720F0A21BB30BE40BF50B661F771FA8
:1017B000881F991F1A9469F7609570958095909588
:1017C0009B01AC01BD01CF0108950DD0A59F900DE7
:1017D000B49F900DA49F800D911D11240895079032
:1017E000F691E02D1994A29FB001B39FC001A39F71
:1017F000700D811D1124911DB29F700D811D11244A
:08180000911D0895F894FFCF3B
:101808000000970380001400B4001400666F72771C
:10181800617264203100635F7469636B733A2000FE
:101828002073745F7469636B733A2000726F74205D
:10183800007363743A20006769766520636F6D6D85
:10184800616E64733A20666F72776172645C6E6170
:101858006E676C655C6E666F72776172645C6E0051
:10186800696E6974206F6B0000000000B9062808D3
:101878000E062706190698060D0A006E616E0069A5
:0A1888006E66006F7666002E000009
:00000001FF
