:10000000FCC000002BC1000029C1000027C1000076
:1000100025C1000023C1000021C100001FC1000054
:100020001DC100001BC1000019C1000017C1000064
:1000300015C1000013C1000011C100000FC1000074
:100040000DC100000BC1000009C1000007C1000084
:1000500005C1000003C1000001C100000C94860D21
:10006000FDC000000C94E70A0C941D0BF7C00000C3
:10007000F5C0000042C30000F1C00000EFC0000066
:100080002DC30000EBC00000E9C00000E7C0000085
:10009000E5C00000E3C00000E1C0000073C700003D
:1000A000DDC00000DBC00000D9C00000D7C00000E8
:1000B000D5C00000D3C00000D1C00000CFC00000F8
:1000C000CDC00000CBC00000C9C00000C7C0000008
:1000D000C5C00000C3C00000C1C00000BFC0000018
:1000E000BDC0000008090B09FA08FE08040942090E
:1000F0000F09130919091D09210927092B092F09BE
:100100004209350939093D0900000A0B02090C0DA5
:100110000E080703040100000000000000000000BA
:1001200000000000000000000000000000000000CF
:10013000000000001211100000000000000000008C
:1001400000000000000000000000000000000102AC
:1001500010202008081020401020408002010201D9
:100160000804020101020408102040808040201091
:1001700008040201800402018040201008040201EA
:100180000804020101020408102040800102040852
:10019000102040800505050507050808080802022B
:1001A00002020A0A08080404040401010101010111
:1001B00001010303030303030303040707070C0CF4
:1001C0000C0C0C0C0C0C02020202060606060606BB
:1001D00006060B0B0B0B0B0B0B0B00002200250074
:1001E00028002B002E003100340002010000050120
:1001F00008010B01D503E3064F0B11241FBECFEFFF
:10020000D1E2DEBFCDBF00E00CBF12E0A0E0B2E063
:10021000E0E9FDE100E00BBF02C007900D92AA3AB1
:10022000B107D9F724E0AAEAB2E001C01D92AB35CC
:10023000B207E1F711E0CAEFD1E000E006C0229773
:100240000109FE010BBF0E949F0EC43FD10780E051
:100250000807A9F70E94930B0C94C60ED1CE84B167
:10026000806684B9E1E0F1E0808188618083E1E823
:10027000F0E080818A608083E1EAF0E080818A603A
:100280008083E0E8F0E0808183608083E0EAF0E052
:100290008081836080830895613031F040F0623066
:1002A00071F0643049F0089591958195910990938A
:1002B000F4028093F30208959195819591099093AA
:1002C000F2028093F10208951F93CF93DF93EC0124
:1002D000162FE2DFCE01809590959370113019F1C1
:1002E00098F0123079F11430D9F52091A0002063F4
:1002F0002093A0002091A0002F772093A00090933E
:10030000AB008093AA002CC0209180002F7C20930A
:10031000800020918000206C2093800090938900C1
:10032000809388001DC0209180002063209380006E
:10033000209180002F772093800090938B008093F2
:100340008A000EC02091A0002F7C2093A000209155
:10035000A000206C2093A0009093A9008093A80097
:10036000DF91CF911F91089597FF05C064E09195AB
:100370008195910901C062E0A7CF97FF05C061E0B8
:1003800091958195910901C060E09ECFCF93DF9355
:10039000EC01F3DFCE01DF91CF91E6CFCF92DF9278
:1003A000EF92FF920F931F93CF93DF938C01C62E92
:1003B000D42E82E0681305C0C091F302D091F402FC
:1003C00014C0C091F102D091F20291E0691769F076
:1003D0002091F3023091F4022C0F3D1F37FF02C031
:1003E0002F5F3F4FE901D595C795C017D1070CF096
:1003F000D194ED2CFF24E7FCF094C017D10709F14C
:10040000D7FE04C00C171D0734F01BC0DD2019F007
:10041000C017D107B4F4C11003C0CE01B7DF08C0C4
:1004200082E0C81203C0CE01A8DF02C0CE019CDF6B
:100430008FE99FE00197F1F700C00000CE0DDF1DAE
:10044000DCCFDF91CF911F910F91FF90EF90DF9064
:10045000CF900895462F60E0A1CF65E080E090E066
:10046000F9CFFC01208181E090E0062E01C0880FC9
:100470000A94EAF7442319F0282B208308958095E5
:10048000822380830895DC01ED91FC910190F0813D
:10049000E02D19940F931F93CF93DF938C01EB0101
:1004A00069E670E085EF92E07BD4B80185EF92E0D9
:1004B000EADFBE0185EF92E0E6DF61E085EF92E0E2
:1004C00070D481E090E0DF91CF911F910F9108955A
:1004D000789410927A0090917A00976090937A00C5
:1004E00090917A00906890937A0010927C0090919D
:1004F0007C00906490937C00882379F080917A004E
:10050000806280937A0080917A00886080937A007C
:1005100080917B00887F80937B0080917A0080644B
:1005200080937A0078940895ECE7F0E09081907FD2
:1005300090839081982B90830895482F63E070E01A
:1005400088E290E08EDF8FE193E00197F1F700C041
:100550000000429A8FE193E00197F1F700C000009C
:1005600042980895CF92DF92FF920F931F93CF93FB
:10057000DF931F92CDB7DEB7182F449885E08A9598
:10058000F1F7000081E09983D8DFC12E9981D92E3F
:1005900033E0F32E07E010E0F601808190E0002EBA
:1005A00002C0959587950A94E2F78170C6DF0150E5
:1005B000110990F7FA948FEFC81AD80AF110EACF10
:1005C0000CE010E080E0B9DF01501109D9F7449A3E
:1005D0000F90DF91CF911F910F91FF90DF90CF90FF
:1005E00008950F931F93CF93DF9300D0CDB7DEB75D
:1005F0009C01181619060CF564E670E00E943E0E88
:10060000CB01EAE0F0E0BF010E943E0E82599D4F0F
:10061000DC018C918983C901BF010E943E0E9C01BF
:10062000CB01BF010E943E0E82599D4FFC0180818B
:100630008A83F901E259FD4F23C000271127081BC7
:10064000190B8D39FFEF9F0714F082E001C082E69D
:100650008983C90166EF7FEF0E943E0ECB012AE03D
:1006600030E0B9010E943E0E82599D4FDC018C9111
:100670008A83C801B9010E943E0E82599D4FFC0138
:1006800080818B83CE0101966DDF0F900F900F90CC
:10069000DF91CF911F910F9108958CE187B918B820
:1006A0000895F89410929000E1E9F0E010828081C2
:1006B0008360808380818860808384EF91E0909361
:1006C0009900809398001092950010929400E1E7B1
:1006D000F0E0808182608083789408951F920F9269
:1006E0000FB60F9211248F9381E08093AC028F910B
:1006F0000F900FBE0F901F9018951F920F920FB67C
:100700000F9211240BB60F922F933F934F935F9349
:100710006F937F938F939F93AF93BF93EF93FF93C9
:100720008091AD022091780030917900811115C03F
:100730008091D30290E0FC01EE0FFF1FEF53FD4FBD
:1007400031832083019669E070E00E943E0E809321
:10075000D30281E08093AD0214C08091C00290E08A
:10076000FC01EE0FFF1FE255FD4F31832083019600
:1007700069E070E00E943E0E8093C0021092AD02CC
:1007800080E0D2DEFF91EF91BF91AF919F918F9169
:100790007F916F915F914F913F912F910F900BBE81
:1007A0000F900FBE0F901F9018951092E6021092B6
:1007B000E9021092EA021092EB021092ED021092FE
:1007C000EC021092EE0283E88093EF0282E08093C5
:1007D000F0021092D3021092C00208950F931F935B
:1007E000CF93DF938C01EB0169E670E085EF92E037
:1007F000D7D2B80185EF92E046DE60E085EF92E067
:10080000D0D221E030E041E050E069E670E085EFD1
:1008100092E0BBD285EF92E016D2182F69E670E025
:1008200085EF92E0BDD2BE0185EF92E02CDE60E064
:1008300085EF92E0B6D221E030E041E050E069E699
:1008400070E085EF92E0A1D285EF92E0FCD1982F85
:100850008827810F911DDF91CF911F910F910895EE
:10086000882339F0813051F465E470E086E490E04B
:1008700009C063E470E084E490E004C067E470E0E1
:1008800088E490E0ABCFCF92DF92EF92FF921F937C
:10089000CF93DF93182FD62F8091AC02882309F4D1
:1008A0009DC08091F002DCDF2091EC023091ED02DE
:1008B000821B930BC091EB02CC2341F09C01225F81
:1008C0003F4F2D31310510F480E090E02091E60299
:1008D00030E0F901EE0FFF1FEC52FD4F9183808352
:1008E000C901019669E070E00E943E0E8093E60225
:1008F0008091E9028F5F893019F08093E90247C047
:100900001092E90281E08093EE02E4EDF2E060E013
:1009100070E0CB01C190D190EE24D7FCE094FE2C86
:100920006C0D7D1D8E1D9F1D22E0E63EF20791F7A6
:1009300029E030E040E050E00E94730EDA01C90186
:100940000496A11DB11D0997A105B10518F420E079
:1009500030E0A901A9E0B0E00E94950E2091EF02DD
:1009600045E2249F90011124442737FD4095542FE0
:100970000E94730E8091E7029091E802820F931F0C
:100980009093E8028093E70281E08093EA0210925C
:10099000AC02112351F0CC2329F08091E702909111
:1009A000E80202C08FEF9FEF1CDEDD23B9F08091DB
:1009B000EB02882329F06091E7027091E80202C0FF
:1009C0006FEF7FEF4AE050E085EB93E0DF91CF914E
:1009D0001F91FF90EF90DF90CF90ADC7DF91CF9147
:1009E0001F91FF90EF90DF90CF90089560E080E03E
:1009F0004ACF0F931F938091EE02882389F11092C2
:100A0000E8021092E702E4EDF2E060E070E0CB0172
:100A100001911191222717FD2095322F600F711F30
:100A2000821F931F22E0E63EF20791F729E030E0B3
:100A300040E050E00E94730E3093ED022093EC02F0
:100A4000E4EDF2E01192119282E0E63EF807D1F770
:100A50001092E60281E08093EB021F910F910895BE
:100A6000C5DFC9CFCF93DF93EC0169E670E085EF76
:100A700092E096D1BE0185EF92E005DD60E085EF62
:100A800092E08FD121E030E041E050E069E670E093
:100A900085EF92E07AD185EF92E0DF91CF91D3C0DC
:100AA000CF93C82F85EF92E05BD160E070E08BE6DA
:100AB00090E0F0DCCC2351F08AE190E0D3DFBC0180
:100AC000607962608AE190E0CF91E4CCCF910895A3
:100AD00066E072E085EB93E079D685EB93E008D48D
:100AE000892BD9F385EB93E00E94840D7093AB02C0
:100AF0006093AA024AE050E085EB93E03ED742E0E3
:100B000061E08CE291E04ACC26E040E051EE60E00A
:100B100070E085EB93E0FBD42FEF89EF90E021505C
:100B200080409040E1F700C000006DE072E085EB8E
:100B300093E04CD681E0CCDC63E172E085EB93E09E
:100B400045D68DDB6FE172E085EB93E03FD681E027
:100B5000A7DF6DE272E085EB93E038D6A2DD69E3B2
:100B600072E085EB93E032D698DD6BE472E085EBC2
:100B700093E02CD63EDF67E572E085EB93E026D666
:100B8000A7CF61E081E07FDE4091EB02442341F09A
:100B90008091E7029091E8021816190634F002C01D
:100BA0008FEF9FEF9195819591092091AA02309145
:100BB000AB022817390708F03DC0442341F060918B
:100BC000E7027091E8021616170634F002C06FEFC4
:100BD0007FEF7195619571094AE050E085EB93E0F4
:100BE000A3D66CE672E085EB93E0E5D56091AA02AE
:100BF0007091AB024AE050E085EB93E0BED62DDC6D
:100C00001092E8021092E702E4EDF2E011921192E4
:100C100082E0E63EF807D1F71092E6021092EB026E
:100C20001092EE021092ED021092EC021092E90284
:100C3000E0DE4ECF08958091250390E020912603B9
:100C4000821B91090895209126038091250328177E
:100C500050F4E22FF0E0E95DFC4F808190E02F5FDF
:100C60002093260308958FEF9FEF0895E0912603C8
:100C700080912503E81730F4F0E0E95DFC4F8081B6
:100C800090E008958FEF9FEF08950895CF92DF923F
:100C9000EF92FF920F931F93CF93DF937C01CB01D1
:100CA0008A0120910103222389F0EB016B01C40E1C
:100CB000D51ECC15DD0561F06991D701ED91FC9150
:100CC0000190F081E02DC7011995F3CF642F31D148
:100CD000C801DF91CF911F910F91FF90EF90DF90AE
:100CE000CF900895CF93DF931F92CDB7DEB769837E
:100CF000209101032223D1F020910203203240F001
:100D000021E030E0FC013383228380E090E014C0D6
:100D100080910303E82FF0E0EC5FFC4F9981908312
:100D20008F5F809303038093020304C061E0CE01D0
:100D30000196FFD081E090E00F90DF91CF91089570
:100D4000FC011382128248EE53E060E070E04483BD
:100D50005583668377838DE792E09183808308953E
:100D6000109226031092250310920303109202039F
:100D70002DC0862F413208F040E267E273E042D096
:100D800010922603809325030895F3CF81E080938A
:100D90000103609324031092030310920203089549
:100DA000F5CF0F93062F21E04091020364E073E03A
:100DB000809124036BD010920303109202031092CF
:100DC00001030F91089585EF92E0BACF1092B4031A
:100DD00081E08093B2031092B10361E084E153D2C9
:100DE00061E085E150D2E9EBF0E080818E7F808385
:100DF00080818D7F808388E48093B80085E4809330
:100E0000BC000895413208F03FC09091B4039111A5
:100E1000FCCF91E09093B4032093B2032FEF209383
:100E2000470310928C03240F20938B039093B303FA
:100E30009091B303880F892B8093B3038091B10302
:100E4000813041F41092B1038091B3038093BB00D1
:100E500085EC01C085EE8093BC008091B4038130A5
:100E6000E1F380918C03841710F440918C032DE8FA
:100E700033E0FB01D9018A2F821B841718F48D916E
:100E80008193F9CF842F089580E008950F93413224
:100E900008F046C09091B4039111FCCF92E090937A
:100EA000B4030093B2039FEF9093470310928C0317
:100EB00040938B03FB016DE873E0DB019A2F961BD7
:100EC000941718F491919D93F9CF1092B3039091D8
:100ED000B303880F892B8093B3038091B1038130D2
:100EE00041F41092B1038091B3038093BB0085EC71
:100EF00001C085EE8093BC00222321F08091B403D1
:100F00008230E1F3809147038F3F61F08091470386
:100F1000803251F080914703803341F483E007C071
:100F200081E005C080E003C082E001C084E00F9151
:100F30000895613298F42091B403243089F46093C9
:100F40006903FC018BE693E0DC012A2F281B26179E
:100F500018F421912D93F9CF80E0089581E0089550
:100F600082E0089585ED8093BC008091BC0084FDF3
:100F7000FCCF1092B403089585EC8093BC001092CE
:100F8000B40308951F920F920FB60F9211240BB65F
:100F90000F922F933F934F935F936F937F938F9312
:100FA0009F93AF93BF93EF93FF938091B900887F96
:100FB000803609F49CC068F5883209F45BC090F46F
:100FC000803109F454C038F4882309F4F3C0883020
:100FD00009F44DC0F2C0883109F44CC0803209F4E4
:100FE0005DC0EBC0803409F468C048F4803309F474
:100FF00055C0883309F0E1C080934703A7C080350E
:1010000009F44FC0883509F45DC0883409F0D5C0B3
:10101000D3C0883909F4C4C0A8F4883709F467C07C
:1010200038F4883609F463C0803709F460C0C5C05D
:10103000883809F4B5C0803909F45FC0803809F0F8
:10104000BCC05BC0803B09F483C038F4803A09F42B
:1010500066C0883A09F47CC0B0C0803C09F4A4C0E2
:10106000883C09F4A1C0883B09F487C0A6C08091E0
:10107000B30310C090918C0380918B03981770F587
:10108000E0918C0381E08E0F80938C03F0E0E357B6
:10109000FC4F80818093BB0085EC83C08093470325
:1010A0008BC0E0918C0381E08E0F80938C03809144
:1010B000BB00F0E0E357FC4F808390918C0380915C
:1010C0008B036BC0E0918C0381E08E0F80938C03C7
:1010D0008091BB00F0E0E357FC4F80838091B20326
:1010E00081116AC081E08093B10384EA5EC083E02D
:1010F0008093B40310924803CFCF8091480380328D
:1011000008F04EC0E091480381E08E0F80934803C1
:101110008091BB00F0E0E75BFC4F8083BDCF809106
:101120004803803230F4E0914803F0E0E75BFC4F85
:10113000108218DF6091480370E0E091AD03F091F8
:10114000AE0389E493E019951092480315DF35C08A
:1011500084E08093B40310926A0310926903E091D3
:10116000AF03F091B003199580916903811105C017
:1011700081E08093690310926B03E0916A0381E040
:101180008E0F80936A03F0E0E559FC4F80818093D5
:10119000BB0090916A0380916903981708F47CCF93
:1011A00085E88093BC0009C085EC8093BC00109258
:1011B000B40303C010924703D5DEFF91EF91BF91B6
:1011C000AF919F918F917F916F915F914F913F91DF
:1011D0002F910F900BBE0F900FBE0F901F90189580
:1011E00090E0FC013197E231F10508F04BC0EE5878
:1011F000FF4F95C5809180008F7703C0809180005C
:101200008F7D80938000089580918000877FF9CF43
:1012100084B58F7702C084B58F7D84BD0895809199
:10122000B0008F7703C08091B0008F7D8093B000B5
:101230000895809190008F7707C0809190008F7DF6
:1012400003C080919000877F8093900008958091E3
:10125000A0008F7707C08091A0008F7D03C0809190
:10126000A000877F8093A0000895809120018F7750
:1012700007C0809120018F7D03C080912001877F6E
:101280008093200108950F931F93CF93DF931F92B4
:10129000CDB7DEB7282F30E0F901E85FFE4F84912B
:1012A000F901E25BFE4F1491F901EC56FE4F0491F7
:1012B0000023C1F0882319F0698392DF6981E02F50
:1012C000F0E0EE0FFF1FE652FE4FA591B4919FB7DD
:1012D000F8948C91611103C01095812301C0812B7A
:1012E0008C939FBF0F90DF91CF911F910F91089525
:1012F000FC01818D228D90E0805C9F4F821B9109C3
:101300008F7399270895FC01918D828D981731F084
:10131000828DE80FF11D858D90E008958FEF9FEF8E
:101320000895FC01918D828D981761F0828DDF0107
:10133000A80FB11D5D968C91928D9F5F9F73928FC8
:1013400090E008958FEF9FEF089586E49BE0892B4E
:1013500039F080E090E0892B19F098D1811125C0F7
:1013600080E090E0892B41F080E090E0892B21F033
:101370000E94000081111CC080E090E0892B41F0A8
:1013800080E090E0892B21F00E940000811113C0C1
:1013900080E090E0892BA1F080E090E0892B81F043
:1013A0000E94000081110AC008950E940000D8CF59
:1013B0000E940000E1CF0E940000EACF0C940000E0
:1013C0000895FC01848DDF01A80FB11DA35ABF4F02
:1013D0002C91848D90E001968F739927848FA68934
:1013E000B7892C93A089B1898C9180648C93938D5B
:1013F000848D981306C00288F389E02D80818F7D4B
:1014000080830895CF93DF93EC01888D8823C1F00A
:10141000EA89FB89808185FD05C0A889B9898C91FD
:1014200086FD0EC00FB607FCF5CF808185FFF2CF99
:10143000A889B9898C9185FFEDCFCE01C2DFE8CFB5
:10144000DF91CF910895CF92DF92FF920F931F9378
:10145000CF93DF931F92CDB7DEB76C0181E0D60149
:1014600058968C9358975B969C915B975C968C9161
:101470005C97981307C05096ED91FC91519780812D
:1014800085FD2DC0F601038D10E00F5F1F4F0F7318
:101490001127F02EF601848DF81210C00FB607FC4C
:1014A000F9CFD6015096ED91FC915197808185FF3F
:1014B000F1CFC601698385DF6981ECCF838DE80FA9
:1014C000F11DE35AFF4F6083D6015B960C935B9747
:1014D0005296ED91FC915397808180620CC0D601A9
:1014E0005696ED91FC91579760835096ED91FC9143
:1014F000519780818064808381E090E00F90DF913C
:10150000CF911F910F91FF90DF90CF900895BF92E0
:10151000CF92DF92EF92FF92CF93DF93EC016A01BB
:101520007B01B22EE889F98982E08083411581EE42
:1015300058076105710599F060E079E08DE390E06E
:10154000A7019601AED321503109410951095695A1
:10155000479537952795211580E1380790F0E88960
:10156000F989108260E874E88EE190E0A7019601A5
:1015700098D321503109410951095695479537951E
:101580002795EC85FD853083EE85FF852083188EB9
:10159000EC89FD89B082EA89FB8980818061808342
:1015A000EA89FB89808188608083EA89FB89808160
:1015B00080688083EA89FB8980818F7D8083DF91C9
:1015C000CF91FF90EF90DF90CF90BF9008951F9242
:1015D0000F920FB60F9211240BB60F922F938F9389
:1015E0009F93EF93FF93E091C503F091C603808131
:1015F000E091CB03F091CC0382FD12C090818091E9
:10160000CE038F5F8F732091CF03821751F0E0914B
:10161000CE03F0E0EB54FC4F958F8093CE0301C0D6
:101620008081FF91EF919F918F912F910F900BBE31
:101630000F900FBE0F901F9018951F920F920FB62C
:101640000F9211240BB60F922F933F934F935F93FA
:101650006F937F938F939F93AF93BF93EF93FF937A
:1016600085EB93E0AEDEFF91EF91BF91AF919F913B
:101670008F917F916F915F914F913F912F910F903B
:101680000BBE0F900FBE0F901F90189585EB93E047
:101690002FDE21E0892B09F420E0822F089510929B
:1016A000B8031092B70388EE93E0A0E0B0E0809317
:1016B000B9039093BA03A093BB03B093BC038DE826
:1016C00092E09093B6038093B50385EC90E09093FD
:1016D000C2038093C10384EC90E09093C403809391
:1016E000C30380EC90E09093C6038093C50381EC24
:1016F00090E09093C8038093C70382EC90E09093AE
:10170000CA038093C90386EC90E09093CC03809346
:10171000CB031092CE031092CF031092D0031092FD
:10172000D1030895089548D2FDDFEED9C5EAD9E086
:1017300028DA2097E9F309DEFBCFCF92DF92EF9210
:10174000FF920F931F93CF93DF936C017A01EB010C
:10175000E60EF71E00E010E0CE15DF0561F069919E
:10176000D601ED91FC910190F081E02DC601199513
:10177000080F191FF1CFC801DF91CF911F910F9171
:10178000FF90EF90DF90CF9008956115710581F083
:10179000DB010D900020E9F7AD0141505109461BD6
:1017A000570BDC01ED91FC910280F381E02D19943F
:1017B00080E090E00895E9CFDC01ED91FC9101908B
:1017C000F081E02D199469E972E0DFCF0F931F9348
:1017D000CF93DF93EC01D9DF8C01CE01F4DF800FD2
:1017E000911FDF91CF911F910F9108958F929F923A
:1017F000AF92BF92CF92DF92EF92FF920F931F931F
:10180000CF93DF93CDB7DEB7A1970FB6F894DEBFC5
:101810000FBECDBF7C01C42EE52FCB01D22E19A265
:1018200021E02D1510F02AE0D22E8E010F5D1F4F02
:101830008D2C912CA12CB12C6C2D7E2FA501940107
:1018400030D28C2DD29E80191124015011098A307A
:1018500014F4805D01C0895CF80180832115310595
:101860004105510521F0C22EE32FCA01E5CFB80191
:10187000C7018BDFA1960FB6F894DEBF0FBECDBFB8
:10188000DF91CF911F910F91FF90EF90DF90CF905C
:10189000BF90AF909F908F900895CF92DF92EF927C
:1018A000FF920F931F93CF93DF93EC016A017B01AB
:1018B0002115310579F4E881F9810190F081E02D5D
:1018C000642FDF91CF911F910F91FF90EF90DF90E8
:1018D000CF9019942A303105D9F477FF18C06DE202
:1018E0006BDF8C0144275527BA014C195D096E093D
:1018F0007F092AE0CE017ADF800F911FDF91CF911F
:101900001F910F91FF90EF90DF90CF9008952AE004
:10191000B701A601CE01DF91CF911F910F91FF90EA
:10192000EF90DF90CF9062CF9A01AB01662757FD11
:101930006095762FB2CF0F931F93CF93DF93EC0177
:101940009A01AB01662757FD6095762FA6DF8C01C3
:10195000CE0139DF800F911FDF91CF911F910F9141
:1019600008952115310541F4DC01ED91FC910190C0
:10197000F081E02D642F199439CF0F931F93CF93EB
:10198000DF93EC019A01AB0160E070E0EADF8C01CB
:10199000CE0119DF800F911FDF91CF911F910F9121
:1019A00008950F931F93CF93DF93EC01F9D06887CD
:1019B00079878A879B87E881F9810084F185E02D0A
:1019C000CE01199597FF14C0EBD0088519852A859B
:1019D0003B85601B710B820B930B0C811D812E814B
:1019E0003F81601771078207930728F38FEF9FEFFE
:1019F000DF91CF911F910F910895CF93DF93EC0169
:101A0000CE01CFDF97FD11C08D32910571F09C01A1
:101A1000205331092A30310540F0E881F9810680F0
:101A2000F781E02DCE011995EBCFDF91CF9108958D
:101A3000CF92DF92FF920F931F93CF93DF9300D04B
:101A40001F92CDB7DEB76C01062FD7DFFC0197FDE3
:101A500049C020E030E0A901F12C112707FD1095C5
:101A6000E017F107E1F0ED32F105B9F0CF01C097D1
:101A70000A97A8F4AAE0B0E058D19B01AC01CF01CD
:101A8000AA2797FDA095BA2F280F391F4A1F5B1F61
:101A9000205331094109510902C0FF24F394D601B2
:101AA000ED91FC910680F781E02DC60129833A83F0
:101AB0004B835C831995C60174DFFC01C0972981B3
:101AC0003A814B815C810A9758F2E017F10741F2A5
:101AD000FF2061F066277727CB01621B730B840B15
:101AE000950B06C060E070E0CB0102C0CA01B901ED
:101AF0000F900F900F900F90DF91CF911F910F914A
:101B0000FF90DF90CF90089561E092CF1F920F92E7
:101B10000FB60F9211242F933F938F939F93AF9300
:101B2000BF938091530490915404A0915504B091B7
:101B300056043091520423E0230F2D3720F40196F0
:101B4000A11DB11D05C026E8230F0296A11DB11DE0
:101B5000209352048093530490935404A09355040B
:101B6000B09356048091570490915804A091590461
:101B7000B0915A040196A11DB11D80935704909312
:101B80005804A0935904B0935A04BF91AF919F9108
:101B90008F913F912F910F900FBE0F901F9018952E
:101BA0002FB7F894609153047091540480915504B8
:101BB000909156042FBF0895789484B5826084BDB7
:101BC00084B5816084BD85B5826085BD85B5816041
:101BD00085BDEEE6F0E0808181608083E1E8F0E0A1
:101BE0001082808182608083808181608083E0E8D0
:101BF000F0E0808181608083E1EBF0E080818460AF
:101C00008083E0EBF0E0808181608083E1E9F0E0B7
:101C1000808182608083808181608083E0E9F0E060
:101C2000808181608083E1EAF0E08081826080834E
:101C3000808181608083E0EAF0E080818160808340
:101C4000E1E2F1E080818260808380818160808335
:101C5000E0E2F1E0808181608083EAE7F0E080816A
:101C600084608083808182608083808181608083C2
:101C70008081806880831092C100089597FB072EB1
:101C800016F4009406D077FD08D05DD007FC05D08F
:101C90003EF4909581959F4F0895709561957F4F83
:101CA0000895A1E21A2EAA1BBB1BFD010DC0AA1F9D
:101CB000BB1FEE1FFF1FA217B307E407F50720F0B5
:101CC000A21BB30BE40BF50B661F771F881F991F30
:101CD0001A9469F760957095809590959B01AC0179
:101CE000BD01CF010895052E97FB16F400940FD087
:101CF00057FD05D0D6DF07FC02D046F408C050954A
:101D00004095309521953F4F4F4F5F4F08959095E7
:101D10008095709561957F4F8F4F9F4F0895EE0F7F
:101D2000FF1F0590F491E02D199421D0A59F900DEF
:101D3000B49F900DA49F800D911D112408950790CC
:101D4000F691E02D1994AA1BBB1B51E107C0AA1FF5
:101D5000BB1FA617B70710F0A61BB70B881F991F4C
:101D60005A95A9F780959095BC01CD010895A29F41
:101D7000B001B39FC001A39F700D811D1124911D5F
:101D8000B29F700D811D1124911D0895F894FFCF0D
:101D900000005B048000616E676C653F00616C69E8
:101DA00076650061646320696E6974206F6B006DF5
:101DB0006F746F7220696E6974206F6B00696D7546
:101DC00020696E6974206F6B006374632074696DA1
:101DD000657220696E6974206F6B0073736420698B
:101DE0006E6974206F6B00696E7465677261746FE1
:101DF00072206F6666736574206F6B003A00FC603A
:101E0000DAF266B6BEE0FEF6020000000072064698
:101E1000061B0623063606450600000000230A9D21
:101E20000B780991098309020A0D0A006E616E00A0
:0A1E3000696E66006F7666002E00F2
:00000001FF
