:10000000FCC000002BC1000029C1000027C1000076
:1000100025C1000023C1000021C100001FC1000054
:100020001DC100001BC1000019C1000017C1000064
:1000300015C1000013C1000011C100000FC1000074
:100040000DC100000BC1000009C1000007C1000084
:1000500005C1000003C1000001C100000C94290C7F
:10006000FDC000000C94670A0C949D0AF7C00000C4
:10007000F5C000003BC30000F1C00000EFC000006D
:1000800026C30000EBC00000E9C00000E7C000008C
:10009000E5C00000E3C00000E1C00000F3C60000BE
:1000A000DDC00000DBC00000D9C00000D7C00000E8
:1000B000D5C00000D3C00000D1C00000CFC00000F8
:1000C000CDC00000CBC00000C9C00000C7C0000008
:1000D000C5C00000C3C00000C1C00000BFC0000018
:1000E000BDC0000088088B087A087E088408C20812
:1000F0008F08930899089D08A108A708AB08AF08C6
:10010000C208B508B908BD0800000A0B02090C0DA9
:100110000E080703040100000000000000000000BA
:1001200000000000000000000000000000000000CF
:10013000000000001211100000000000000000008C
:1001400000000000000000000000000000000102AC
:1001500010202008081020401020408002010201D9
:100160000804020101020408102040808040201091
:1001700008040201800402018040201008040201EA
:100180000804020101020408102040800102040852
:10019000102040800505050507050808080802022B
:1001A00002020A0A08080404040401010101010111
:1001B00001010303030303030303040707070C0CF4
:1001C0000C0C0C0C0C0C02020202060606060606BB
:1001D00006060B0B0B0B0B0B0B0B00002200250074
:1001E00028002B002E003100340002010000050120
:1001F00008010B01CA036306CF0A11241FBECFEF0B
:10020000D1E2DEBFCDBF00E00CBF12E0A0E0B2E063
:10021000EEEBFAE100E00BBF02C007900D92AC39A3
:10022000B107D9F724E0ACE9B2E001C01D92A53DC9
:10023000B207E1F711E0CAEFD1E000E006C0229773
:100240000109FE010BBF0E94360DC43FD10780E0BB
:100250000807A9F70E94130B0C945D0DD1CE84B151
:10026000806684B9E1E0F1E0808188618083E1E823
:10027000F0E080818A608083E1EAF0E080818A603A
:100280008083E0E8F0E0808183608083E0EAF0E052
:100290008081836080830895613031F040F0623066
:1002A00071F0643049F0089591958195910990938A
:1002B0006E0380936D0308959195819591099093B4
:1002C0006C0380936B0308951F93CF93DF93EC012E
:1002D000162FE2DFCE01809590959370113019F1C1
:1002E00098F0123079F11430D9F52091A0002063F4
:1002F0002093A0002091A0002F772093A00090933E
:10030000AB008093AA002CC0209180002F7C20930A
:10031000800020918000206C2093800090938900C1
:10032000809388001DC0209180002063209380006E
:10033000209180002F772093800090938B008093F2
:100340008A000EC02091A0002F7C2093A000209155
:10035000A000206C2093A0009093A9008093A80097
:10036000DF91CF911F91089597FF05C064E09195AB
:100370008195910901C062E0A7CF97FF05C061E0B8
:1003800091958195910901C060E09ECFCF93DF9355
:10039000EC01F3DFCE01DF91CF91E6CFCF92DF9278
:1003A000EF92FF920F931F93CF93DF938C01C62E92
:1003B000D42E82E0681305C0C0916D03D0916E0306
:1003C00014C0C0916B03D0916C0391E0691769F080
:1003D00020916D0330916E032C0F3D1F37FF02C03B
:1003E0002F5F3F4FE901D595C795C017D1070CF096
:1003F000D194ED2CFF24E7FCF094C017D10709F14C
:10040000D7FE04C00C171D0734F01BC0DD2019F007
:10041000C017D107B4F4C11003C0CE01B7DF08C0C4
:1004200082E0C81203C0CE01A8DF02C0CE019CDF6B
:100430008FE99FE00197F1F700C00000CE0DDF1DAE
:10044000DCCFDF91CF911F910F91FF90EF90DF9064
:10045000CF900895FC01208181E090E0062E01C03C
:10046000880F0A94EAF7442319F0282B2083089573
:100470008095822380830895DC01ED91FC910190A9
:10048000F081E02D19940F931F93CF93DF938C018C
:10049000EB0169E670E08FE693E002D4B8018FE6E5
:1004A00093E0EADFBE018FE693E0E6DF61E08FE6EE
:1004B00093E0F7D381E090E0DF91CF911F910F910E
:1004C0000895789410927A0090917A0097609093B2
:1004D0007A0090917A00906890937A0010927C0054
:1004E00090917C00906490937C00882379F08091B7
:1004F0007A00806280937A0080917A00886080938D
:100500007A0080917B00887F80937B0080917A00C5
:10051000806480937A0078940895ECE7F0E090810D
:10052000907F90839081982B90830895482F63E06B
:1005300070E088E290E08EDF8FE193E00197F1F7C1
:1005400000C00000429A8FE193E00197F1F700C0EC
:10055000000042980895CF92DF92FF920F931F936D
:10056000CF93DF931F92CDB7DEB7182F449885E065
:100570008A95F1F7000081E09983D8DFC12E998137
:10058000D92E33E0F32E07E010E0F601808190E0F1
:10059000002E02C0959587950A94E2F78170C6DF18
:1005A0000150110990F7FA948FEFC81AD80AF11088
:1005B000EACF0CE010E080E0B9DF01501109D9F773
:1005C000449A0F90DF91CF911F910F91FF90DF9090
:1005D000CF9008950F931F93CF93DF9300D0CDB7A3
:1005E000DEB79C01181619060CF564E670E00E944F
:1005F000D50CCB01EAE0F0E0BF010E94D50C815A96
:100600009D4FDC018C918983C901BF010E94D50CEB
:100610009C01CB01BF010E94D50C815A9D4FFC016A
:1006200080818A83F901E15AFD4F23C000271127F9
:10063000081B190B8D39FFEF9F0714F082E001C0F2
:1006400082E68983C90166EF7FEF0E94D50CCB015A
:100650002AE030E0B9010E94D50C815A9D4FDC019F
:100660008C918A83C801B9010E94D50C815A9D4F93
:10067000FC0180818B83CE0101966DDF0F900F907E
:100680000F90DF91CF911F910F9108958CE187B961
:1006900018B80895F89410929000E1E9F0E0108203
:1006A0008081836080838081886080838EEE92E089
:1006B0009093990080939800109295001092940066
:1006C000E1E7F0E0808182608083789408951F9252
:1006D0000F920FB60F9211248F9381E080939C02AA
:1006E0008F910F900FBE0F901F9018951F920F9231
:1006F0000FB60F9211240BB60F922F933F934F9387
:100700005F936F937F938F939F93AF93BF93EF9379
:10071000FF9380919D0220917800309179008111A2
:1007200013C080911F0390E0FC01EE0FFF1FE15208
:10073000FD4F3183208301968F71992780931F038A
:1007400081E080939D0212C08091DE0290E0FC0166
:10075000EE0FFF1FE256FD4F3183208301968F710C
:1007600099278093DE0210929D0280E0D6DEFF91F1
:10077000EF91BF91AF919F918F917F916F915F9119
:100780004F913F912F910F900BBE0F900FBE0F9086
:100790001F901895109260031092630310926403E7
:1007A000109265031092670310926603109268031B
:1007B00083E88093690382E080936A0310921F03A9
:1007C0001092DE0208950F931F93CF93DF938C0155
:1007D000EB0169E670E08FE693E062D2B8018FE644
:1007E00093E04ADE60E08FE693E05BD221E030E008
:1007F00041E050E069E670E08FE693E046D28FE694
:1008000093E0A1D1182F69E670E08FE693E048D21B
:10081000BE018FE693E030DE60E08FE693E041D2E8
:1008200021E030E041E050E069E670E08FE693E0DF
:100830002CD28FE693E087D1982F8827810F911DC6
:10084000DF91CF911F910F910895882339F0813066
:1008500051F465E470E086E490E009C063E470E080
:1008600084E490E004C067E470E088E490E0ABCFFB
:10087000CF92DF92EF92FF921F93CF93DF93182FC7
:10088000D62F80919C02882309F498C080916A0336
:10089000DCDF2091660330916703821B930B9C0180
:1008A000C0916503CC2329F00E964D9710F420E0FB
:1008B00030E08091600390E0FC01EE0FFF1FE05EEE
:1008C000FC4F3183208301968F71992780936003B9
:1008D000809163038F5F803219F08093630347C078
:1008E0001092630381E080936803E0E2F3E060E04C
:1008F00070E0CB01C190D190EE24D7FCE094FE2CA7
:100900006C0D7D1D8E1D9F1D23E0E036F20791F7D3
:1009100020E230E040E050E00E940A0DDA01C90117
:100920000496A11DB11D0997A105B10518F420E099
:1009300030E0A901A6E0B0E00E942C0D20916903EF
:100940004AE0249F90011124442737FD4095542FFD
:100950000E940A0D8091610390916203820F931FA0
:10096000909362038093610381E08093640310920B
:100970009C02112351F0CC2329F0809161039091C6
:10098000620302C08FEF9FEF25DEDD23B9F0809177
:100990006503882329F0609161037091620302C0AE
:1009A0006FEF7FEF4AE050E08FE294E0DF91CF916C
:1009B0001F91FF90EF90DF90CF9035C7DF91CF91DF
:1009C0001F91FF90EF90DF90CF90089561E081E05C
:1009D0004FCF60E080E04CCF0F931F93809168036E
:1009E000882381F11092620310926103E0E2F3E048
:1009F00060E070E0CB0101911191222717FD209555
:100A0000322F600F711F821F931F23E0E036F20721
:100A100091F720E230E040E050E0FCD730936703EC
:100A200020936603E0E2F3E01192119283E0E03656
:100A3000F807D1F71092600381E0809365031F915E
:100A40000F910895C6DFCACFCF93DF93EC0169E61B
:100A500070E08FE693E024D1BE018FE693E00CDDD9
:100A600060E08FE693E01DD121E030E041E050E00E
:100A700069E670E08FE693E008D18FE693E0DF91BE
:100A8000CF9161C0CF93C82F8FE693E0E9D060E0AB
:100A900070E08BE690E0F7DCCC2351F08AE190E047
:100AA000D3DFBC01607962608AE190E0CF91EBCC4A
:100AB000CF91089526E040E051EE60E070E08FE2D3
:100AC00094E0A5D42FEF89EF90E021508040904032
:100AD000E1F700C0000060E072E08FE294E0F5D53D
:100AE00081E0EFDC66E072E08FE294E0EED5B7DB08
:100AF00062E172E08FE294E0E8D581E0C3DF60E27A
:100B000072E08FE294E0E1D5C5DD6CE272E08FE245
:100B100094E0DBD5BBDD6EE372E08FE294E0D5D5E7
:100B20005BDF6AE472E08FE294E0CFD541E061E000
:100B30008CE291E033CC80919F0390E02091A00360
:100B4000821B910908952091A00380919F0328178B
:100B500050F4E22FF0E0EF55FC4F808190E02F5FE2
:100B60002093A00308958FEF9FEF0895E091A003D5
:100B700080919F03E81730F4F0E0EF55FC4F80813F
:100B800090E008958FEF9FEF08950895CF92DF9240
:100B9000EF92FF920F931F93CF93DF937C01CB01D2
:100BA0008A0120917B03222389F0EB016B01C40EA3
:100BB000D51ECC15DD0561F06991D701ED91FC9151
:100BC0000190F081E02DC7011995F3CF642F31D149
:100BD000C801DF91CF911F910F91FF90EF90DF90AF
:100BE000CF900895CF93DF931F92CDB7DEB769837F
:100BF00020917B032223D1F020917C03203240F00E
:100C000021E030E0FC013383228380E090E014C0D7
:100C100080917D03E82FF0E0E258FC4F99819083AA
:100C20008F5F80937D0380937C0304C061E0CE01DD
:100C30000196FFD081E090E00F90DF91CF91089571
:100C4000FC011382128248EE53E060E070E04483BE
:100C50005583668377838EE692E09183808308953F
:100C60001092A00310929F0310927D0310927C03B8
:100C70002DC0862F413208F040E261EA73E042D095
:100C80001092A00380939F030895F3CF81E0809397
:100C90007B0360939E0310927D0310927C03089562
:100CA000F5CF0F93062F21E040917C036EE773E0B0
:100CB00080919E036BD010927D0310927C03109262
:100CC0007B030F9108958FE693E0BACF10922E0424
:100CD00081E080932C0410922B0461E084E153D2D4
:100CE00061E085E150D2E9EBF0E080818E7F808386
:100CF00080818D7F808388E48093B80085E4809331
:100D0000BC000895413208F03FC090912E0491112B
:100D1000FCCF91E090932E0420932C042FEF20938E
:100D2000C10310920604240F2093050490932D0410
:100D300090912D04880F892B80932D0480912B0492
:100D4000813041F410922B0480912D048093BB00DC
:100D500085EC01C085EE8093BC0080912E0481302B
:100D6000E1F380910604841710F44091060427E013
:100D700034E0FB01D9018A2F821B841718F48D916E
:100D80008193F9CF842F089580E008950F93413225
:100D900008F046C090912E049111FCCF92E0909300
:100DA0002E0400932C049FEF9093C103109206042D
:100DB00040930504FB0167E074E0DB019A2F961B6A
:100DC000941718F491919D93F9CF10922D0490915E
:100DD0002D04880F892B80932D0480912B04813062
:100DE00041F410922B0480912D048093BB0085EC7C
:100DF00001C085EE8093BC00222321F080912E0457
:100E00008230E1F38091C1038F3F61F08091C10393
:100E1000803251F08091C103803341F483E007C0F8
:100E200081E005C080E003C082E001C084E00F9152
:100E30000895613298F420912E04243089F460934F
:100E4000E303FC0185EE93E0DC012A2F281B261723
:100E500018F421912D93F9CF80E0089581E0089551
:100E600082E0089585ED8093BC008091BC0084FDF4
:100E7000FCCF10922E04089585EC8093BC00109254
:100E80002E0408951F920F920FB60F9211240BB6E5
:100E90000F922F933F934F935F936F937F938F9313
:100EA0009F93AF93BF93EF93FF938091B900887F97
:100EB000803609F49CC068F5883209F45BC090F470
:100EC000803109F454C038F4882309F4F3C0883021
:100ED00009F44DC0F2C0883109F44CC0803209F4E5
:100EE0005DC0EBC0803409F468C048F4803309F475
:100EF00055C0883309F0E1C08093C103A7C0803595
:100F000009F44FC0883509F45DC0883409F0D5C0B4
:100F1000D3C0883909F4C4C0A8F4883709F467C07D
:100F200038F4883609F463C0803709F460C0C5C05E
:100F3000883809F4B5C0803909F45FC0803809F0F9
:100F4000BCC05BC0803B09F483C038F4803A09F42C
:100F500066C0883A09F47CC0B0C0803C09F4A4C0E3
:100F6000883C09F4A1C0883B09F487C0A6C08091E1
:100F70002D0410C09091060480910504981770F517
:100F8000E091060481E08E0F80930604F0E0E95FB3
:100F9000FB4F80818093BB0085EC83C08093C103AD
:100FA0008BC0E091060481E08E0F8093060480914F
:100FB000BB00F0E0E95FFB4F8083909106048091D5
:100FC00005046BC0E091060481E08E0F8093060457
:100FD0008091BB00F0E0E95FFB4F808380912C049F
:100FE00081116AC081E080932B0484EA5EC083E0B3
:100FF00080932E041092C203CFCF8091C20380321F
:1010000008F04EC0E091C20381E08E0F8093C203CE
:101010008091BB00F0E0ED53FC4F8083BDCF809109
:10102000C203803230F4E091C203F0E0ED53FC4F94
:10103000108218DF6091C20370E0E0912704F09104
:10104000280483EC93E019951092C20315DF35C094
:1010500084E080932E041092E4031092E303E09165
:101060002904F0912A0419958091E303811105C0A8
:1010700081E08093E3031092E503E091E40381E0D3
:101080008E0F8093E403F0E0EB51FC4F808180935E
:10109000BB009091E4038091E303981708F47CCFA0
:1010A00085E88093BC0009C085EC8093BC00109259
:1010B0002E0403C01092C103D5DEFF91EF91BF91C2
:1010C000AF919F918F917F916F915F914F913F91E0
:1010D0002F910F900BBE0F900FBE0F901F90189581
:1010E00090E0FC013197E231F10508F04BC0EE5879
:1010F000FF4FACC4809180008F7703C08091800047
:101100008F7D80938000089580918000877FF9CF44
:1011100084B58F7702C084B58F7D84BD089580919A
:10112000B0008F7703C08091B0008F7D8093B000B6
:101130000895809190008F7707C0809190008F7DF7
:1011400003C080919000877F8093900008958091E4
:10115000A0008F7707C08091A0008F7D03C0809191
:10116000A000877F8093A0000895809120018F7751
:1011700007C0809120018F7D03C080912001877F6F
:101180008093200108950F931F93CF93DF931F92B5
:10119000CDB7DEB7282F30E0F901E85FFE4F84912C
:1011A000F901E25BFE4F1491F901EC56FE4F0491F8
:1011B0000023C1F0882319F0698392DF6981E02F51
:1011C000F0E0EE0FFF1FE652FE4FA591B4919FB7DE
:1011D000F8948C91611103C01095812301C0812B7B
:1011E0008C939FBF0F90DF91CF911F910F91089526
:1011F000FC01818D228D90E0805C9F4F821B9109C4
:101200008F7399270895FC01918D828D981731F085
:10121000828DE80FF11D858D90E008958FEF9FEF8F
:101220000895FC01918D828D981761F0828DDF0108
:10123000A80FB11D5D968C91928D9F5F9F73928FC9
:1012400090E008958FEF9FEF089586EC9AE0892B48
:1012500039F080E090E0892B19F098D1811125C0F8
:1012600080E090E0892B41F080E090E0892B21F034
:101270000E94000081111CC080E090E0892B41F0A9
:1012800080E090E0892B21F00E940000811113C0C2
:1012900080E090E0892BA1F080E090E0892B81F044
:1012A0000E94000081110AC008950E940000D8CF5A
:1012B0000E940000E1CF0E940000EACF0C940000E1
:1012C0000895FC01848DDF01A80FB11DA35ABF4F03
:1012D0002C91848D90E001968F739927848FA68935
:1012E000B7892C93A089B1898C9180648C93938D5C
:1012F000848D981306C00288F389E02D80818F7D4C
:1013000080830895CF93DF93EC01888D8823C1F00B
:10131000EA89FB89808185FD05C0A889B9898C91FE
:1013200086FD0EC00FB607FCF5CF808185FFF2CF9A
:10133000A889B9898C9185FFEDCFCE01C2DFE8CFB6
:10134000DF91CF910895CF92DF92FF920F931F9379
:10135000CF93DF931F92CDB7DEB76C0181E0D6014A
:1013600058968C9358975B969C915B975C968C9162
:101370005C97981307C05096ED91FC91519780812E
:1013800085FD2DC0F601038D10E00F5F1F4F0F7319
:101390001127F02EF601848DF81210C00FB607FC4D
:1013A000F9CFD6015096ED91FC915197808185FF40
:1013B000F1CFC601698385DF6981ECCF838DE80FAA
:1013C000F11DE35AFF4F6083D6015B960C935B9748
:1013D0005296ED91FC915397808180620CC0D601AA
:1013E0005696ED91FC91579760835096ED91FC9144
:1013F000519780818064808381E090E00F90DF913D
:10140000CF911F910F91FF90DF90CF900895BF92E1
:10141000CF92DF92EF92FF92CF93DF93EC016A01BC
:101420007B01B22EE889F98982E08083411581EE43
:1014300058076105710599F060E079E08DE390E06F
:10144000A7019601C5D2215031094109510956958C
:10145000479537952795211580E1380790F0E88961
:10146000F989108260E874E88EE190E0A7019601A6
:10147000AFD2215031094109510956954795379509
:101480002795EC85FD853083EE85FF852083188EBA
:10149000EC89FD89B082EA89FB8980818061808343
:1014A000EA89FB89808188608083EA89FB89808161
:1014B00080688083EA89FB8980818F7D8083DF91CA
:1014C000CF91FF90EF90DF90CF90BF9008951F9243
:1014D0000F920FB60F9211240BB60F922F938F938A
:1014E0009F93EF93FF93E0913F04F091400480813C
:1014F000E0914504F091460482FD12C090818091F4
:1015000048048F5F8F7320914904821751F0E09156
:101510004804F0E0E15DFB4F958F8093480401C0E3
:101520008081FF91EF919F918F912F910F900BBE32
:101530000F900FBE0F901F9018951F920F920FB62D
:101540000F9211240BB60F922F933F934F935F93FB
:101550006F937F938F939F93AF93BF93EF93FF937B
:101560008FE294E0AEDEFF91EF91BF91AF919F913A
:101570008F917F916F915F914F913F912F910F903C
:101580000BBE0F900FBE0F901F9018958FE294E046
:101590002FDE21E0892B09F420E0822F089510929C
:1015A00032041092310488EE93E0A0E0B0E0809322
:1015B000330490933404A0933504B09336048EE73B
:1015C00092E09093300480932F0485EC90E0909308
:1015D0003C0480933B0484EC90E090933E04809321
:1015E0003D0480EC90E09093400480933F0481ECB4
:1015F00090E0909342048093410482EC90E09093B9
:1016000044048093430486EC90E0909346048093D6
:101610004504109248041092490410924A04109212
:101620004B04089508955FD1FDDF44DAC5E2D9E0A7
:10163000CDD92097E9F309DEFBCFCF92DF92EF926D
:10164000FF920F931F93CF93DF936C017A01EB010D
:10165000E60EF71E00E010E0CE15DF0561F069919F
:10166000D601ED91FC910190F081E02DC601199514
:10167000080F191FF1CFC801DF91CF911F910F9172
:10168000FF90EF90DF90CF9008956115710581F084
:10169000DB010D900020E9F7AD0141505109461BD7
:1016A000570BDC01ED91FC910280F381E02D199440
:1016B00080E090E00895DC01ED91FC910190F081D3
:1016C000E02D19946AE872E0E0CF0F931F93CF9357
:1016D000DF93EC01DADF8C01CE01F4DF800F911F84
:1016E000DF91CF911F910F9108958F929F92AF92AA
:1016F000BF92CF92DF92EF92FF920F931F93CF93FF
:10170000DF93CDB7DEB7A1970FB6F894DEBF0FBE5B
:10171000CDBF7C01C42EE52FCB01D22E19A221E032
:101720002D1510F02AE0D22E8E010F5D1F4F8D2C4B
:10173000912CA12CB12C6C2D7E2FA501940148D1A8
:101740008C2DD29E80191124015011098A3014F475
:10175000805D01C0895CF801808321153105410558
:10176000510521F0C22EE32FCA01E5CFB801C70110
:101770008CDFA1960FB6F894DEBF0FBECDBFDF9110
:10178000CF911F910F91FF90EF90DF90CF90BF907E
:10179000AF909F908F900895CF92DF92EF92FF923B
:1017A0000F931F93CF93DF93EC016A017B01211507
:1017B000310579F4E881F9810190F081E02D642F01
:1017C000DF91CF911F910F91FF90EF90DF90CF901D
:1017D00019942A303105D9F477FF18C06DE26BDF18
:1017E0008C0144275527BA014C195D096E097F0900
:1017F0002AE0CE017ADF800F911FDF91CF911F91F8
:101800000F91FF90EF90DF90CF9008952AE0B701FD
:10181000A601CE01DF91CF911F910F91FF90EF9024
:10182000DF90CF9062CF0F931F93CF93DF93EC01A4
:101830009A01AB01662757FD6095762FADDF8C01CD
:10184000CE0140DF800F911FDF91CF911F910F914B
:1018500008951F920F920FB60F9211242F933F936A
:101860008F939F93AF93BF938091CD049091CE04BB
:10187000A091CF04B091D0043091CC0423E0230F89
:101880002D3720F40196A11DB11D05C026E8230FB8
:101890000296A11DB11D2093CC048093CD0490939A
:1018A000CE04A093CF04B093D0048091D104909142
:1018B000D204A091D304B091D4040196A11DB11D0E
:1018C0008093D1049093D204A093D304B093D40412
:1018D000BF91AF919F918F913F912F910F900FBE2C
:1018E0000F901F901895789484B5826084BD84B55C
:1018F000816084BD85B5826085BD85B5816085BD0B
:10190000EEE6F0E0808181608083E1E8F0E0108223
:10191000808182608083808181608083E0E8F0E064
:10192000808181608083E1EBF0E08081846080834E
:10193000E0EBF0E0808181608083E1E9F0E080818C
:1019400082608083808181608083E0E9F0E0808133
:1019500081608083E1EAF0E0808182608083808121
:1019600081608083E0EAF0E0808181608083E1E251
:10197000F1E0808182608083808181608083E0E209
:10198000F1E0808181608083EAE7F0E0808184601B
:101990008083808182608083808181608083808178
:1019A000806880831092C100089597FB072E16F47B
:1019B000009406D077FD08D05DD007FC05D03EF43A
:1019C000909581959F4F0895709561957F4F0895EB
:1019D000A1E21A2EAA1BBB1BFD010DC0AA1FBB1F33
:1019E000EE1FFF1FA217B307E407F50720F0A21BA5
:1019F000B30BE40BF50B661F771F881F991F1A9412
:101A000069F760957095809590959B01AC01BD013B
:101A1000CF010895052E97FB16F400940FD057FDC3
:101A200005D0D6DF07FC02D046F408C0509540959B
:101A3000309521953F4F4F4F5F4F0895909580957A
:101A4000709561957F4F8F4F9F4F0895EE0FFF1F49
:101A50000590F491E02D199421D0A59F900DB49F8D
:101A6000900DA49F800D911D112408950790F6916B
:101A7000E02D1994AA1BBB1B51E107C0AA1FBB1F75
:101A8000A617B70710F0A61BB70B881F991F5A950A
:101A9000A9F780959095BC01CD010895A29FB00152
:101AA000B39FC001A39F700D811D1124911DB29F92
:0E1AB000700D811D1124911D0895F894FFCF33
:101ABE00616C6976650061646320696E6974206F7C
:101ACE006B006D6F746F7220696E6974206F6B009E
:101ADE00696D7520696E6974206F6B006374632085
:101AEE0074696D657220696E6974206F6B00737313
:101AFE006420696E6974206F6B00696E746567721D
:101B0E0061746F72206F6666736574206F6B00FC74
:101B1E0060DAF266B6BEE0FEF60200000000F205E4
:101B2E00C6059B05A305B605C50500000000A30963
:101B3E001D0BF8081109030982090D0A006E616E6A
:0C1B4E0000696E66006F7666002E0000D5
:00000001FF
