:1000000075C00000A3C00000A1C000009FC0000098
:100010009DC000009BC0000099C0000097C0000078
:1000200095C0000093C0000091C000008FC0000088
:100030008DC000008BC0000089C0000087C0000098
:1000400085C0000083C0000081C000007FC00000A8
:100050007DC000007BC0000079C000000C946409E2
:1000600075C000006DC70000A1C700006FC0000090
:100070006DC00000F0C2000069C0000067C0000051
:1000800065C0000063C0000061C0000081C20000C4
:100090005DC000005BC0000059C00000B4C4000097
:1000A00055C0000053C0000051C000004FC0000008
:1000B0004DC000004BC0000049C0000047C0000018
:1000C00045C0000043C0000041C000003FC0000028
:1000D0003DC000003BC0000039C0000037C0000038
:1000E00035C000006D0340040808800311241FBEC2
:1000F000CFEFD1E2DEBFCDBF00E00CBF12E0A0E049
:10010000B2E0E2E6F7E100E00BBF02C007900D921B
:10011000A634B107D9F723E0A6E4B2E001C01D92EE
:10012000A13DB207E1F710E0CAEED0E000E006C062
:1001300022970109FE010BBF0E94610AC43ED1074C
:1001400080E00807A9F7A8D70C94A00B59CFEAE7DD
:10015000F0E0108280818460808380818068808369
:10016000ACE7B0E01C928C9180648C9380818064B9
:1001700080830895DC01ED91FC910190F081E02DE8
:1001800019940F931F93CF93DF938C01EB0169E6D2
:1001900070E087E692E061D3B80187E692E0EADF9B
:1001A00060E087E692E05AD321E030E041E050E0A1
:1001B00069E670E087E692E045D387E692E0A9D24F
:1001C000182F69E670E087E692E047D3BE0187E624
:1001D00092E0D0DF60E087E692E040D321E030E0BB
:1001E00041E050E069E670E087E692E02BD387E6D5
:1001F00092E08FD2982F8827810F911DDF91CF91A8
:100200001F910F910895CF93DF93EC01662311F0B6
:100210006130A9F46BE370E08CE390E0B2DF998386
:1002200088836DE370E08EE390E0ABDF9B838A838D
:100230006FE370E080E490E0A4DF9D838C83DF9126
:10024000CF91089584B1806684B9E1E0F1E08081C6
:1002500088618083E1E8F0E080818A608083E1EA60
:10026000F0E080818A608083E0E8F0E08081836054
:100270008083E0EAF0E080818360808308956130CC
:10028000A9F028F0623009F1643071F108952091ED
:1002900080002F7C2093800020918000206C209390
:1002A00080009093890080938800089520918000B9
:1002B000206320938000209180002F77209380007E
:1002C00090938B0080938A0008952091A0002F7C4A
:1002D0002093A0002091A000206C2093A000909378
:1002E000A9008093A80008952091A0002063209386
:1002F000A0002091A0002F772093A0009093AB0046
:100300008093AA000895CF93DF93EC011B8280E1D4
:100310008A8380E290E0CAD699838883DF91CF9167
:100320000895CF93DF93EC011B826A83862F90E0C0
:10033000880F991FBBD699838883DF91CF91089549
:10034000FC0180819181009709F0B1C60895CF9397
:10035000DF93EC018B8128819981E22FF92FE80F3F
:10036000F11DE80FF11D718360838B8190E0019690
:100370006A8170E00E94100A8B83DF91CF9108950B
:100380000F931F93CF93DC011296CC91129740E00C
:1003900050E060E070E0CB014C17A8F48A01000F38
:1003A000111FED91FC911197E00FF11F0081118158
:1003B000222717FD2095322F600F711F821F931F78
:1003C0004F5F5F4FE9CF2C2F30E040E050E00E94BC
:1003D000450AC901CF911F910F9108950F931F9363
:1003E000CF93DF9300D01F92CDB7DEB78C018BDFA8
:1003F000C801049688DFC801089685DFF801108ED1
:100400001586148617861686118A108A138A128A10
:10041000158A148A178A168A60E1CE01019681DF57
:1004200089819A81AB81BC81F80180839183A28309
:10043000B383CE01019684DF60E1CE01019671DFC6
:1004400089819A81AB81BC81F80184839583A683DD
:10045000B783CE01019674DF60E1CE01019661DFC2
:1004600049815A816B817C81F8014087518762877D
:100470007387CE01019664DF0F900F900F900F905D
:10048000DF91CF911F910F910895CF93DF93EC01EE
:10049000089656DFCE01049653DFCE01DF91CF914F
:1004A0004FCF86E492E0F1DF8FE592E049DF83E60B
:1004B00092E046CF2FEF89EF90E0215080409040AE
:1004C000E1F700C00000809158029091590263E862
:1004D00070E0A6D74AE050E087E293E0DFC6F894E8
:1004E0001092900084E080939100E1E7F0E0808139
:1004F0008160808378940895CF93DF93CDB7DEB782
:1005000069970FB6F894DEBF0FBECDBF26E040E07E
:1005100051EE60E070E087E293E0B2D467E072E011
:1005200087E293E00DD68CE187B918B8CE01019629
:1005300055DF89E1FE013196A6E4B2E001900D920B
:100540008A95E1F7CE010196A0DFC9DF00DE7ADEF1
:1005500062E080E092E093DEE0E8F0E080818F7C72
:1005600080838081806C808380E092E0909389001A
:10057000809388006CE072E087E293E0E1D56996B1
:100580000FB6F894DEBF0FBECDBFDF91CF910895B7
:100590001F920F920FB60F9211240BB60F922F934A
:1005A0003F934F935F936F937F938F939F93AF93FB
:1005B000BF93EF93FF93CF93DF9300D000D0CDB7DD
:1005C000DEB761E0CE0101961EDE69817A8186E4A4
:1005D00092E0BDDE6B817C818AE492E0B8DE6D81C1
:1005E0007E818EE492E0B3DE80915E028F5F803187
:1005F00019F080935E0214C010925E0286E492E0CD
:10060000BFDE44E0880F991F4A95E1F72091580218
:1006100030915902280F391F309359022093580204
:1006200026960FB6F894DEBF0FBECDBFDF91CF91F7
:10063000FF91EF91BF91AF919F918F917F916F91BA
:100640005F914F913F912F910F900BBE0F900FBE76
:100650000F901F9018951F920F920FB60F921124B2
:100660000BB60F922F933F934F935F936F937F93AC
:100670008F939F93AF93BF93EF93FF938091060265
:100680006091780070917900803F29F483E692E0D0
:100690005EDE81EF04C08FE592E059DE80EF80934B
:1006A00006028091060280937C0080917A0080642B
:1006B00080937A00FF91EF91BF91AF919F918F91BD
:1006C0007F916F915F914F913F912F910F900BBE52
:1006D0000F900FBE0F901F90189565E083E692E093
:1006E00020DE1092620285E0809361028AE090E051
:1006F000DDD49093600280935F0286E492E06ECE38
:10070000D0CE8091970290E020919802821B9109AF
:1007100008952091980280919702281750F4E22FB3
:10072000F0E0E756FD4F808190E02F5F2093980224
:1007300008958FEF9FEF0895E091980280919702BE
:10074000E81730F4F0E0E756FD4F808190E008951F
:100750008FEF9FEF08950895CF92DF92EF92FF926F
:100760000F931F93CF93DF937C01CB018A012091DC
:100770007302222389F0EB016B01C40ED51ECC1548
:10078000DD0561F06991D701ED91FC910190F08157
:10079000E02DC7011995F3CF642F0CD1C801DF916B
:1007A000CF911F910F91FF90EF90DF90CF90089520
:1007B000CF93DF931F92CDB7DEB769832091730289
:1007C0002223D1F020917402203240F021E030E069
:1007D000FC013383228380E090E014C08091750295
:1007E000E82FF0E0EA58FD4F998190838F5F809366
:1007F00075028093740204C061E0CE010196DAD0E4
:1008000081E090E00F90DF91CF910895FC01138279
:10081000128248EE53E060E070E0448355836683C3
:10082000778388E192E0918380830895862F413217
:1008300008F040E269E972E026D0109298028093B5
:1008400097020895F3CF81E080937302609396023C
:1008500010927502109274020895F5CF0F93062F2F
:1008600021E04091740266E772E0809196024FD0D9
:100870001092750210927402109273020F910895F3
:1008800087E692E0C3CF413208F03FC09091260343
:100890009111FCCF91E090932603209324032FEF36
:1008A0002093B9021092FE02240F2093FD02909330
:1008B000250390912503880F892B80932503809130
:1008C0002303813041F41092230380912503809308
:1008D000BB0085EC01C085EE8093BC0080912603AF
:1008E0008130E1F38091FE02841710F44091FE0202
:1008F0002FEF32E0FB01D9018A2F821B841718F4F5
:100900008D918193F9CF842F089580E008950F93FE
:10091000413208F046C0909126039111FCCF92E03D
:1009200090932603009324039FEF9093B9021092B3
:10093000FE024093FD02FB016FEF72E0DB019A2F94
:10094000961B941718F491919D93F9CF109225035B
:1009500090912503880F892B809325038091230391
:10096000813041F410922303809125038093BB00D2
:1009700085EC01C085EE8093BC00222321F080919C
:1009800026038230E1F38091B9028F3F61F08091BC
:10099000B902803251F08091B902803341F483E092
:1009A00007C081E005C080E003C082E001C084E0B0
:1009B0000F910895613298F420912603243089F430
:1009C0006093DB02FC018DED92E0DC012A2F281BF5
:1009D000261718F421912D93F9CF80E0089581E036
:1009E000089582E0089585ED8093BC008091BC005D
:1009F00084FDFCCF10922603089585EC8093BC0003
:100A00001092260308951F920F920FB60F92112491
:100A10000BB60F922F933F934F935F936F937F93F8
:100A20008F939F93AF93BF93EF93FF938091B90000
:100A3000887F803609F49CC068F5883209F45BC071
:100A400090F4803109F454C038F4882309F4F3C0D9
:100A5000883009F44DC0F2C0883109F44CC08032AE
:100A600009F45DC0EBC0803409F468C048F48033F9
:100A700009F455C0883309F0E1C08093B902A7C0DA
:100A8000803509F44FC0883509F45DC0883409F019
:100A9000D5C0D3C0883909F4C4C0A8F4883709F494
:100AA00067C038F4883609F463C0803709F460C041
:100AB000C5C0883809F4B5C0803909F45FC08038F2
:100AC00009F0BCC05BC0803B09F483C038F4803AB5
:100AD00009F466C0883A09F47CC0B0C0803C09F4CF
:100AE000A4C0883C09F4A1C0883B09F487C0A6C013
:100AF0008091250310C09091FE028091FD0298170D
:100B000070F5E091FE0281E08E0F8093FE02F0E02E
:100B1000E150FD4F80818093BB0085EC83C08093C2
:100B2000B9028BC0E091FE0281E08E0F8093FE023D
:100B30008091BB00F0E0E150FD4F80839091FE0278
:100B40008091FD026BC0E091FE0281E08E0F8093E8
:100B5000FE028091BB00F0E0E150FD4F8083809168
:100B6000240381116AC081E08093230384EA5EC07C
:100B700083E0809326031092BA02CFCF8091BA020D
:100B8000803208F04EC0E091BA0281E08E0F80936F
:100B9000BA028091BB00F0E0E554FD4F8083BDCFE9
:100BA0008091BA02803230F4E091BA02F0E0E5546C
:100BB000FD4F108218DF6091BA0270E0E0911F03D0
:100BC000F09120038BEB92E019951092BA0215DF99
:100BD00035C084E0809326031092DC021092DB0281
:100BE000E0912103F091220319958091DB0281119C
:100BF00005C081E08093DB021092DD02E091DC020F
:100C000081E08E0F8093DC02F0E0E352FD4F8081A3
:100C10008093BB009091DC028091DB02981708F46E
:100C20007CCF85E88093BC0009C085EC8093BC0034
:100C30001092260303C01092B902D5DEFF91EF9106
:100C4000BF91AF919F918F917F916F915F914F91E4
:100C50003F912F910F900BBE0F900FBE0F901F90E2
:100C60001895FC01818D228D90E0805C9F4F821B46
:100C700091098F7399270895FC01918D828D9817A2
:100C800031F0828DE80FF11D858D90E008958FEF92
:100C90009FEF0895FC01918D828D981761F0828DF0
:100CA000DF01A80FB11D5D968C91928D9F5F9F73A0
:100CB000928F90E008958FEF9FEF08958FEF97E068
:100CC000892B39F080E090E0892B19F098D18111BF
:100CD00025C080E090E0892B41F080E090E0892BF6
:100CE00021F00E94000081111CC080E090E0892B5F
:100CF00041F080E090E0892B21F00E9400008111FA
:100D000013C080E090E0892BA1F080E090E0892B77
:100D100081F00E94000081110AC008950E94000025
:100D2000D8CF0E940000E1CF0E940000EACF0C94CF
:100D300000000895FC01848DDF01A80FB11DA35AA6
:100D4000BF4F2C91848D90E001968F739927848FEB
:100D5000A689B7892C93A089B1898C9180648C93E2
:100D6000938D848D981306C00288F389E02D8081CD
:100D70008F7D80830895CF93DF93EC01888D882346
:100D8000C1F0EA89FB89808185FD05C0A889B98900
:100D90008C9186FD0EC00FB607FCF5CF808185FFD4
:100DA000F2CFA889B9898C9185FFEDCFCE01C2DF42
:100DB000E8CFDF91CF910895CF92DF92FF920F930A
:100DC0001F93CF93DF931F92CDB7DEB76C0181E005
:100DD000D60158968C9358975B969C915B975C963E
:100DE0008C915C97981307C05096ED91FC915197A8
:100DF000808185FD2DC0F601038D10E00F5F1F4F30
:100E00000F731127F02EF601848DF81210C00FB663
:100E100007FCF9CFD6015096ED91FC915197808156
:100E200085FFF1CFC601698385DF6981ECCF838DB2
:100E3000E80FF11DE35AFF4F6083D6015B960C93D8
:100E40005B975296ED91FC915397808180620CC024
:100E5000D6015696ED91FC91579760835096ED918F
:100E6000FC91519780818064808381E090E00F90B5
:100E7000DF91CF911F910F91FF90DF90CF90089558
:100E8000BF92CF92DF92EF92FF92CF93DF93EC016C
:100E90006A017B01B22EE889F98982E080834115DD
:100EA00081EE58076105710599F060E079E08DE306
:100EB00090E0A7019601C7D221503109410951099B
:100EC0005695479537952795211580E1380790F07D
:100ED000E889F989108260E874E88EE190E0A70162
:100EE0009601B1D2215031094109510956954795D2
:100EF00037952795EC85FD853083EE85FF8520832A
:100F0000188EEC89FD89B082EA89FB898081806135
:100F10008083EA89FB89808188608083EA89FB89F4
:100F2000808180688083EA89FB8980818F7D8083CE
:100F3000DF91CF91FF90EF90DF90CF90BF90089519
:100F40001F920F920FB60F9211240BB60F922F9390
:100F50008F939F93EF93FF93E0913703F0913803C2
:100F60008081E0913D03F0913E0382FD12C09081AB
:100F7000809140038F5F8F7320914103821751F05E
:100F8000E0914003F0E0E95DFC4F958F80934003D2
:100F900001C08081FF91EF919F918F912F910F90D0
:100FA0000BBE0F900FBE0F901F9018951F920F92BF
:100FB0000FB60F9211240BB60F922F933F934F93BE
:100FC0005F936F937F938F939F93AF93BF93EF93B1
:100FD000FF9387E293E0AEDEFF91EF91BF91AF9177
:100FE0009F918F917F916F915F914F913F912F9141
:100FF0000F900BBE0F900FBE0F901F90189587E2B9
:1010000093E02FDE21E0892B09F420E0822F089560
:1010100010922A031092290388EE93E0A0E0B0E03A
:1010200080932B0390932C03A0932D03B0932E0356
:1010300088E292E0909328038093270385EC90E068
:10104000909334038093330384EC90E090933603C1
:101050008093350380EC90E09093380380933703BE
:1010600081EC90E090933A038093390382EC90E016
:1010700090933C0380933B0386EC90E090933E0377
:1010800080933D031092400310924103109242035B
:10109000109243030895089561D1FDDF2DDACEE566
:1010A000D6E008DA2097E9F309DEFBCF22C2B9C205
:1010B000CF92DF92EF92FF920F931F93CF93DF9324
:1010C0006C017A01EB01E60EF71E00E010E0CE1590
:1010D000DF0561F06991D601ED91FC910190F081FD
:1010E000E02DC6011995080F191FF1CFC801DF9136
:1010F000CF911F910F91FF90EF90DF90CF900895C7
:101100006115710581F0DB010D900020E9F7AD015B
:1011100041505109461B570BDC01ED91FC910280B7
:10112000F381E02D199480E090E00895DC01ED91C9
:10113000FC910190F081E02D199464E372E0E0CF1E
:101140000F931F93CF93DF93EC01DADF8C01CE0175
:10115000F4DF800F911FDF91CF911F910F910895C0
:101160008F929F92AF92BF92CF92DF92EF92FF92B7
:101170000F931F93CF93DF93CDB7DEB7A1970FB631
:10118000F894DEBF0FBECDBF7C01C42EE52FCB018E
:10119000D22E19A221E02D1510F02AE0D22E8E01B8
:1011A0000F5D1F4F8D2C912CA12CB12C6C2D7E2FFF
:1011B000A501940148D18C2DD29E80191124015093
:1011C00011098A3014F4805D01C0895CF8018083C4
:1011D000211531054105510521F0C22EE32FCA0129
:1011E000E5CFB801C7018CDFA1960FB6F894DEBF3A
:1011F0000FBECDBFDF91CF911F910F91FF90EF9068
:10120000DF90CF90BF90AF909F908F900895CF9236
:10121000DF92EF92FF920F931F93CF93DF93EC0136
:101220006A017B012115310579F4E881F98101908A
:10123000F081E02D642FDF91CF911F910F91FF90EE
:10124000EF90DF90CF9019942A303105D9F477FFD1
:1012500018C06DE26BDF8C0144275527BA014C1989
:101260005D096E097F092AE0CE017ADF800F911FA8
:10127000DF91CF911F910F91FF90EF90DF90CF9072
:1012800008952AE0B701A601CE01DF91CF911F9109
:101290000F91FF90EF90DF90CF9062CF0F931F934D
:1012A000CF93DF93EC019A01AB01662757FD609560
:1012B000762FADDF8C01CE0140DF800F911FDF91D3
:1012C000CF911F910F9108951F920F920FB60F9219
:1012D00011242F933F938F939F93AF93BF9380914C
:1012E000C5039091C603A091C703B091C803309184
:1012F000C40323E0230F2D3720F40196A11DB11D57
:1013000005C026E8230F0296A11DB11D2093C4033A
:101310008093C5039093C603A093C703B093C803FB
:101320008091C9039091CA03A091CB03B091CC03E3
:101330000196A11DB11D8093C9039093CA03A09388
:10134000CB03B093CC03BF91AF919F918F913F910D
:101350002F910F900FBE0F901F901895789484B521
:10136000826084BD84B5816084BD85B5826085BDA1
:1013700085B5816085BDEEE6F0E080818160808387
:10138000E1E8F0E01082808182608083808181606A
:101390008083E0E8F0E0808181608083E1EBF0E031
:1013A000808184608083E0EBF0E0808181608083D5
:1013B000E1E9F0E0808182608083808181608083C8
:1013C000E0E9F0E0808181608083E1EAF0E0808103
:1013D00082608083808181608083E0EAF0E08081A8
:1013E00081608083E1E2F1E080818260808380819E
:1013F00081608083E0E2F1E0808181608083EAE7C0
:10140000F0E080818460808380818260808380813D
:10141000816080838081806880831092C1000895FC
:1014200097FB072E16F4009406D077FD08D04DD018
:1014300007FC05D03EF4909581959F4F08957095D7
:1014400061957F4F0895A1E21A2EAA1BBB1BFD01D7
:101450000DC0AA1FBB1FEE1FFF1FA217B307E40793
:10146000F50720F0A21BB30BE40BF50B661F771FEB
:10147000881F991F1A9469F76095709580959095CB
:101480009B01AC01BD01CF010895052E97FB16F419
:1014900000940FD057FD05D0D6DF07FC02D046F4EC
:1014A00008C050954095309521953F4F4F4F5F4F65
:1014B000089590958095709561957F4F8F4F9F4FC0
:1014C00008950790F691E02D1994AA1BBB1B51E1DA
:1014D00007C0AA1FBB1FA617B70710F0A61BB70BA4
:1014E000881F991F5A95A9F780959095BC01CD0149
:1014F0000895CF93DF938230910510F482E090E05D
:10150000E091CF03F091D00320E030E0A0E0B0E024
:10151000309739F14081518148175907B8F0481781
:10152000590771F482819381109729F013969C9347
:101530008E9312972CC09093D0038093CF0327C033
:101540002115310531F04217530718F0A901DB01CD
:1015500001C0EF019A01BD01DF010280F381E02D9E
:10156000D7CF21153105F9F0281B390B243031056F
:1015700080F48A819B816115710521F0FB019383C1
:10158000828304C09093D0038093CF03FE013296F0
:1015900044C0FE01E20FF31F819391932250310961
:1015A000398328833AC02091CD033091CE03232B79
:1015B00041F420910202309103023093CE03209334
:1015C000CD0320910002309101022115310541F433
:1015D0002DB73EB74091040250910502241B350BF4
:1015E000E091CD03F091CE03E217F307A0F42E1B98
:1015F0003F0B2817390778F0AC014E5F5F4F241777
:10160000350748F04E0F5F1F5093CE034093CD0334
:101610008193919302C0E0E0F0E0CF01DF91CF91A0
:101620000895CF93DF93009709F487C0FC013297A8
:1016300013821282C091CF03D091D003209781F4FE
:1016400020813181280F391F8091CD039091CE03E5
:101650008217930779F5F093CE03E093CD036DC025
:10166000DE0120E030E0AE17BF0750F412964D9136
:101670005C9113979D014115510509F1DA01F3CFF2
:10168000B383A28340815181840F951F8A179B07E2
:1016900071F48D919C911197840F951F02969183FF
:1016A000808312968D919C91139793838283211549
:1016B000310529F4F093D003E093CF033EC0D90164
:1016C0001396FC93EE9312974D915D91A40FB51F65
:1016D000EA17FB0779F480819181840F951F0296A8
:1016E000D90111969C938E938281938113969C933A
:1016F0008E931297E0E0F0E08A819B81009719F0C9
:10170000FE01EC01F9CFCE01029628813981820FCA
:10171000931F2091CD033091CE032817390769F428
:10172000309729F41092D0031092CF0302C0138295
:101730001282D093CE03C093CD03DF91CF91089551
:1017400010E0CAEED0E000E005C022970109FE01DA
:101750000BBFB7DECC3ED10780E00807B1F7F894A5
:02176000FFCFB9
:101762000000D1038000F07465737400696E6974BF
:10177200206F6B0000000000D803AC0381038903D3
:101782009C03AB0300000000DC06580831064A0641
:101792003C06BB060D0A006E616E00696E66006F44
:0617A2007666002E000037
:00000001FF
