:10000000FCC000002BC1000029C1000027C1000076
:1000100025C1000023C1000021C100001FC1000054
:100020001DC100001BC1000019C1000017C1000064
:1000300015C1000013C1000011C100000FC1000074
:100040000DC100000BC1000009C1000007C1000084
:1000500005C1000003C1000001C100000C9450095B
:10006000FDC000000C94FF0B0C94350CF7C0000091
:10007000F5C0000042C30000F1C00000EFC0000066
:100080002DC30000EBC00000E9C00000E7C0000085
:10009000E5C00000E3C00000E1C00000D3C70000DD
:1000A000DDC00000DBC00000D9C00000D7C00000E8
:1000B000D5C00000D3C00000D1C00000CFC00000F8
:1000C000CDC00000CBC00000C9C00000C7C0000008
:1000D000C5C00000C3C00000C1C00000BFC0000018
:1000E000BDC00000200A230A120A160A1C0A5A0A76
:1000F000270A2B0A310A350A390A3F0A430A470AF6
:100100005A0A4D0A510A550A00000A0B02090C0D41
:100110000E080703040100000000000000000000BA
:1001200000000000000000000000000000000000CF
:10013000000000001211100000000000000000008C
:1001400000000000000000000000000000000102AC
:1001500010202008081020401020408002010201D9
:100160000804020101020408102040808040201091
:1001700008040201800402018040201008040201EA
:100180000804020101020408102040800102040852
:10019000102040800505050507050808080802022B
:1001A00002020A0A08080404040401010101010111
:1001B00001010303030303030303040707070C0CF4
:1001C0000C0C0C0C0C0C02020202060606060606BB
:1001D00006060B0B0B0B0B0B0B0B00002200250074
:1001E00028002B002E003100340002010000050120
:1001F00008010B01D5033B07670C11241FBECFEF8D
:10020000D1E2DEBFCDBF00E00CBF12E0A0E0B2E063
:10021000E4E7F4E200E00BBF02C007900D92AC3DB2
:10022000B107D9F724E0ACEDB2E001C01D92AA37C6
:10023000B207E1F711E0CAEFD1E000E006C0229773
:100240000109FE010BBF0E941112C43FD10780E0DB
:100250000807A9F70E94850F0C943812D1CE84B1FB
:10026000806684B9E1E0F1E0808188618083E1E823
:10027000F0E080818A608083E1EAF0E080818A603A
:100280008083E0E8F0E0808183608083E0EAF0E052
:100290008081836080830895613031F040F0623066
:1002A00071F0643049F0089591958195910990938A
:1002B000130380931203089591958195910990936A
:1002C00011038093100308951F93CF93DF93EC01E4
:1002D000162FE2DFCE01809590959370113019F1C1
:1002E00098F0123079F11430D9F52091A0002063F4
:1002F0002093A0002091A0002F772093A00090933E
:10030000AB008093AA002CC0209180002F7C20930A
:10031000800020918000206C2093800090938900C1
:10032000809388001DC0209180002063209380006E
:10033000209180002F772093800090938B008093F2
:100340008A000EC02091A0002F7C2093A000209155
:10035000A000206C2093A0009093A9008093A80097
:10036000DF91CF911F91089597FF05C064E09195AB
:100370008195910901C062E0A7CF97FF05C061E0B8
:1003800091958195910901C060E09ECFCF93DF9355
:10039000EC01F3DFCE01DF91CF91E6CFCF92DF9278
:1003A000EF92FF920F931F93CF93DF938C01C62E92
:1003B000D42E82E0681305C0C0911203D0911303BC
:1003C00014C0C0911003D091110391E0691769F036
:1003D00020911203309113032C0F3D1F37FF02C0F1
:1003E0002F5F3F4FE901D595C795C017D1070CF096
:1003F000D194ED2CFF24E7FCF094C017D10709F14C
:10040000D7FE04C00C171D0734F01BC0DD2019F007
:10041000C017D107B4F4C11003C0CE01B7DF08C0C4
:1004200082E0C81203C0CE01A8DF02C0CE019CDF6B
:100430008FE99FE00197F1F700C00000CE0DDF1DAE
:10044000DCCFDF91CF911F910F91FF90EF90DF9064
:10045000CF900895462F60E0A1CF65E080E090E066
:10046000F9CFFC01208181E090E0062E01C0880FC9
:100470000A94EAF7442319F0282B208308958095E5
:10048000822380830895DC01ED91FC910190F0813D
:10049000E02D19940F931F93CF93DF938C01EB0101
:1004A00069E670E084E193E075D4B80184E193E0FB
:1004B000EADFBE0184E193E0E6DF61E084E193E0FE
:1004C0006AD481E090E0DF91CF911F910F91089560
:1004D000789410927A0090917A00976090937A00C5
:1004E00090917A00906890937A0010927C0090919D
:1004F0007C00906490937C00882379F080917A004E
:10050000806280937A0080917A00886080937A007C
:1005100080917B00887F80937B0080917A0080644B
:1005200080937A0078940895ECE7F0E09081907FD2
:1005300090839081982B90830895482F63E070E01A
:1005400088E290E08EDF8FE193E00197F1F700C041
:100550000000429A8FE193E00197F1F700C000009C
:1005600042980895CF92DF92FF920F931F93CF93FB
:10057000DF931F92CDB7DEB7182F449885E08A9598
:10058000F1F7000081E09983D8DFC12E9981D92E3F
:1005900033E0F32E07E010E0F601808190E0002EBA
:1005A00002C0959587950A94E2F78170C6DF0150E5
:1005B000110990F7FA948FEFC81AD80AF110EACF10
:1005C0000CE010E080E0B9DF01501109D9F7449A3E
:1005D0000F90DF91CF911F910F91FF90DF90CF90FF
:1005E00008950F931F93CF93DF9300D0CDB7DEB75D
:1005F0009C01181619060CF564E670E00E94B01113
:10060000CB01EAE0F0E0BF010E94B01180569D4F9F
:10061000DC018C918983C901BF010E94B0119C014A
:10062000CB01BF010E94B01180569D4FFC0180811B
:100630008A83F901E056FD4F23C000271127081BCC
:10064000190B8D39FFEF9F0714F082E001C082E69D
:100650008983C90166EF7FEF0E94B011CB012AE0C8
:1006600030E0B9010E94B01180569D4FDC018C91A1
:100670008A83C801B9010E94B01180569D4FFC01C8
:1006800080818B83CE0101966DDF0F900F900F90CC
:10069000DF91CF911F910F9108958CE187B918B820
:1006A0000895F89410929000E1E9F0E010828081C2
:1006B000836080838081886080838AEF90E090935C
:1006C0009900809398001092950010929400E1E7B1
:1006D000F0E0808182608083789408951F920F9269
:1006E0000FB60F9211248F9381E08093DE028F91D9
:1006F0000F900FBE0F901F9018951F920F920FB67C
:100700000F9211240BB60F922F933F934F935F9349
:100710006F937F938F939F93AF93BF93EF93FF93C9
:100720008091DF022091780030917900811115C00D
:100730008091050390E0FC01EE0FFF1FED50FD4F8F
:1007400031832083019669E070E00E94B0118093AC
:10075000050381E08093DF0214C08091F20290E0F3
:10076000FC01EE0FFF1FE052FD4F31832083019605
:1007700069E070E00E94B0118093F2021092DF02F3
:1007800080E0D2DEFF91EF91BF91AF919F918F9169
:100790007F916F915F914F913F912F910F900BBE81
:1007A0000F900FBE0F901F90189510920803109293
:1007B000090310920A0310920B0310920503109282
:1007C000F20208950F931F93CF93DF938C01EB01F7
:1007D00069E670E084E193E0DDD2B80184E193E062
:1007E00052DE60E084E193E0D6D221E030E041E0E7
:1007F00050E069E670E084E193E03CD384E193E06B
:1008000029D2182F69E670E084E193E0C3D2BE01DB
:1008100084E193E038DE60E084E193E0BCD221E043
:1008200030E041E050E069E670E084E193E022D3FB
:1008300084E193E00FD2982F8827810F911DDF91DB
:10084000CF911F910F910895CF92DF92EF92FF9277
:100850000F931F93CF93DF93EC0108EE13E0C12CAD
:10086000D12C760167E470E088E490E0ABDFAC0166
:10087000662757FD6095762FC40ED51EE61EF71E1F
:100880000150110979F7C701B60128EE33E040E0C5
:1008900050E00E94E5113983288366E072E08DED17
:1008A00093E00E94E80C688179814AE050E08DED88
:1008B00093E0DF91CF911F910F91FF90EF90DF9028
:1008C000CF900C94A10DCF92DF92EF92FF920F93F5
:1008D0001F93CF93DF93D82FC62F8091DE028823FA
:1008E00009F48AC067E470E088E490E06BDF20914F
:1008F000060330910703821B930BBC01882777FD09
:100900008095982F0E94951023E333E343E550E44C
:100910000E94491120E030E040E058E30E94491174
:100920002FE73AE64CE35CE30E94FA0F6B017C018F
:100930006EE072E08DED93E00E94E80CFBD4AB0119
:10094000BC01009108031091090320910A03309122
:100950000B03401B510B620B730B2AE030E08DED53
:1009600093E00E94D70DE6D46093080370930903C7
:1009700080930A0390930B0320E030E048EC52E4AC
:10098000C701B6010E94FA0F20910C0330910D03AC
:1009900040910E0350910F030E94920F60930C033D
:1009A00070930D0380930E0390930F031092DE0259
:1009B000DD2321F00E946210CB0113DECC23E1F095
:1009C00065E172E08DED93E00E94E80C40910C032C
:1009D00050910D0360910E0370910F0322E030E0FF
:1009E0008DED93E0DF91CF911F910F91FF90EF90EC
:1009F000DF90CF900C94BF0EDF91CF911F910F919C
:100A0000FF90EF90DF90CF900895CF93DF93EC01AC
:100A100069E670E084E193E0BDD1BE0184E193E03A
:100A200032DD60E084E193E0B6D121E030E041E0E6
:100A300050E069E670E084E193E01CD284E193E049
:100A4000DF91CF9107C1CF93C82F84E193E08FD17D
:100A500060E070E08BE690E01DDDCC2351F08AE190
:100A600090E0D3DFBC01607966608AE190E0CF91CD
:100A700011CDCF91089563E272E08DED93E0B3D78D
:100A80008DED93E04DD5892BD9F38DED93E00E9448
:100A9000820F7093DD026093DC026AE272E08DEDFA
:100AA00093E096D76091DC027091DD024AE050E05D
:100AB0008DED93E00E94C30D42E061E08CE890E090
:100AC0006DCC26E040E051EE60E070E08DED93E00B
:100AD00036D62FEF89EF90E0215080409040E1F72B
:100AE00000C0000066E372E08DED93E07CD781E00A
:100AF000EFDC6CE372E08DED93E075D7B0DB68E47A
:100B000072E08DED93E06FD781E09DDF66E572E0E6
:100B10008DED93E068D7C5DD62E672E08DED93E080
:100B200057D74AE050E06AE070E08DED93E00E9414
:100B3000A10DB3DD6FE772E08DED93E054D786E051
:100B400093E082DE6BE872E08DED93E04CD793CFBB
:100B50008F929F92AF92BF92CF92DF92EF92FF92CD
:100B600061E081E0B0DEC0900C03D0900D03E09016
:100B70000E03F0900F0320E030E0A901C701B60199
:100B80000E94451146015701181624F0B7FAB09497
:100B9000B7F8B0946091DC027091DD0280E090E0E3
:100BA0000E9493109B01AC01C501B4010E94451144
:100BB00018160CF03EC020E030E0A901C701B601D4
:100BC0000E944511B701A60118160CF0705822E0DA
:100BD00030E08DED93E00E94BE0E6CE072E08DED92
:100BE00093E0F6D66091DC027091DD024AE050E0BD
:100BF0008DED93E0C8D731DC2FEF83EC99E02150E5
:100C000080409040E1F700C0000010920C03109269
:100C10000D0310920E0310920F0386E093E014DE92
:100C2000FF90EF90DF90CF90BF90AF909F908F900C
:100C300022CFFF90EF90DF90CF90BF90AF909F902A
:100C40008F9008958091440390E020914503821B8A
:100C5000910908952091450380914403281750F489
:100C6000E22FF0E0EA5BFC4F808190E02F5F209361
:100C7000450308958FEF9FEF0895E091450380911C
:100C80004403E81730F4F0E0EA5BFC4F808190E029
:100C900008958FEF9FEF08950895CF92DF92EF921E
:100CA000FF920F931F93CF93DF937C01CB018A01B7
:100CB00020912003222389F0EB016B01C40ED51E85
:100CC000CC15DD0561F06991D701ED91FC910190A2
:100CD000F081E02DC7011995F3CF642F8AD1C801A7
:100CE000DF91CF911F910F91FF90EF90DF90CF9008
:100CF0000895CF93DF931F92CDB7DEB7698320911C
:100D000020032223D1F020912103203240F021E062
:100D100030E0FC013383228380E090E014C08091B6
:100D20002203E82FF0E0ED5DFC4F998190838F5F07
:100D3000809322038093210304C061E0CE010196D9
:100D400058D181E090E00F90DF91CF910895FC01A0
:100D50001382128248EE53E060E070E044835583D2
:100D6000668377838FEA92E091838083089510925F
:100D700045031092440310922203109221037EC077
:100D800081E080932003609343031092220310922A
:100D900021030895F5CF0F93062F21E04091210301
:100DA00063E273E080914303CDD01092220310924E
:100DB0002103109220030F9108958F929F92AF927A
:100DC000BF92CF92DF92EF92FF920F931F93CF9338
:100DD000DF93EC01F62ED42E48015901EE2009F1E3
:100DE000CFDF1E2D143008F013E01150B8F0E88169
:100DF000F98128E0129FB0011124A501940104C0DB
:100E000056954795379527956A95D2F7CA01B90146
:100E10000190F081E02DCE011995E7CF60E0CE0181
:100E2000BADF4D2D413208F040E22C2D66E473E02C
:100E30008F2D40D01092450380934403DF91CF91D2
:100E40001F910F91FF90EF90DF90CF90BF90AF90E8
:100E50009F908F900895CF92EF920F931F93C22E81
:100E6000E12C00E010E09801A8DF1F910F91EF90B6
:100E7000CF900895F0CF84E193E069CF1092D3032F
:100E800081E08093D1031092D00361E084E113D319
:100E900061E085E110D3E9EBF0E080818E7F808313
:100EA00080818D7F808388E48093B80085E480937F
:100EB000BC000895413208F043C09091D3039111D2
:100EC000FCCF91E09093D3032093D1032FEF209395
:100ED00066031092AB03240F2093AA039093D203CE
:100EE0009091D203880F892B8093D2038091D003F5
:100EF000813061F41092D0038091D2038093BB00C3
:100F00008091BC0083FDF8CF85EC01C085EE809315
:100F1000BC008091D3038130E1F38091AB0384174F
:100F200010F44091AB032CEA33E0FB01D9018A2F86
:100F3000821B841718F48D918193F9CF842F089523
:100F400080E008950F93413208F04AC09091D30396
:100F50009111FCCF92E09093D3030093D1039FEFC4
:100F6000909366031092AB034093AA03FB016CEAD3
:100F700073E0DB019A2F961B941718F491919D93BF
:100F8000F9CF1092D2039091D203880F892B8093CE
:100F9000D2038091D003813061F41092D00380910C
:100FA000D2038093BB008091BC0083FDF8CF85EC19
:100FB00001C085EE8093BC00222321F08091D303F1
:100FC0008230E1F3809166038F3F61F08091660388
:100FD000803251F080916603803341F483E007C092
:100FE00081E005C080E003C082E001C084E00F9191
:100FF0000895613298F42091D303243089F46093EA
:101000008803FC018AE893E0DC012A2F281B2617BD
:1010100018F421912D93F9CF80E0089581E008958F
:1010200082E0089585ED8093BC008091BC0084FD32
:10103000FCCF1092D303089585EC8093BC001092EE
:10104000D30308951F920F920FB60F9211240BB67F
:101050000F922F933F934F935F936F937F938F9351
:101060009F93AF93BF93EF93FF938091B900887FD5
:10107000803609F49DC070F5883209F45CC090F4A4
:10108000803109F455C038F4882309F4F3C088305E
:1010900009F44EC0F2C0883109F44DC0803209F421
:1010A0005EC0EBC0803409F469C050F4803309F4A9
:1010B00056C0883309F0E1C080936603BDDFDDC010
:1010C000803509F44FC0883509F45DC0883409F0D3
:1010D000D4C0D2C0883909F4C3C0A8F4883709F451
:1010E00067C038F4883609F463C0803709F460C0FB
:1010F000C4C0883809F4B4C0803909F45FC08038AE
:1011000009F0BBC05BC0803B09F482C038F4803A70
:1011100009F466C0883A09F47BC0AFC0803C09F48A
:10112000A3C0883C09F4A0C0883B09F486C0A5C0D0
:101130008091D20310C09091AB038091AA039817BD
:1011400070F5E091AB0381E08E0F8093AB03F0E08C
:10115000E455FC4F80818093BB0085EC82C0809376
:1011600066038AC0E091AB0381E08E0F8093AB03EE
:101170008091BB00F0E0E455FC4F80839091AB037D
:101180008091AA036AC0E091AB0381E08E0F809347
:10119000AB038091BB00F0E0E455FC4F808380916D
:1011A000D103811169C081E08093D00384EA5DC0DE
:1011B00083E08093D30310926703CFCF80916703BE
:1011C000803208F04DC0E091670381E08E0F80937C
:1011D00067038091BB00F0E0E859FC4F8083BDCFEE
:1011E0002BDF80916703803230F4E0916703F0E0F9
:1011F000E859FC4F10826091670370E0E091CC03E6
:10120000F091CD0388E693E019951092670335C0FD
:1012100084E08093D3031092890310928803E091B5
:10122000CE03F091CF03199580918803811105C0F9
:1012300081E08093880310928A03E091890381E022
:101240008E0F80938903F0E0E657FC4F80818093F6
:10125000BB009091890380918803981708F47DCF93
:1012600085E88093BC0009C085EC8093BC00109297
:10127000D30303C010926603D5DEFF91EF91BF91B7
:10128000AF919F918F917F916F915F914F913F911E
:101290002F910F900BBE0F900FBE0F901F901895BF
:1012A0001F920F920FB60F9211242F933F938F939B
:1012B0009F93AF93BF938091D5039091D603A09154
:1012C000D703B091D8033091D40323E0230F2D37F7
:1012D00020F40196A11DB11D05C026E8230F02963A
:1012E000A11DB11D2093D4038093D5039093D60301
:1012F000A093D703B093D8038091D9039091DA03D8
:10130000A091DB03B091DC030196A11DB11D809378
:10131000D9039093DA03A093DB03B093DC03BF916E
:10132000AF919F918F913F912F910F900FBE0F9092
:101330001F9018952FB7F8946091D5037091D6033C
:101340008091D7039091D8032FBF0895789484B5E6
:10135000826084BD84B5816084BD85B5826085BDB1
:1013600085B5816085BDEEE6F0E080818160808397
:10137000E1E8F0E01082808182608083808181607A
:101380008083E0E8F0E0808181608083E1EBF0E041
:10139000808184608083E0EBF0E0808181608083E5
:1013A000E1E9F0E0808182608083808181608083D8
:1013B000E0E9F0E0808181608083E1EAF0E0808113
:1013C00082608083808181608083E0EAF0E08081B8
:1013D00081608083E1E2F1E08081826080838081AE
:1013E00081608083E0E2F1E0808181608083EAE7D0
:1013F000F0E080818460808380818260808380814E
:10140000816080838081806880831092C10008950C
:1014100090E0FC013197E231F10508F04BC0EE5845
:10142000FF4FEFC7809180008F7703C080918000CD
:101430008F7D80938000089580918000877FF9CF11
:1014400084B58F7702C084B58F7D84BD0895809167
:10145000B0008F7703C08091B0008F7D8093B00083
:101460000895809190008F7707C0809190008F7DC4
:1014700003C080919000877F8093900008958091B1
:10148000A0008F7707C08091A0008F7D03C080915E
:10149000A000877F8093A0000895809120018F771E
:1014A00007C0809120018F7D03C080912001877F3C
:1014B0008093200108950F931F93CF93DF931F9282
:1014C000CDB7DEB7282F30E0F901E85FFE4F8491F9
:1014D000F901E25BFE4F1491F901EC56FE4F0491C5
:1014E0000023C1F0882319F0698392DF6981E02F1E
:1014F000F0E0EE0FFF1FE652FE4FA591B4919FB7AB
:10150000F8948C91611103C01095812301C0812B47
:101510008C939FBF0F90DF91CF911F910F910895F2
:10152000FC01818D228D90E0805C9F4F821B910990
:101530008F7399270895FC01918D828D981731F052
:10154000828DE80FF11D858D90E008958FEF9FEF5C
:101550000895FC01918D828D981761F0828DDF01D5
:10156000A80FB11D5D968C91928D9F5F9F73928F96
:1015700090E008958FEF9FEF08958EE59CE0892B12
:1015800039F080E090E0892B19F098D1811125C0C5
:1015900080E090E0892B41F080E090E0892B21F001
:1015A0000E94000081111CC080E090E0892B41F076
:1015B00080E090E0892B21F00E940000811113C08F
:1015C00080E090E0892BA1F080E090E0892B81F011
:1015D0000E94000081110AC008950E940000D8CF27
:1015E0000E940000E1CF0E940000EACF0C940000AE
:1015F0000895FC01848DDF01A80FB11DA35ABF4FD0
:101600002C91848D90E001968F739927848FA68901
:10161000B7892C93A089B1898C9180648C93938D28
:10162000848D981306C00288F389E02D80818F7D18
:1016300080830895CF93DF93EC01888D8823C1F0D8
:10164000EA89FB89808185FD05C0A889B9898C91CB
:1016500086FD0EC00FB607FCF5CF808185FFF2CF67
:10166000A889B9898C9185FFEDCFCE01C2DFE8CF83
:10167000DF91CF910895CF92DF92FF920F931F9346
:10168000CF93DF931F92CDB7DEB76C0181E0D60117
:1016900058968C9358975B969C915B975C968C912F
:1016A0005C97981307C05096ED91FC9151978081FB
:1016B00085FD2DC0F601038D10E00F5F1F4F0F73E6
:1016C0001127F02EF601848DF81210C00FB607FC1A
:1016D000F9CFD6015096ED91FC915197808185FF0D
:1016E000F1CFC601698385DF6981ECCF838DE80F77
:1016F000F11DE35AFF4F6083D6015B960C935B9715
:101700005296ED91FC915397808180620CC0D60176
:101710005696ED91FC91579760835096ED91FC9110
:10172000519780818064808381E090E00F90DF9109
:10173000CF911F910F91FF90DF90CF900895BF92AE
:10174000CF92DF92EF92FF92CF93DF93EC016A0189
:101750007B01B22EE889F98982E08083411581EE10
:1017600058076105710599F060E079E08DE390E03C
:10177000A701960108D62150310941095109569512
:10178000479537952795211580E1380790F0E8892E
:10179000F989108260E874E88EE190E0A701960173
:1017A000F2D5215031094109510956954795379590
:1017B0002795EC85FD853083EE85FF852083188E87
:1017C000EC89FD89B082EA89FB8980818061808310
:1017D000EA89FB89808188608083EA89FB8980812E
:1017E00080688083EA89FB8980818F7D8083DF9197
:1017F000CF91FF90EF90DF90CF90BF9008951F9210
:101800000F920FB60F9211240BB60F922F938F9356
:101810009F93EF93FF93E091ED03F091EE038081AE
:10182000E091F303F091F40382FD12C09081809166
:10183000F6038F5F8F732091F703821751F0E091C9
:10184000F603F0E0E352FC4F958F8093F60301C05E
:101850008081FF91EF919F918F912F910F900BBEFF
:101860000F900FBE0F901F9018951F920F920FB6FA
:101870000F9211240BB60F922F933F934F935F93C8
:101880006F937F938F939F93AF93BF93EF93FF9348
:101890008DED93E0AEDEFF91EF91BF91AF919F91FF
:1018A0008F917F916F915F914F913F912F910F9009
:1018B0000BBE0F900FBE0F901F9018958DED93E00B
:1018C0002FDE21E0892B09F420E0822F0895109269
:1018D000E0031092DF0388EE93E0A0E0B0E0809395
:1018E000E1039093E203A093E303B093E4038FEB4F
:1018F00092E09093DE038093DD0385EC90E090937B
:10190000EA038093E90384EC90E09093EC038093E6
:10191000EB0380EC90E09093EE038093ED0381EC79
:1019200090E09093F0038093EF0382EC90E090932B
:10193000F2038093F10386EC90E09093F40380939C
:10194000F3031092F6031092F7031092F80310922B
:10195000F9030895CF92DF92EF92FF920F931F93B6
:10196000CF93DF937C016A01EB0100E010E00C15DE
:101970001D0571F06991D701ED91FC910190F08105
:10198000E02DC7011995892B19F00F5F1F4FEFCF7D
:10199000C801DF91CF911F910F91FF90EF90DF90E1
:1019A000CF9008956115710581F0DB010D90002045
:1019B000E9F7AD0141505109461B570BDC01ED9190
:1019C000FC910280F381E02D199480E090E008956D
:1019D000E9CFDC01ED91FC910190F081E02D1994AB
:1019E0006BEC72E0DFCF0F931F93CF93DF93EC018B
:1019F000D9DF8C01CE01F4DF800F911FDF91CF91F1
:101A00001F910F9108958F929F92AF92BF92CF92A4
:101A1000DF92EF92FF920F931F93CF93DF93CDB797
:101A2000DEB7A1970FB6F894DEBF0FBECDBF7C0125
:101A3000C42EE52FCB01D22E19A221E02D1510F0D6
:101A40002AE0D22E8E010F5D1F4F8D2C912CA12CE0
:101A5000B12C6C2D7E2FA501940195D48C2DD29E96
:101A600080191124015011098A3014F4805D01C0DD
:101A7000895CF8018083211531054105510521F06C
:101A8000C22EE32FCA01E5CFB801C7018BDFA196B3
:101A90000FB6F894DEBF0FBECDBFDF91CF911F917F
:101AA0000F91FF90EF90DF90CF90BF90AF909F90FD
:101AB0008F900895CF92DF92EF92FF920F931F9332
:101AC000CF93DF93EC016A017B012115310579F495
:101AD000E881F9810190F081E02D642FDF91CF91B1
:101AE0001F910F91FF90EF90DF90CF9019942A30C3
:101AF0003105D9F477FF18C06DE26BDF8C01442704
:101B00005527BA014C195D096E097F092AE0CE01FB
:101B10007ADF800F911FDF91CF911F910F91FF907E
:101B2000EF90DF90CF9008952AE0B701A601CE0193
:101B3000DF91CF911F910F91FF90EF90DF90CF90A9
:101B400062CF0F931F93CF93DF93EC019A01AB0108
:101B5000662757FD6095762FADDF8C01CE0140DF03
:101B6000800F911FDF91CF911F910F910895211543
:101B7000310541F4DC01ED91FC910190F081E02D03
:101B8000642F199440CF0F931F93CF93DF93EC01F1
:101B90009A01AB0160E070E0EADF8C01CE0120DF4A
:101BA000800F911FDF91CF911F910F9108950F9397
:101BB0001F93CF93DF93EC01DADF8C01CE0110DFAE
:101BC000800F911FDF91CF911F910F9108954F9238
:101BD0005F926F927F928F929F92AF92BF92CF92BD
:101BE000DF92EF92FF920F931F93CF93DF93EC015D
:101BF0006A017B01B22E9A01AB01C701B601ACD3D9
:101C0000882319F06EEC72E024C026013701E894B5
:101C100077F82FEF3FEF4FE75FE7C301B2019CD3A7
:101C200081110CC02FEF3FEF4FE75FE7C301B20117
:101C3000DDD118161CF462ED72E00BC02FEF3FEF00
:101C40004FE75FE4C701B60120D31816A4F466ED90
:101C500072E0CE01DF91CF911F910F91FF90EF9035
:101C6000DF90CF90BF90AF909F908F907F906F90BC
:101C70005F904F9097CE2FEF3FEF4FE75FECC7019C
:101C8000B601B4D187FDE3CF20E030E0A901C70160
:101C9000B601ACD187FF09C06DE2CE019ADE8C019E
:101CA000F7FAF094F7F8F09402C000E010E0A12CED
:101CB00060E070E080E09FE3AB1439F020E030E0BA
:101CC00040E251E497D1A394F7CF9B01AC01C70147
:101CD000B60128D16B017C01FAD12B013C0123D242
:101CE0009B01AC01C701B6011CD16B017C012AE04C
:101CF000B301A201CE0187DE080F191FBB2031F00E
:101D00006AED72E0CE014EDE080F191F7B2C7720A2
:101D100019F120E030E040E251E4C701B601B9D248
:101D20006B017C01CFD14B01AA2497FCA094BA2C63
:101D30002AE030E0B501A401CE01BCDE080F191F76
:101D4000C501B401F2D19B01AC01C701B601E9D0D4
:101D50006B017C017A94DBCFC801DF91CF911F9199
:101D60000F91FF90EF90DF90CF90BF90AF909F903A
:101D70008F907F906F905F904F90089528CF0F9332
:101D80001F93CF93DF93EC0122DF8C01CE0128DE7D
:101D9000800F911FDF91CF911F910F9108950F93A5
:101DA0001F93CF93DF93EC01C5DA688779878A8721
:101DB0009B87E881F9810084F185E02DCE0119959A
:101DC00097FF14C0B7DA088519852A853B85601B03
:101DD000710B820B930B0C811D812E813F8160174B
:101DE00071078207930728F38FEF9FEFDF91CF9161
:101DF0001F910F910895CF93DF93EC01CE01CFDFB8
:101E000097FD11C08D32910571F09C01205331096D
:101E10002A30310540F0E881F9810680F781E02D14
:101E2000CE011995EBCFDF91CF910895CF92DF923C
:101E3000FF920F931F93CF93DF9300D01F92CDB7E4
:101E4000DEB76C01062FD7DFFC0197FD49C020E00B
:101E500030E0A901F12C112707FD1095E017F107DB
:101E6000E1F0ED32F105B9F0CF01C0970A97A8F47F
:101E7000AAE0B0E0CCD29B01AC01CF01AA2797FD2C
:101E8000A095BA2F280F391F4A1F5B1F2053310915
:101E90004109510902C0FF24F394D601ED91FC9150
:101EA0000680F781E02DC60129833A834B835C834A
:101EB0001995C60174DFFC01C09729813A814B81D5
:101EC0005C810A9758F2E017F10741F2FF2061F0B8
:101ED00066277727CB01621B730B840B950B06C01B
:101EE00060E070E0CB0102C0CA01B9010F900F9011
:101EF0000F900F90DF91CF911F910F91FF90DF9086
:101F0000CF90089561E092CF089520DAFDDF0E941E
:101F10006105CDEBDAE00E94A8052097E1F32DDB07
:101F2000FACF5058BB27AA270ED075C166D130F022
:101F30006BD120F031F49F3F11F41EF45BC10EF41D
:101F4000E095E7FB51C1E92F77D180F3BA1762071B
:101F500073078407950718F071F49EF58FC10EF48E
:101F6000E0950B2EBA2FA02D0B01B90190010C01A9
:101F7000CA01A0011124FF27591B99F0593F50F4C1
:101F8000503E68F11A16F040A22F232F342F442719
:101F9000585FF3CF469537952795A795F040539511
:101FA000C9F77EF41F16BA0B620B730B840BBAF0E1
:101FB0009150A1F0FF0FBB1F661F771F881FC2F74C
:101FC0000EC0BA0F621F731F841F48F48795779560
:101FD0006795B795F7959E3F08F0B3CF9395880F17
:101FE00008F09927EE0F979587950895D9D008F4B2
:101FF00081E008950CD00FC107D140F0FED030F041
:1020000021F45F3F19F0F0C0511139C1F3C014D170
:1020100098F39923C9F35523B1F3951B550BBB27AF
:10202000AA2762177307840738F09F5F5F4F220F5C
:10203000331F441FAA1FA9F333D00E2E3AF0E0E855
:1020400030D091505040E695001CCAF729D0FE2FA1
:1020500027D0660F771F881FBB1F26173707480733
:10206000AB07B0E809F0BB0B802DBF01FF279358E9
:102070005F4F2AF09E3F510568F0B6C000C15F3F38
:10208000ECF3983EDCF3869577956795B795F795D1
:102090009F5FC9F7880F911D9695879597F90895C9
:1020A000E1E0660F771F881FBB1F62177307840765
:1020B000BA0720F0621B730B840BBA0BEE1F88F774
:1020C000E095089504D06894B111D9C00895BCD0AA
:1020D00088F09F5790F0B92F9927B751A0F0D1F011
:1020E000660F771F881F991F1AF0BA95C9F712C09B
:1020F000B13081F0C3D0B1E00895C0C0672F782F10
:102100008827B85F39F0B93FCCF386957795679506
:10211000B395D9F73EF490958095709561957F4F72
:102120008F4F9F4F0895E89409C097FB3EF4909518
:102130008095709561957F4F8F4F9F4F9923A9F0A0
:10214000F92F96E9BB279395F6958795779567952F
:10215000B795F111F8CFFAF4BB0F11F460FF1BC073
:102160006F5F7F4F8F4F9F4F16C0882311F096E906
:1021700011C0772321F09EE8872F762F05C06623B4
:1021800071F096E8862F70E060E02AF09A95660F6D
:10219000771F881FDAF7880F9695879597F9089526
:1021A000990F0008550FAA0BE0E8FEEF1616170668
:1021B000E807F907C0F012161306E407F50798F0D0
:1021C000621B730B840B950B39F40A2661F0232BE9
:1021D000242B252B21F408950A2609F4A140A69565
:1021E0008FEF811D811D089597F99F6780E870E04A
:1021F00060E008959FEF80EC089500240A9416167D
:10220000170618060906089500240A9412161306E4
:10221000140605060895092E0394000C11F4882372
:1022200052F0BB0F40F4BF2B11F460FF04C06F5F8E
:102230007F4F8F4F9F4F089557FD9058440F551F64
:1022400059F05F3F71F04795880F97FB991F61F038
:102250009F3F79F087950895121613061406551FAF
:10226000F2CF4695F1DF08C0161617061806991F1B
:10227000F1CF86957105610508940895E894BB2710
:1022800066277727CB0197F908958ADF08F48FEF47
:1022900008950BD0C0CFB1DF28F0B6DF18F095233A
:1022A00009F0A2CFA7CF1124EACFC6DFA0F3959FF4
:1022B000D1F3950F50E0551F629FF001729FBB272D
:1022C000F00DB11D639FAA27F00DB11DAA1F649FD9
:1022D0006627B00DA11D661F829F2227B00DA11D8C
:1022E000621F739FB00DA11D621F839FA00D611D12
:1022F000221F749F3327A00D611D231F849F600D33
:10230000211D822F762F6A2F11249F5750408AF06B
:10231000E1F088234AF0EE0FFF1FBB1F661F771FF7
:10232000881F91505040A9F79E3F510570F05CCF37
:10233000A6CF5F3FECF3983EDCF3869577956795E3
:10234000B795F795E7959F5FC1F7FE2B880F911D15
:102350009695879597F9089523DF880B990B089533
:1023600097FB072E16F4009406D077FD08D05DD0B9
:1023700007FC05D03EF4909581959F4F0895709588
:1023800061957F4F0895A1E21A2EAA1BBB1BFD0188
:102390000DC0AA1FBB1FEE1FFF1FA217B307E40744
:1023A000F50720F0A21BB30BE40BF50B661F771F9C
:1023B000881F991F1A9469F760957095809590957C
:1023C0009B01AC01BD01CF010895052E97FB16F4CA
:1023D00000940FD057FD05D0D6DF07FC02D046F49D
:1023E00008C050954095309521953F4F4F4F5F4F16
:1023F000089590958095709561957F4F8F4F9F4F71
:102400000895EE0FFF1F0590F491E02D199421D04F
:10241000A59F900DB49F900DA49F800D911D112438
:1024200008950790F691E02D1994AA1BBB1B51E16A
:1024300007C0AA1FBB1FA617B70710F0A61BB70B34
:10244000881F991F5A95A9F780959095BC01CD01D9
:102450000895A29FB001B39FC001A39F700D811D7D
:102460001124911DB29F700D811D1124911D08959D
:04247000F894FFCF0E
:1024740000007A0480006F66667365743A006465D0
:102484006C61793A0063757272656E7420616E676F
:102494006C6500616E676C653F00676F7420616EE8
:1024A400676C653A2000616C69766500616463203D
:1024B400696E6974206F6B006D6F746F7220696E42
:1024C4006974206F6B00696D7520696E6974206F83
:1024D4006B006374632074696D657220696E69743E
:1024E400206F6B2C206D732F7469636B3A2000731B
:1024F400736420696E6974206F6B00696E7465671C
:102504007261746F72206F6666736574206F6B00FE
:10251400FC60DAF266B6BEE0FEF602000000007966
:10252400064D0622062A063D064C06000000003B26
:102534000BAA0C900AA90A9B0A1A0B0D0A006E61D9
:0C2544006E00696E66006F7666002E0067
:00000001FF
