:10000000FCC000002AC1000028C1000026C1000079
:1000100024C1000022C1000020C100001EC1000058
:100020001CC100001AC1000018C1000016C1000068
:1000300014C1000012C1000010C100000EC1000078
:100040000CC100000AC1000008C1000006C1000088
:1000500004C1000002C1000000C100000C945D0951
:10006000FCC000000C9456080C948C08F6C00000EC
:10007000F4C0000080C20000F0C00000EEC000002C
:100080006BC20000EAC00000E8C00000E6C000004B
:10009000E4C00000E2C00000E0C00000E2C40000D4
:1000A000DCC00000DAC00000D8C00000D6C00000EC
:1000B000D4C00000D2C00000D0C00000CEC00000FC
:1000C000CCC00000CAC00000C8C00000C6C000000C
:1000D000C4C00000C2C00000C0C00000BEC000001C
:1000E000BCC0000077067A0669066D067306B10685
:1000F0007E06820688068C06900696069A069E065E
:10010000B106A406A806AC0600000A0B02090C0DF5
:100110000E080703040100000000000000000000BA
:1001200000000000000000000000000000000000CF
:10013000000000001211100000000000000000008C
:1001400000000000000000000000000000000102AC
:1001500010202008081020401020408002010201D9
:100160000804020101020408102040808040201091
:1001700008040201800402018040201008040201EA
:100180000804020101020408102040800102040852
:10019000102040800505050507050808080802022B
:1001A00002020A0A08080404040401010101010111
:1001B00001010303030303030303040707070C0CF4
:1001C0000C0C0C0C0C0C02020202060606060606BB
:1001D00006060B0B0B0B0B0B0B0B00002200250074
:1001E00028002B002E003100340002010000050120
:1001F00008010B010F035204BE0811241FBECFEFEC
:10020000D1E2DEBFCDBF00E00CBF12E0A0E0B2E063
:10021000EEE6F4E100E00BBF02C007900D92A039BA
:10022000B107D9F724E0A0E9B2E001C01D92AE37D2
:10023000B207E1F711E0CAEFD1E000E006C0229773
:100240000109FE010BBF0E94310AC43FD10780E0C3
:100250000807A9F7D7D70C94350AD2CE84B18066A7
:1002600084B9E1E0F1E0808188618083E1E8F0E039
:1002700080818A608083E1EAF0E080818A60808307
:10028000E0E8F0E0808183608083E0EAF0E0808154
:10029000836080830895613031F040F0623071F006
:1002A000643049F0089591958195910990931703D1
:1002B0008093160308959195819591099093150364
:1002C0008093140308951F93CF93DF93EC01162FAF
:1002D000E2DFCE01809590959370113019F198F07E
:1002E000123079F11430D9F52091A00020632093C9
:1002F000A0002091A0002F772093A0009093AB0046
:100300008093AA002CC0209180002F7C2093800035
:1003100020918000206C209380009093890080932E
:1003200088001DC0209180002063209380002091D0
:1003300080002F772093800090938B0080938A0019
:100340000EC02091A0002F7C2093A0002091A0003F
:10035000206C2093A0009093A9008093A800DF91C7
:10036000CF911F91089597FF05C064E09195819505
:10037000910901C062E0A7CF97FF05C061E09195A8
:100380008195910901C060E09ECFCF93DF93EC018E
:10039000F3DFCE01DF91CF91E6CFCF92DF92EF92E4
:1003A000FF920F931F93CF93DF938C01C62ED42E11
:1003B00082E0681305C0C0911603D091170314C0E2
:1003C000C0911403D091150391E0691769F0209151
:1003D0001603309117032C0F3D1F37FF02C02F5F0C
:1003E0003F4FE901D595C795C017D1070CF0D194BF
:1003F000ED2CFF24E7FCF094C017D10709F1D7FEDC
:1004000004C00C171D0734F01BC0DD2019F0C01705
:10041000D107B4F4C11003C0CE01B7DF08C082E039
:10042000C81203C0CE01A8DF02C0CE019CDF8FE955
:100430009FE00197F1F700C00000CE0DDF1DDCCF7B
:10044000DF91CF911F910F91FF90EF90DF90CF90B0
:100450000895DC01ED91FC910190F081E02D19945B
:100460000F931F93CF93DF938C01EB0169E670E04C
:1004700088E193E004D2B80188E193E0EADFBE01AD
:1004800088E193E0E6DF61E088E193E0F9D181E083
:1004900090E0DF91CF911F910F9108957894109281
:1004A0007A0090917A00976090937A0090917A0008
:1004B000906890937A0010927C0090917C009064F8
:1004C00090937C00882379F080917A0080628093F9
:1004D0007A0080917A00886080937A0080917B0016
:1004E000887F80937B0080917A00806480937A007B
:1004F00078940895ECE7F0E09081907F908390816C
:10050000982B908308958CE187B918B8089580914D
:100510009002811110929002089581E0F8CFF89432
:1005200010929000E1E9F0E0108280818360808386
:100530008081886080838EEE92E090939900809312
:1005400098001092950010929400E1E7F0E080810D
:1005500082608083789408951F920F920FB60F9255
:1005600011248F9381E0809390028F910F900FBEA2
:100570000F901F9018951F920F920FB60F92112493
:100580000BB60F922F933F934F935F936F937F938D
:100590008F939F93AF93BF93EF93FF9380919102BB
:1005A0002091780030917900811113C0809113035C
:1005B00090E0FC01EE0FFF1FED52FD4F31832083D1
:1005C00001968F7199278093130381E080939102A4
:1005D00012C08091D20290E0FC01EE0FFF1FEE5698
:1005E000FD4F3183208301968F7199278093D2022A
:1005F0001092910280E07EDFFF91EF91BF91AF9169
:100600009F918F917F916F915F914F913F912F912A
:100610000F900BBE0F900FBE0F901F901895109269
:1006200013031092D2020895CF93DF93EC0169E691
:1006300070E088E193E023D1BE0188E193E009DF17
:1006400060E088E193E01CD121E030E041E050E03F
:1006500069E670E088E193E007D188E193E0DF91FB
:10066000CF9160C0CF93C82F88E193E0E8D060E0DD
:1006700070E08BE690E0F4DECC2351F08AE190E06C
:10068000D3DFBC01607962608AE190E0CF91E8CE6F
:10069000CF91089526E040E051EE60E070E088EDF3
:1006A00093E0A4D42FEF89EF90E021508040904058
:1006B000E1F700C0000060E072E088ED93E0EDD566
:1006C00081E0ECDE66E072E088ED93E0E6D5C6DD21
:1006D00062E172E088ED93E0E0D581E0C3DF60E2A3
:1006E00072E088ED93E0D9D51ADF6CE272E088ED14
:1006F00093E0D3D508DF6EE372E088ED93E0CDD5CB
:100700006AE472E088ED93E0C8D541E062E088ECED
:1007100090E043CE8091480390E020914903821BF2
:10072000910908952091490380914803281750F4B6
:10073000E22FF0E0E65BFC4F808190E02F5F20939A
:10074000490308958FEF9FEF0895E0914903809149
:100750004803E81730F4F0E0E65BFC4F808190E05E
:1007600008958FEF9FEF08950895CF92DF92EF9253
:10077000FF920F931F93CF93DF937C01CB018A01EC
:1007800020912403222389F0EB016B01C40ED51EB6
:10079000CC15DD0561F06991D701ED91FC910190D7
:1007A000F081E02DC7011995F3CF642F31D1C80135
:1007B000DF91CF911F910F91FF90EF90DF90CF903D
:1007C0000895CF93DF931F92CDB7DEB76983209151
:1007D00024032223D1F020912503203240F021E090
:1007E00030E0FC013383228380E090E014C08091EC
:1007F0002603E82FF0E0E95DFC4F998190838F5F3D
:10080000809326038093250304C061E0CE01019606
:10081000FFD081E090E00F90DF91CF910895FC012F
:100820001382128248EE53E060E070E04483558307
:100830006683778383E692E09183808308951092A4
:1008400049031092480310922603109225032DC0ED
:10085000862F413208F040E26AE473E042D0109201
:100860004903809348030895F3CF81E080932403E4
:100870006093470310922603109225030895F5CF45
:100880000F93062F21E04091250367E273E08091EA
:1008900047036BD010922603109225031092240375
:1008A0000F91089588E193E0BACF1092D70381E0C9
:1008B0008093D5031092D40361E084E153D261E0C8
:1008C00085E150D2E9EBF0E080818E7F80838081EA
:1008D0008D7F808388E48093B80085E48093BC009A
:1008E0000895413208F03FC09091D7039111FCCF99
:1008F00091E09093D7032093D5032FEF20936A03C1
:100900001092AF03240F2093AE039093D6039091DF
:10091000D603880F892B8093D6038091D40381302E
:1009200041F41092D4038091D6038093BB0085ECF0
:1009300001C085EE8093BC008091D7038130E1F344
:100940008091AF03841710F44091AF0320EB33E0A4
:10095000FB01D9018A2F821B841718F48D91819392
:10096000F9CF842F089580E008950F93413208F065
:1009700046C09091D7039111FCCF92E09093D7039A
:100980000093D5039FEF90936A031092AF034093B7
:10099000AE03FB0160EB73E0DB019A2F961B94170B
:1009A00018F491919D93F9CF1092D6039091D603AC
:1009B000880F892B8093D6038091D403813041F432
:1009C0001092D4038091D6038093BB0085EC01C0C4
:1009D00085EE8093BC00222321F08091D7038230E2
:1009E000E1F380916A038F3F61F080916A03803266
:1009F00051F080916A03803341F483E007C081E0C5
:100A000005C080E003C082E001C084E00F9108953A
:100A1000613298F42091D703243089F460938C03D9
:100A2000FC018EE893E0DC012A2F281B261718F41E
:100A300021912D93F9CF80E0089581E0089582E01F
:100A4000089585ED8093BC008091BC0084FDFCCFAF
:100A50001092D703089585EC8093BC001092D703C1
:100A600008951F920F920FB60F9211240BB60F929A
:100A70002F933F934F935F936F937F938F939F93A6
:100A8000AF93BF93EF93FF938091B900887F803637
:100A900009F49CC068F5883209F45BC090F4803199
:100AA00009F454C038F4882309F4F3C0883009F4F9
:100AB0004DC0F2C0883109F44CC0803209F45DC0E9
:100AC000EBC0803409F468C048F4803309F455C0A1
:100AD000883309F0E1C080936A03A7C0803509F428
:100AE0004FC0883509F45DC0883409F0D5C0D3C043
:100AF000883909F4C4C0A8F4883709F467C038F409
:100B0000883609F463C0803709F460C0C5C08838EE
:100B100009F4B5C0803909F45FC0803809F0BCC061
:100B20005BC0803B09F483C038F4803A09F466C0A6
:100B3000883A09F47CC0B0C0803C09F4A4C0883C69
:100B400009F4A1C0883B09F487C0A6C08091D603F0
:100B500010C09091AF038091AE03981770F5E091AB
:100B6000AF0381E08E0F8093AF03F0E0E055FC4FC0
:100B700080818093BB0085EC83C080936A038BC027
:100B8000E091AF0381E08E0F8093AF038091BB00B3
:100B9000F0E0E055FC4F80839091AF038091AE036D
:100BA0006BC0E091AF0381E08E0F8093AF03809123
:100BB000BB00F0E0E055FC4F80838091D5038111AC
:100BC0006AC081E08093D40384EA5EC083E08093AE
:100BD000D70310926B03CFCF80916B03803208F064
:100BE0004EC0E0916B0381E08E0F80936B03809188
:100BF000BB00F0E0E459FC4F8083BDCF80916B03D4
:100C0000803230F4E0916B03F0E0E459FC4F108245
:100C100018DF60916B0370E0E091D003F091D10395
:100C20008CE693E0199510926B0315DF35C084E0D4
:100C30008093D70310928D0310928C03E091D2031E
:100C4000F091D303199580918C03811105C081E047
:100C500080938C0310928E03E0918D0381E08E0FC0
:100C600080938D03F0E0E257FC4F80818093BB00BE
:100C700090918D0380918C03981708F47CCF85E8C0
:100C80008093BC0009C085EC8093BC001092D70310
:100C900003C010926A03D5DEFF91EF91BF91AF912F
:100CA0009F918F917F916F915F914F913F912F9184
:100CB0000F900BBE0F900FBE0F901F90189590E0F5
:100CC000FC013197E231F10508F04BC0EE58FF4FBF
:100CD000C2C3809180008F7703C0809180008F7D98
:100CE00080938000089580918000877FF9CF84B53C
:100CF0008F7702C084B58F7D84BD08958091B00048
:100D00008F7703C08091B0008F7D8093B0000895ED
:100D1000809190008F7707C0809190008F7D03C0F5
:100D200080919000877F8093900008958091A0002B
:100D30008F7707C08091A0008F7D03C08091A000B5
:100D4000877F8093A0000895809120018F7707C04E
:100D5000809120018F7D03C080912001877F809347
:100D6000200108950F931F93CF93DF931F92CDB768
:100D7000DEB7282F30E0F901E85FFE4F8491F901DA
:100D8000E25BFE4F1491F901EC56FE4F04910023F3
:100D9000C1F0882319F0698392DF6981E02FF0E0C8
:100DA000EE0FFF1FE652FE4FA591B4919FB7F89446
:100DB0008C91611103C01095812301C0812B8C930C
:100DC0009FBF0F90DF91CF911F910F910895FC016C
:100DD000818D228D90E0805C9F4F821B91098F73E3
:100DE00099270895FC01918D828D981731F0828D9D
:100DF000E80FF11D858D90E008958FEF9FEF089526
:100E0000FC01918D828D981761F0828DDF01A80F12
:100E1000B11D5D968C91928D9F5F9F73928F90E034
:100E200008958FEF9FEF089585EB98E0892B39F0B7
:100E300080E090E0892B19F098D1811125C080E0E5
:100E400090E0892B41F080E090E0892B21F00E9416
:100E5000000081111CC080E090E0892B41F080E00F
:100E600090E0892B21F00E940000811113C080E0E6
:100E700090E0892BA1F080E090E0892B81F00E9426
:100E8000000081110AC008950E940000D8CF0E947E
:100E90000000E1CF0E940000EACF0C94000008950A
:100EA000FC01848DDF01A80FB11DA35ABF4F2C9107
:100EB000848D90E001968F739927848FA689B789D6
:100EC0002C93A089B1898C9180648C93938D848DAF
:100ED000981306C00288F389E02D80818F7D80837E
:100EE0000895CF93DF93EC01888D8823C1F0EA89C0
:100EF000FB89808185FD05C0A889B9898C9186FD13
:100F00000EC00FB607FCF5CF808185FFF2CFA88910
:100F1000B9898C9185FFEDCFCE01C2DFE8CFDF919B
:100F2000CF910895CF92DF92FF920F931F93CF93AB
:100F3000DF931F92CDB7DEB76C0181E0D6015896E2
:100F40008C9358975B969C915B975C968C915C9781
:100F5000981307C05096ED91FC915197808185FDC3
:100F60002DC0F601038D10E00F5F1F4F0F73112787
:100F7000F02EF601848DF81210C00FB607FCF9CFE1
:100F8000D6015096ED91FC915197808185FFF1CF6C
:100F9000C601698385DF6981ECCF838DE80FF11D80
:100FA000E35AFF4F6083D6015B960C935B97529692
:100FB000ED91FC915397808180620CC0D6015696CA
:100FC000ED91FC91579760835096ED91FC9151976C
:100FD00080818064808381E090E00F90DF91CF91E9
:100FE0001F910F91FF90DF90CF900895BF92CF9205
:100FF000DF92EF92FF92CF93DF93EC016A017B01C6
:10100000B22EE889F98982E08083411581EE580784
:101010006105710599F060E079E08DE390E0A7014A
:101020009601F7D12150310941095109569547954B
:1010300037952795211580E1380790F0E889F989DF
:10104000108260E874E88EE190E0A7019601E1D19A
:1010500021503109410951095695479537952795F2
:10106000EC85FD853083EE85FF852083188EEC8925
:10107000FD89B082EA89FB89808180618083EA8969
:10108000FB89808188608083EA89FB898081806810
:101090008083EA89FB8980818F7D8083DF91CF9176
:1010A000FF90EF90DF90CF90BF9008951F920F9226
:1010B0000FB60F9211240BB60F922F938F939F931D
:1010C000EF93FF93E091E803F091E9038081E091D1
:1010D000EE03F091EF0382FD12C090818091F10345
:1010E0008F5F8F732091F203821751F0E091F1032B
:1010F000F0E0E852FC4F958F8093F10301C08081AE
:10110000FF91EF919F918F912F910F900BBE0F90B8
:101110000FBE0F901F9018951F920F920FB60F924F
:1011200011240BB60F922F933F934F935F936F93BE
:101130007F938F939F93AF93BF93EF93FF9388ED2C
:1011400093E0AEDEFF91EF91BF91AF919F918F91B0
:101150007F916F915F914F913F912F910F900BBEB7
:101160000F900FBE0F901F90189588ED93E02FDE23
:1011700021E0892B09F420E0822F08951092DB03EF
:101180001092DA0388EE93E0A0E0B0E08093DC03F5
:101190009093DD03A093DE03B093DF0383E792E037
:1011A0009093D9038093D80385EC90E09093E50366
:1011B0008093E40384EC90E09093E7038093E6034C
:1011C00080EC90E09093E9038093E80381EC90E059
:1011D0009093EB038093EA0382EC90E09093ED030D
:1011E0008093EC0386EC90E09093EF038093EE0302
:1011F0001092F1031092F2031092F3031092F40391
:1012000008950895A4D0FDDF45DAC4E1D7E085D97B
:101210002097E9F309DEFBCFCF92DF92EF92FF92A6
:101220000F931F93CF93DF936C017A01EB01E60ECE
:10123000F71E00E010E0CE15DF0561F06991D601E0
:10124000ED91FC910190F081E02DC6011995080FF8
:10125000191FF1CFC801DF91CF911F910F91FF901E
:10126000EF90DF90CF9008956115710581F0DB015B
:101270000D900020E9F7AD0141505109461B570B75
:10128000DC01ED91FC910280F381E02D199480E066
:1012900090E008956FE772E0E7CF0F931F93CF932D
:1012A000DF93EC01E1DF8C01CE01F4DF800F911FB1
:1012B000DF91CF911F910F9108951F920F920FB65A
:1012C0000F9211242F933F938F939F93AF93BF93CC
:1012D0008091760490917704A0917804B09179047C
:1012E0003091750423E0230F2D3720F40196A11DC2
:1012F000B11D05C026E8230F0296A11DB11D209344
:1013000075048093760490937704A0937804B09347
:10131000790480917A0490917B04A0917C04B0912F
:101320007D040196A11DB11D80937A0490937B04E6
:10133000A0937C04B0937D04BF91AF919F918F9156
:101340003F912F910F900FBE0F901F90189578949A
:1013500084B5826084BD84B5816084BD85B58260BA
:1013600085BD85B5816085BDEEE6F0E08081816058
:101370008083E1E8F0E01082808182608083808158
:1013800081608083E0E8F0E0808181608083E1EB30
:10139000F0E0808184608083E0EBF0E08081816018
:1013A0008083E1E9F0E080818260808380818160D8
:1013B0008083E0E9F0E0808181608083E1EAF0E011
:1013C000808182608083808181608083E0EAF0E0B8
:1013D000808181608083E1E2F1E0808182608083AE
:1013E000808181608083E0E2F1E0808181608083A0
:1013F000EAE7F0E08081846080838081826080837E
:101400008081816080838081806880831092C100A8
:101410000895A1E21A2EAA1BBB1BFD010DC0AA1F35
:10142000BB1FEE1FFF1FA217B307E407F50720F04D
:10143000A21BB30BE40BF50B661F771F881F991FC8
:101440001A9469F760957095809590959B01AC0111
:10145000BD01CF010895EE0FFF1F0590F491E02D1F
:0E14600019940790F691E02D1994F894FFCF9F
:10146E00616C6976650061646320696E6974206FD2
:10147E006B006D6F746F7220696E6974206F6B00F4
:10148E00696D7520696E6974206F6B0063746320DB
:10149E0074696D657220696E6974206F6B00737369
:1014AE006420696E6974206F6B00696E7465677273
:1014BE0061746F72206F6666736574206F6B0000C7
:1014CE00000000E103B5038A039203A503B40300F1
:1014DE0000000092070C09E7060007F20671070DDF
:1014EE000A006E616E00696E66006F7666002E00F1
:00000001FF
