:1000000073C000009FC000009DC000009BC00000A6
:1000100099C0000097C0000095C0000093C0000088
:1000200091C000008FC000008DC000008BC0000098
:1000300089C0000087C0000085C0000083C00000A8
:1000400081C000007FC000007DC000007BC00000B8
:1000500079C0000077C0000075C00000A6C600008F
:1000600071C0000024C5000058C500006BC000002E
:1000700069C000009DC0000065C0000063C00000B2
:1000800061C000005FC000005DC000005BC00000F8
:1000900059C0000057C0000055C000006BC20000EE
:1000A00051C000004FC000004DC000004BC0000018
:1000B00049C0000047C0000045C0000043C0000028
:1000C00041C000003FC000003DC000003BC0000038
:1000D00039C0000037C0000035C0000033C0000048
:1000E00031C000008E02BF0511241FBECFEFD1E248
:1000F000DEBFCDBF00E00CBF12E0A0E0B2E0E0EA5E
:10010000FFE000E00BBF02C007900D92A63AB107D6
:10011000D9F724E0A6EAB2E001C01D92AD30B207E3
:10012000E1F710E0C8EED0E000E005C02297010939
:10013000FE010BBF1BD7C43ED10780E00807B1F713
:1001400062D52CC75DCFEAE7F0E010828081846041
:100150008083808180688083ACE7B0E01C928C91C2
:1001600080648C93808180648083089590917C006A
:10017000907F90937C0090917C00982B90937C00D2
:1001800080917A00806480937A0080917A00806107
:1001900080937A0080917A0084FDFCCF80917A0070
:1001A000806180937A008091780090917900089521
:1001B0001F920F920FB60F9211240BB60F928F93CE
:1001C000EF93FF93EAE7F0E0808180648083FF9102
:1001D000EF918F910F900BBE0F900FBE0F901F905D
:1001E0001895482F63E070E088E290E0A6D08FE198
:1001F00093E00197F1F700C0000041E062E070E099
:1002000088E290E09AD08FE193E00197F1F700C087
:10021000000040E062E070E088E290E08EC0FF9273
:100220000F931F93CF93DF938C0140E064E070E065
:1002300088E290E082D085E08A95F1F7000081E0C5
:10024000D0DFE80183E0F82E07E010E0888190E03D
:10025000002E02C0959587950A94E2F78170C1DF60
:100260000150110998F7FA942196F110EDCFCCE0E6
:10027000D0E080E0B6DF2197E1F741E064E070E094
:1002800088E290E0DF91CF911F910F91FF9055C0D0
:100290000F931F93CF93DF9300D0CDB7DEB79C01B0
:1002A00018161906ECF464E670E02BD6CB01EAE0F0
:1002B000F0E0BF0126D680509E4FDC018C918983EF
:1002C000C901BF011ED69C01CB01BF011AD68050C7
:1002D0009E4FFC0180818A83F901E050FE4F20C0CF
:1002E00000271127081B190B8D39FFEF9F0714F00A
:1002F00082E001C082E68983C90166EF7FEF01D603
:10030000CB012AE030E0B901FCD580509E4FDC01E2
:100310008C918A83C801B901F4D580509E4FFC01AD
:1003200080818B83CE0101967ADF0F900F900F9022
:10033000DF91CF911F910F910895FC01208181E001
:1003400090E0062E01C0880F0A94EAF7442319F0C2
:10035000282B20830895809582238083089526E0AA
:1003600040E051EE60E070E087E693E040D36BE060
:1003700072E087E693E092D48CE187B918B8E3DEA7
:1003800060E172E087E693E089C4E8E1F2E020E012
:1003900030E0408151814817590740F4F901EE0FD0
:1003A000FF1FE65EFD4F8081918108952E5F3F4FD4
:1003B00034962E32310569F787EE93E0089580E098
:1003C000D5DE9093A7028093A602DFDF61DF2FEFD7
:1003D00083EC99E0215080409040E1F700C000009C
:1003E0006091A6027091A7024AE050E087E693E090
:1003F000C8C48091D70290E02091D802821B910955
:1004000008952091D8028091D702281750F4E22F46
:10041000F0E0E752FD4F808190E02F5F2093D802FB
:1004200008958FEF9FEF0895E091D8028091D70251
:10043000E81730F4F0E0E752FD4F808190E0089536
:100440008FEF9FEF08950895CF92DF92EF92FF9282
:100450000F931F93CF93DF937C01CB018A012091EF
:10046000B402222389F0EB016B01C40ED51ECC151A
:10047000DD0561F06991D701ED91FC910190F0816A
:10048000E02DC7011995F3CF642F4BD0C801DF9140
:10049000CF911F910F91FF90EF90DF90CF90089533
:1004A000CF93DF931F92CDB7DEB769832091B4025B
:1004B0002223D1F02091B502203240F021E030E03B
:1004C000FC013383228380E090E014C08091B60267
:1004D000E82FF0E0E954FD4F998190838F5F80937E
:1004E000B6028093B50204C061E0CE01019619D036
:1004F00081E090E00F90DF91CF910895FC0113828D
:10050000128248EE53E060E070E0448355836683D6
:10051000778388E792E091838083089588EA92E068
:10052000EDCF613298F420916603243089F4609312
:100530001B03FC018DE193E0DC012A2F281B261709
:1005400018F421912D93F9CF80E0089581E008956A
:1005500082E0089585ED8093BC008091BC0084FD0D
:10056000FCCF10926603089585EC8093BC00109236
:10057000660308951F920F920FB60F9211240BB6C7
:100580000F922F933F934F935F936F937F938F932C
:100590009F93AF93BF93EF93FF938091B900887FB0
:1005A000803609F49CC068F5883209F45BC090F489
:1005B000803109F454C038F4882309F4F3C088303A
:1005C00009F44DC0F2C0883109F44CC0803209F4FE
:1005D0005DC0EBC0803409F468C048F4803309F48E
:1005E00055C0883309F0E1C08093F902A7C0803577
:1005F00009F44FC0883509F45DC0883409F0D5C0CE
:10060000D3C0883909F4C4C0A8F4883709F467C096
:1006100038F4883609F463C0803709F460C0C5C077
:10062000883809F4B5C0803909F45FC0803809F012
:10063000BCC05BC0803B09F483C038F4803A09F445
:1006400066C0883A09F47CC0B0C0803C09F4A4C0FC
:10065000883C09F4A1C0883B09F487C0A6C08091FA
:10066000650310C090913E0380913D03981770F58B
:10067000E0913E0381E08E0F80933E03F0E0E15C69
:10068000FC4F80818093BB0085EC83C08093F9028E
:100690008BC0E0913E0381E08E0F80933E038091FA
:1006A000BB00F0E0E15CFC4F808390913E038091C1
:1006B0003D036BC0E0913E0381E08E0F80933E03CB
:1006C0008091BB00F0E0E15CFC4F8083809164038B
:1006D00081116AC081E08093630384EA5EC083E095
:1006E000809366031092FA02CFCF8091FA02803293
:1006F00008F04EC0E091FA0281E08E0F8093FA027A
:100700008091BB00F0E0E550FD4F8083BDCF80912C
:10071000FA02803230F4E091FA02F0E0E550FD4F49
:10072000108218DF6091FA0270E0E0915F03F091AF
:1007300060038BEF92E019951092FA0215DF35C035
:1007400084E08093660310921C0310921B03E091D7
:100750006103F0916203199580911B03811105C01B
:1007600081E080931B0310921D03E0911C0381E044
:100770008E0F80931C03F0E0E35EFC4F808180933A
:10078000BB0090911C0380911B03981708F47CCF49
:1007900085E88093BC0009C085EC8093BC00109272
:1007A000660303C01092F902D5DEFF91EF91BF916D
:1007B000AF919F918F917F916F915F914F913F91F9
:1007C0002F910F900BBE0F900FBE0F901F9018959A
:1007D000FC01818D228D90E0805C9F4F821B9109EE
:1007E0008F7399270895FC01918D828D981731F0B0
:1007F000828DE80FF11D858D90E008958FEF9FEFBA
:100800000895FC01918D828D981761F0828DDF0132
:10081000A80FB11D5D968C91928D9F5F9F73928FF3
:1008200090E008958FEF9FEF089586EB95E0892B78
:1008300039F080E090E0892B19F098D1811125C022
:1008400080E090E0892B41F080E090E0892B21F05E
:100850000E94000081111CC080E090E0892B41F0D3
:1008600080E090E0892B21F00E940000811113C0EC
:1008700080E090E0892BA1F080E090E0892B81F06E
:100880000E94000081110AC008950E940000D8CF84
:100890000E940000E1CF0E940000EACF0C9400000B
:1008A0000895FC01848DDF01A80FB11DA35ABF4F2D
:1008B0002C91848D90E001968F739927848FA6895F
:1008C000B7892C93A089B1898C9180648C93938D86
:1008D000848D981306C00288F389E02D80818F7D76
:1008E00080830895CF93DF93EC01888D8823C1F036
:1008F000EA89FB89808185FD05C0A889B9898C9129
:1009000086FD0EC00FB607FCF5CF808185FFF2CFC4
:10091000A889B9898C9185FFEDCFCE01C2DFE8CFE0
:10092000DF91CF910895CF92DF92FF920F931F93A3
:10093000CF93DF931F92CDB7DEB76C0181E0D60174
:1009400058968C9358975B969C915B975C968C918C
:100950005C97981307C05096ED91FC915197808158
:1009600085FD2DC0F601038D10E00F5F1F4F0F7343
:100970001127F02EF601848DF81210C00FB607FC77
:10098000F9CFD6015096ED91FC915197808185FF6A
:10099000F1CFC601698385DF6981ECCF838DE80FD4
:1009A000F11DE35AFF4F6083D6015B960C935B9772
:1009B0005296ED91FC915397808180620CC0D601D4
:1009C0005696ED91FC91579760835096ED91FC916E
:1009D000519780818064808381E090E00F90DF9167
:1009E000CF911F910F91FF90DF90CF900895BF920C
:1009F000CF92DF92EF92FF92CF93DF93EC016A01E7
:100A00007B01B22EE889F98982E08083411581EE6D
:100A100058076105710599F060E079E08DE390E099
:100A2000A701960181D221503109410951095695FA
:100A3000479537952795211580E1380790F0E8898B
:100A4000F989108260E874E88EE190E0A7019601D0
:100A50006BD2215031094109510956954795379577
:100A60002795EC85FD853083EE85FF852083188EE4
:100A7000EC89FD89B082EA89FB898081806180836D
:100A8000EA89FB89808188608083EA89FB8980818B
:100A900080688083EA89FB8980818F7D8083DF91F4
:100AA000CF91FF90EF90DF90CF90BF9008951F926D
:100AB0000F920FB60F9211240BB60F922F938F93B4
:100AC0009F93EF93FF93E0917703F09178038081F8
:100AD000E0917D03F0917E0382FD12C090818091B0
:100AE00080038F5F8F7320918103821751F0E09113
:100AF0008003F0E0E959FC4F958F8093800301C09B
:100B00008081FF91EF919F918F912F910F900BBE5C
:100B10000F900FBE0F901F9018951F920F920FB657
:100B20000F9211240BB60F922F933F934F935F9325
:100B30006F937F938F939F93AF93BF93EF93FF93A5
:100B400087E693E0AEDEFF91EF91BF91AF919F9169
:100B50008F917F916F915F914F913F912F910F9066
:100B60000BBE0F900FBE0F901F90189587E693E075
:100B70002FDE21E0892B09F420E0822F08951092C6
:100B80006A031092690388EE93E0A0E0B0E08093DE
:100B90006B0390936C03A0936D03B0936E0388E88E
:100BA00092E0909368038093670385EC90E09093C4
:100BB00074038093730384EC90E0909376038093A6
:100BC000750380EC90E0909378038093770381EC39
:100BD00090E090937A038093790382EC90E0909375
:100BE0007C0380937B0386EC90E090937E0380935C
:100BF0007D03109280031092810310928203109261
:100C00008303089508951BD1FDDFA9DBC5E1D4E07E
:100C1000D6DB2097E9F309DEFBCFCF92DF92EF928C
:100C2000FF920F931F93CF93DF936C017A01EB0137
:100C3000E60EF71E00E010E0CE15DF0561F06991C9
:100C4000D601ED91FC910190F081E02DC60119953E
:100C5000080F191FF1CFC801DF91CF911F910F919C
:100C6000FF90EF90DF90CF9008956115710581F0AE
:100C7000DB010D900020E9F7AD0141505109461B01
:100C8000570BDC01ED91FC910280F381E02D19946A
:100C900080E090E0089564E972E0E7CF0F931F933E
:100CA000CF93DF93EC01E1DF8C01CE01F4DF800F05
:100CB000911FDF91CF911F910F9108958F929F9275
:100CC000AF92BF92CF92DF92EF92FF920F931F935A
:100CD000CF93DF93CDB7DEB7A1970FB6F894DEBF01
:100CE0000FBECDBF7C01C42EE52FCB01D22E19A2A1
:100CF00021E02D1510F02AE0D22E8E010F5D1F4F3E
:100D00008D2C912CA12CB12C6C2D7E2FA501940142
:100D10000BD18C2DD29E80191124015011098A30DB
:100D200014F4805D01C0895CF801808321153105D0
:100D30004105510521F0C22EE32FCA01E5CFB801CC
:100D4000C70193DFA1960FB6F894DEBF0FBECDBFEB
:100D5000DF91CF911F910F91FF90EF90DF90CF9097
:100D6000BF90AF909F908F9008952115310541F469
:100D7000DC01ED91FC910190F081E02D642F19943C
:100D80009DCF0F931F93CF93DF93EC019A01AB019B
:100D900060E070E0EADF8C01CE017DDF800F911F03
:100DA000DF91CF911F910F9108951F920F920FB66F
:100DB0000F9211242F933F938F939F93AF93BF93E1
:100DC0008091050490910604A0910704B091080455
:100DD0003091040423E0230F2D3720F40196A11D48
:100DE000B11D05C026E8230F0296A11DB11D209359
:100DF00004048093050490930604A0930704B09321
:100E000008048091090490910A04A0910B04B09108
:100E10000C040196A11DB11D8093090490930A044E
:100E2000A0930B04B0930C04BF91AF919F918F914D
:100E30003F912F910F900FBE0F901F9018957894AF
:100E400084B5826084BD84B5816084BD85B58260CF
:100E500085BD85B5816085BDEEE6F0E0808181606D
:100E60008083E1E8F0E0108280818260808380816D
:100E700081608083E0E8F0E0808181608083E1EB45
:100E8000F0E0808184608083E0EBF0E0808181602D
:100E90008083E1E9F0E080818260808380818160ED
:100EA0008083E0E9F0E0808181608083E1EAF0E026
:100EB000808182608083808181608083E0EAF0E0CD
:100EC000808181608083E1E2F1E0808182608083C3
:100ED000808181608083E0E2F1E0808181608083B5
:100EE000EAE7F0E080818460808380818260808393
:100EF0008081816080838081806880831092C100BE
:100F0000089597FB072E16F4009406D077FD08D0BD
:100F100031D007FC05D03EF4909581959F4F089500
:100F2000709561957F4F0895A1E21A2EAA1BBB1BF5
:100F3000FD010DC0AA1FBB1FEE1FFF1FA217B307A5
:100F4000E407F50720F0A21BB30BE40BF50B661FBB
:100F5000771F881F991F1A9469F76095709580957F
:100F600090959B01AC01BD01CF0108950790F691CA
:100F7000E02D1994AA1BBB1B51E107C0AA1FBB1F80
:100F8000A617B70710F0A61BB70B881F991F5A9515
:100F9000A9F780959095BC01CD010895F894FFCFF5
:100FA000FC60DAF266B6BEE0FEF6027465737400A9
:100FB000696E6974206F6B0058020300F40104002D
:100FC000BC0105007C0106004F0107002C01080050
:100FD00013010900FA000A00F0000B00DA000C000F
:100FE000CD000D00BE000E00B4000F00AC001000DC
:100FF000A30011009C001200960013008F00140043
:101000008E0015008D0016008C0017008700180058
:10101000820019000000000050022402F9010102C0
:10102000140223020000000093040D06E8030104EB
:10103000F30372040D0A006E616E00696E66006F44
:061040007666002E0000A0
:00000001FF
