:1000000073C000009FC000009DC000009BC00000A6
:1000100099C0000097C0000095C0000093C0000088
:1000200091C000008FC000008DC000008BC0000098
:1000300089C0000087C0000085C0000083C00000A8
:1000400081C000007FC000007DC000007BC00000B8
:1000500079C0000077C0000075C00000A2C6000093
:1000600071C0000020C5000054C500006BC0000036
:1000700069C000009DC0000065C0000063C00000B2
:1000800061C000005FC000005DC000005BC00000F8
:1000900059C0000057C0000055C0000067C20000F2
:1000A00051C000004FC000004DC000004BC0000018
:1000B00049C0000047C0000045C0000043C0000028
:1000C00041C000003FC000003DC000003BC0000038
:1000D00039C0000037C0000035C0000033C0000048
:1000E00031C000008A02BB0511241FBECFEFD1E250
:1000F000DEBFCDBF00E00CBF12E0A0E0B2E0E8E957
:10010000FFE000E00BBF02C007900D92AA38B107D4
:10011000D9F723E0AAE8B2E001C01D92A13FB207DF
:10012000E1F710E0C8EED0E000E005C02297010939
:10013000FE010BBF17D7C43ED10780E00807B1F717
:100140005ED528C75DCFEAE7F0E010828081846049
:100150008083808180688083ACE7B0E01C928C91C2
:1001600080648C93808180648083089590917C006A
:10017000907F90937C0090917C00982B90937C00D2
:1001800080917A00806480937A0080917A00806107
:1001900080937A0080917A0084FDFCCF80917A0070
:1001A000806180937A008091780090917900089521
:1001B0001F920F920FB60F9211240BB60F928F93CE
:1001C000EF93FF93EAE7F0E0808180648083FF9102
:1001D000EF918F910F900BBE0F900FBE0F901F905D
:1001E0001895482F63E070E088E290E0A6D08FE198
:1001F00093E00197F1F700C0000041E062E070E099
:1002000088E290E09AD08FE193E00197F1F700C087
:10021000000040E062E070E088E290E08EC0FF9273
:100220000F931F93CF93DF938C0140E064E070E065
:1002300088E290E082D085E08A95F1F7000081E0C5
:10024000D0DFE80183E0F82E07E010E0888190E03D
:10025000002E02C0959587950A94E2F78170C1DF60
:100260000150110998F7FA942196F110EDCFCCE0E6
:10027000D0E080E0B6DF2197E1F741E064E070E094
:1002800088E290E0DF91CF911F910F91FF9055C0D0
:100290000F931F93CF93DF9300D0CDB7DEB79C01B0
:1002A00018161906ECF464E670E027D6CB01EAE0F4
:1002B000F0E0BF0122D680509E4FDC018C918983F3
:1002C000C901BF011AD69C01CB01BF0116D68050CF
:1002D0009E4FFC0180818A83F901E050FE4F20C0CF
:1002E00000271127081B190B8D39FFEF9F0714F00A
:1002F00082E001C082E68983C90166EF7FEFFDD508
:10030000CB012AE030E0B901F8D580509E4FDC01E6
:100310008C918A83C801B901F0D580509E4FFC01B1
:1003200080818B83CE0101967ADF0F900F900F9022
:10033000DF91CF911F910F910895FC01208181E001
:1003400090E0062E01C0880F0A94EAF7442319F0C2
:10035000282B20830895809582238083089526E0AA
:1003600040E051EE60E070E08BE493E03CD36BE062
:1003700072E08BE493E08ED48CE187B918B8E3DEA9
:1003800060E172E08BE493E085C448E152E020E054
:1003900030E04C5F5F4FFA013497608171816817DC
:1003A000790740F4F901EE0FFF1FE65EFD4F8081F3
:1003B000918108952E5F3F4FECCF80E0D7DE909380
:1003C0008B0280938A0225E0AC01249FC001259F07
:1003D000900D1124DADF5CDF60918A0270918B024C
:1003E0004AE050E08BE493E0C8C48091BB0290E007
:1003F0002091BC02821B910908952091BC0280913A
:10040000BB02281750F4E22FF0E0E354FD4F808147
:1004100090E02F5F2093BC0208958FEF9FEF089527
:10042000E091BC028091BB02E81730F4F0E0E354A5
:10043000FD4F808190E008958FEF9FEF089508951C
:10044000CF92DF92EF92FF920F931F93CF93DF93A0
:100450007C01CB018A0120919802222389F0EB01D3
:100460006B01C40ED51ECC15DD0561F06991D70175
:10047000ED91FC910190F081E02DC7011995F3CF2A
:10048000642F4BD0C801DF91CF911F910F91FF9046
:10049000EF90DF90CF900895CF93DF931F92CDB769
:1004A000DEB76983209198022223D1F0209199022E
:1004B000203240F021E030E0FC013383228380E0F1
:1004C00090E014C080919A02E82FF0E0E556FD4FCD
:1004D000998190838F5F80939A028093990204C0E0
:1004E00061E0CE01019619D081E090E00F90DF919C
:1004F000CF910895FC011382128248EE53E060E030
:1005000070E044835583668377838CE592E0918322
:10051000808308958CE892E0EDCF613298F42091C9
:100520004A03243089F46093FF02FC0181E093E0E8
:10053000DC012A2F281B261718F421912D93F9CFBF
:1005400080E0089581E0089582E0089585ED80932C
:10055000BC008091BC0084FDFCCF10924A0308953A
:1005600085EC8093BC0010924A0308951F920F926D
:100570000FB60F9211240BB60F922F933F934F9308
:100580005F936F937F938F939F93AF93BF93EF93FB
:10059000FF938091B900887F803609F49CC068F58C
:1005A000883209F45BC090F4803109F454C038F407
:1005B000882309F4F3C0883009F44DC0F2C08831B3
:1005C00009F44CC0803209F45DC0EBC0803409F4FA
:1005D00068C048F4803309F455C0883309F0E1C09D
:1005E0008093DD02A7C0803509F44FC0883509F437
:1005F0005DC0883409F0D5C0D3C0883909F4C4C0BF
:10060000A8F4883709F467C038F4883609F463C061
:10061000803709F460C0C5C0883809F4B5C0803996
:1006200009F45FC0803809F0BCC05BC0803B09F4AE
:1006300083C038F4803A09F466C0883A09F47CC073
:10064000B0C0803C09F4A4C0883C09F4A1C0883B38
:1006500009F487C0A6C08091490310C0909122037D
:1006600080912103981770F5E091220381E08E0FAD
:1006700080932203F0E0ED5DFC4F80818093BB000E
:1006800085EC83C08093DD028BC0E091220381E082
:100690008E0F809322038091BB00F0E0ED5DFC4F54
:1006A000808390912203809121036BC0E09122030B
:1006B00081E08E0F809322038091BB00F0E0ED5D1E
:1006C000FC4F80838091480381116AC081E0809350
:1006D000470384EA5EC083E080934A031092DE02FF
:1006E000CFCF8091DE02803208F04EC0E091DE0272
:1006F00081E08E0F8093DE028091BB00F0E0E1523A
:10070000FD4F8083BDCF8091DE02803230F4E091D6
:10071000DE02F0E0E152FD4F108218DF6091DE0250
:1007200070E0E0914303F09144038FED92E019955E
:100730001092DE0215DF35C084E080934A031092E8
:1007400000031092FF02E0914503F09146031995D2
:100750008091FF02811105C081E08093FF02109219
:100760000103E091000381E08E0F80930003F0E02D
:10077000EF5FFC4F80818093BB00909100038091DC
:10078000FF02981708F47CCF85E88093BC0009C06D
:1007900085EC8093BC0010924A0303C01092DD02E6
:1007A000D5DEFF91EF91BF91AF919F918F917F9196
:1007B0006F915F914F913F912F910F900BBE0F90D2
:1007C0000FBE0F901F901895FC01818D228D90E037
:1007D000805C9F4F821B91098F7399270895FC01BC
:1007E000918D828D981731F0828DE80FF11D858DE6
:1007F00090E008958FEF9FEF0895FC01918D828D19
:10080000981761F0828DDF01A80FB11D5D968C9164
:10081000928D9F5F9F73928F90E008958FEF9FEF6F
:10082000089582EB95E0892B39F080E090E0892BE8
:1008300019F098D1811125C080E090E0892B41F01A
:1008400080E090E0892B21F00E94000081111CC003
:1008500080E090E0892B41F080E090E0892B21F04E
:100860000E940000811113C080E090E0892BA1F06C
:1008700080E090E0892B81F00E94000081110AC085
:1008800008950E940000D8CF0E940000E1CF0E948E
:100890000000EACF0C9400000895FC01848DDF0174
:1008A000A80FB11DA35ABF4F2C91848D90E00196E3
:1008B0008F739927848FA689B7892C93A089B189D2
:1008C0008C9180648C93938D848D981306C00288DC
:1008D000F389E02D80818F7D80830895CF93DF930E
:1008E000EC01888D8823C1F0EA89FB89808185FD30
:1008F00005C0A889B9898C9186FD0EC00FB607FC8A
:10090000F5CF808185FFF2CFA889B9898C9185FFC9
:10091000EDCFCE01C2DFE8CFDF91CF910895CF9226
:10092000DF92FF920F931F93CF93DF931F92CDB768
:10093000DEB76C0181E0D60158968C9358975B9690
:100940009C915B975C968C915C97981307C050962E
:10095000ED91FC915197808185FD2DC0F601038DAD
:1009600010E00F5F1F4F0F731127F02EF601848DDB
:10097000F81210C00FB607FCF9CFD6015096ED91D2
:10098000FC915197808185FFF1CFC601698385DF96
:100990006981ECCF838DE80FF11DE35AFF4F60832F
:1009A000D6015B960C935B975296ED91FC91539711
:1009B000808180620CC0D6015696ED91FC915797CC
:1009C00060835096ED91FC91519780818064808383
:1009D00081E090E00F90DF91CF911F910F91FF90F8
:1009E000DF90CF900895BF92CF92DF92EF92FF9267
:1009F000CF93DF93EC016A017B01B22EE889F9897C
:100A000082E08083411581EE58076105710599F0F8
:100A100060E079E08DE390E0A701960181D221505A
:100A20003109410951095695479537952795211563
:100A300080E1380790F0E889F989108260E874E86D
:100A40008EE190E0A70196016BD221503109410956
:100A500051095695479537952795EC85FD85308347
:100A6000EE85FF852083188EEC89FD89B082EA89A6
:100A7000FB89808180618083EA89FB89808188602D
:100A80008083EA89FB89808180688083EA89FB8989
:100A900080818F7D8083DF91CF91FF90EF90DF90F9
:100AA000CF90BF9008951F920F920FB60F9211240E
:100AB0000BB60F922F938F939F93EF93FF93E09139
:100AC0005B03F0915C038081E0916103F09162032C
:100AD00082FD12C09081809164038F5F8F7320919B
:100AE0006503821751F0E0916403F0E0E55BFC4F91
:100AF000958F8093640301C08081FF91EF919F9156
:100B00008F912F910F900BBE0F900FBE0F901F90E3
:100B100018951F920F920FB60F9211240BB60F92D9
:100B20002F933F934F935F936F937F938F939F93F5
:100B3000AF93BF93EF93FF938BE493E0AEDEFF910F
:100B4000EF91BF91AF919F918F917F916F915F9145
:100B50004F913F912F910F900BBE0F900FBE0F90B2
:100B60001F9018958BE493E02FDE21E0892B09F488
:100B700020E0822F089510924E0310924D0388EECC
:100B800093E0A0E0B0E080934F0390935003A093D4
:100B90005103B09352038CE692E090934C03809300
:100BA0004B0385EC90E0909358038093570384ECBB
:100BB00090E090935A038093590380EC90E09093D7
:100BC0005C0380935B0381EC90E090935E038093E1
:100BD0005D0382EC90E09093600380935F0386EC6A
:100BE00090E09093620380936103109264031092EB
:100BF00065031092660310926703089508951BD150
:100C0000FDDFADDBC1E1D4E0D8DB2097E9F309DEFD
:100C1000FBCFCF92DF92EF92FF920F931F93CF9370
:100C2000DF936C017A01EB01E60EF71E00E010E0A5
:100C3000CE15DF0561F06991D601ED91FC9101902F
:100C4000F081E02DC6011995080F191FF1CFC801D9
:100C5000DF91CF911F910F91FF90EF90DF90CF9098
:100C600008956115710581F0DB010D900020E9F711
:100C7000AD0141505109461B570BDC01ED91FC9130
:100C80000280F381E02D199480E090E0089568E7F8
:100C900072E0E7CF0F931F93CF93DF93EC01E1DF77
:100CA0008C01CE01F4DF800F911FDF91CF911F9156
:100CB0000F9108958F929F92AF92BF92CF92DF9241
:100CC000EF92FF920F931F93CF93DF93CDB7DEB7D1
:100CD000A1970FB6F894DEBF0FBECDBF7C01C42E26
:100CE000E52FCB01D22E19A221E02D1510F02AE01C
:100CF000D22E8E010F5D1F4F8D2C912CA12CB12C6B
:100D00006C2D7E2FA50194010BD18C2DD29E8019C4
:100D10001124015011098A3014F4805D01C0895CEE
:100D2000F8018083211531054105510521F0C22EBE
:100D3000E32FCA01E5CFB801C70193DFA1960FB633
:100D4000F894DEBF0FBECDBFDF91CF911F910F9101
:100D5000FF90EF90DF90CF90BF90AF909F908F90DB
:100D600008952115310541F4DC01ED91FC910190CC
:100D7000F081E02D642F19949DCF0F931F93CF9393
:100D8000DF93EC019A01AB0160E070E0EADF8C01D7
:100D9000CE017DDF800F911FDF91CF911F910F91C9
:100DA00008951F920F920FB60F9211242F933F9325
:100DB0008F939F93AF93BF938091E9039091EA0340
:100DC000A091EB03B091EC033091E80323E0230FF3
:100DD0002D3720F40196A11DB11D05C026E8230F73
:100DE0000296A11DB11D2093E8038093E90390931F
:100DF000EA03A093EB03B093EC038091ED03909191
:100E0000EE03A091EF03B091F0030196A11DB11D77
:100E10008093ED039093EE03A093EF03B093F00360
:100E2000BF91AF919F918F913F912F910F900FBEE6
:100E30000F901F901895789484B5826084BD84B516
:100E4000816084BD85B5826085BD85B5816085BDC5
:100E5000EEE6F0E0808181608083E1E8F0E01082DE
:100E6000808182608083808181608083E0E8F0E01F
:100E7000808181608083E1EBF0E080818460808309
:100E8000E0EBF0E0808181608083E1E9F0E0808147
:100E900082608083808181608083E0E9F0E08081EE
:100EA00081608083E1EAF0E08081826080838081DC
:100EB00081608083E0EAF0E0808181608083E1E20C
:100EC000F1E0808182608083808181608083E0E2C4
:100ED000F1E0808181608083EAE7F0E080818460D6
:100EE0008083808182608083808181608083808133
:100EF000806880831092C100089597FB072E16F436
:100F0000009406D077FD08D031D007FC05D03EF420
:100F1000909581959F4F0895709561957F4F0895A5
:100F2000A1E21A2EAA1BBB1BFD010DC0AA1FBB1FED
:100F3000EE1FFF1FA217B307E407F50720F0A21B5F
:100F4000B30BE40BF50B661F771F881F991F1A94CC
:100F500069F760957095809590959B01AC01BD01F6
:100F6000CF0108950790F691E02D1994AA1BBB1BA1
:100F700051E107C0AA1FBB1FA617B70710F0A61B99
:100F8000B70B881F991F5A95A9F780959095BC01BA
:080F9000CD010895F894FFCF94
:100F9800FC60DAF266B6BEE0FEF6027465737400B1
:100FA800696E6974206F6B00C4090A00DE080B00C3
:100FB80016080C00C6070D004E070E00B8060F00F5
:100FC80036061000F0051100B405120028051300BC
:100FD800CE0414009C0415006A04160024041700AB
:100FE800FC031800C0031900000000004C02200296
:100FF800F501FD0110021F02000000008F04090620
:10100800E403FD03EF036E040D0A006E616E0069D0
:0A1018006E66006F7666002E000081
:00000001FF
