:1000000073C00000A2C00000A0C00000F7C1000043
:100010009CC000009AC0000098C0000096C000007C
:1000200094C0000092C0000013C200008EC0000007
:100030008CC000008AC0000088C0000086C000009C
:1000400084C0000082C0000080C000007EC00000AC
:100050007CC000007AC0000078C0000063C70000C8
:1000600074C000000C94010A0C94370A6EC00000A2
:100070006CC000006AC0000068C0000066C00000DC
:1000800064C0000062C0000060C000005EC00000EC
:100090005CC000005AC0000058C0000056C00000FC
:1000A00054C0000052C0000050C000004EC000000C
:1000B0004CC000004AC0000048C0000046C000001C
:1000C00044C0000042C0000040C000003EC000002C
:1000D0003CC000003AC0000038C0000036C000003C
:1000E00034C000005202690A11241FBECFEFD1E2D2
:1000F000DEBFCDBF00E00CBF13E0A0E0B2E0EAE657
:10010000F2E200E00BBF02C007900D92A436B107E7
:10011000D9F724E0A4E6B3E001C01D92A838B207E5
:10012000E1F710E0C8EED0E000E006C02297010938
:10013000FE010BBF0E94E50FC43ED10780E0080717
:10014000A9F70E94790D0C9433115ACF8F929F9288
:10015000AF92BF92CF92DF92EF92FF921F93CF9315
:10016000DF93EC016A017B01122F84E693E0FFD15B
:1001700046015701861A970AA80AB90ACE01AA278A
:1001800097FDA095BA2F88169906AA06BB0608F413
:100190005DC088ED93E0D8D32FEF87EA91E6215038
:1001A00080409040E1F700C00000112319F066E0A4
:1001B00072E002C06BE172E087EE93E00E94F50A04
:1001C0006FE272E087EE93E00E94EA0A2AE030E0F4
:1001D000B701A60187EE93E00E94AA0B69E372E0E3
:1001E00087EE93E00E94EA0A84E693E0C0D1AB0177
:1001F000BC012AE030E087EE93E00E94AA0B68E49D
:1002000072E087EE93E00E94EA0A4AE050E0BE0105
:1002100087EE93E00E94A30B63E572E087EE93E024
:100220000E94EA0A8EE693E0F9D340E050E0BA017A
:1002300084E693E0DF91CF911F91FF90EF90DF90E4
:10024000CF90BF90AF909F908F907CC1DF91CF9166
:100250001F91FF90EF90DF90CF90BF90AF909F9055
:100260008F900895AF92BF92CF92DF92EF92FF925C
:100270000F931F93CF93DF93EC0148E750E060E0CA
:100280008EE693E00AD562E08EE693E0BAD36B0186
:100290007C0140E062E08EE693E05AD45C0140E0ED
:1002A00061E08EE693E054D48C011C161D062CF000
:1002B000662777276A197B0901C0B50188ED93E0AD
:1002C00029D31C161D062CF066277727601B710B9F
:1002D00001C0B80188ED93E012D321E0B701A60177
:1002E000CE01DF91CF911F910F91FF90EF90DF90A2
:1002F000CF90BF90AF902ACFCF92DF92EF92FF9234
:10030000CF93DF93EC0162E08EE693E07AD36B014A
:100310007C011C161D061CF468E37FEF02C068EC2C
:1003200070E088ED93E0EBD21C161D061CF468EC1F
:1003300070E002C068E37FEF88ED93E0EBD220E04D
:10034000B701A601CE01DF91CF91FF90EF90DF9032
:10035000CF90FCCECF93DF9300D000D0CDB7DEB7E7
:1003600084E693E0F9D081111AC084E693E0C1D00D
:1003700029833A834B835C836D837E83BE016F5FE9
:100380007F4F84E693E0F9D02D813E8189819A8167
:100390002436310511F466DFE3CFAEDFE1CF2696D8
:1003A0000FB6F894DEBF0FBECDBFDF91CF91089599
:1003B00026E040E051EE60E070E087EE93E0C1D7C8
:1003C00088ED93E018D28EE693E0F4D22FEF89EF18
:1003D00090E0215080409040E1F700C0000084E6AA
:1003E00093E09AD148E750E060E08EE693E055C490
:1003F000B1DF65E070E080E090E00DC61F920F92E3
:100400000FB60F9211240BB60F922F933F934F9379
:100410005F936F937F938F939F93AF93BF93EF936C
:10042000FF9361E08EE693E057D4FF91EF91BF9187
:10043000AF919F918F917F916F915F914F913F917C
:100440002F910F900BBE0F900FBE0F901F9018951D
:100450001F920F920FB60F9211240BB60F922F938B
:100460003F934F935F936F937F938F939F93AF933C
:10047000BF93EF93FF9362E08EE693E02DD4FF915C
:10048000EF91BF91AF919F918F917F916F915F910C
:100490004F913F912F910F900BBE0F900FBE0F9079
:1004A0001F9018951092D9031092D8031092DB0375
:1004B0001092DA038CE1E6E8F3E0DF01982F1D9259
:1004C0009A95E9F7E2EAF3E0DF011D928A95E9F7F0
:1004D0001092CA031092D703109268031092690316
:1004E00010926A0310926B0310926C0310926D03CA
:1004F0000895CF93DF9300D000D0CDB7DEB7DC01F5
:1005000014962C911497ED91FC91B6E02B9FE00D81
:10051000F11D112486E0DE01119601900D928A955D
:10052000E1F729813A814B815C816D817E8180E098
:1005300090E026960FB6F894DEBF0FBECDBFDF91D8
:10054000CF910895FC0184818F5F84831186458358
:100550005683678370870895FC01448150E081E0F1
:1005600022813381421753070CF480E00895FC0187
:1005700065817681878190850895CF93DF93EB0124
:10058000FC01218521115AC021E021878C819D81A8
:100590008436910559F588819981AA81BB81B7FF7D
:1005A00012C066E572E087EE93E00E94EA0A488195
:1005B00059816A817B8170956095509541955F4F17
:1005C0006F4F7F4F0AC06AE672E087EE93E00E94A9
:1005D000EA0A488159816A817B812AE030E087EE0E
:1005E00093E00E945C0B6DE772E023C064E872E068
:1005F00087EE93E0EFD7488159816A817B8177FF4D
:1006000010C070956095509541955F4F6F4F7F4F2B
:100610002AE030E087EE93E00E945C0B6AE872E02B
:1006200008C02AE030E087EE93E00E945C0B66E9A8
:1006300072E087EE93E0DF91CF91D7C7DF91CF9142
:10064000089587EE93E0D1D787EE93E06BD5892BA1
:10065000D9F341E060E070E087EE93E00E940B0D7B
:10066000CB0108950F931F93CF93DF9300D000D059
:10067000CDB7DEB787EE93E055D5892BD9F387EE5A
:1006800093E069D58C0187EE93E04CD5892BD9F3A3
:1006900041E060E070E087EE93E00436110569F414
:1006A0000E940B0D882777FD8095982F0E948B0E56
:1006B0009B01AC010E94880D0EC00E940B0D882783
:1006C00077FD8095982F0E948B0E20E030E040E867
:1006D0005EE30E943F0F0E94580EAB01662757FD54
:1006E0006095762F49835A836B837C831E830D83A9
:1006F000242F3A818B815C81602F7E81482F80E09E
:1007000090E026960FB6F894DEBF0FBECDBFDF9106
:10071000CF911F910F910895EF92FF920F931F9326
:10072000CF93DF93EC0163EA72E08BDF9B838A83D4
:1007300082E190E00E94850DFC01108211821282FC
:1007400013828FEF90E09583848316821782108640
:100750001186938782871486158616861786918B55
:10076000808BF983E88366EB72E087EE93E032D703
:100770006A817B814AE050E087EE93E0E4D764EC45
:1007800072E087EE93E031D76EEC72E087EE93E093
:100790002CD760EE72E087EE93E027D700E010E000
:1007A000E12CF12C8A819B81E816F906CCF4CE016C
:1007B00059DFE881F981E00FF11F20833183428303
:1007C00053836483758368817981600F711FCE01C3
:1007D000D4DE19868FEFE81AF80A0A5F1F4FE2CFBE
:1007E00060E173E087EE93E0DF91CF911F910F916D
:1007F000FF90EF90FAC684B1806684B9E1E0F1E041
:10080000808188618083E1E8F0E080818A60808374
:10081000E1EAF0E080818A608083E0E8F0E08081B6
:1008200083608083E0EAF0E08081836080830895C4
:10083000FC01413039F020F0423059F445830EC0BC
:10084000148204C04483719561957109718360833A
:10085000089584E08583719561957109738362833E
:1008600008951F93CF93DF93EB01142FE1DFBE01B7
:10087000609570957370113009F188F0123069F548
:100880008091A0008F7C8093A0008091A000806C5C
:100890008093A0007093A9006093A8002CC0809161
:1008A00080008F7C8093800080918000806C80939A
:1008B000800070938900609388001DC08091800043
:1008C000806380938000809180008F778093800088
:1008D00070938B0060938A000EC08091A0008063AB
:1008E0008093A0008091A0008F778093A0007093E8
:1008F000AB006093AA00DF91CF911F91089577FF1D
:1009000002C044E001C042E077FF03C071956195E9
:100910007109A7CF472F441F4427441F9B0177FF2E
:1009200003C0319521953109B9019BCF0F931F93D6
:10093000CF93DF93EC018B01EDDFB801CE01DF91A6
:10094000CF911F910F91DBCFCF93DF93EC018D817E
:10095000843019F460E971E004C0823029F460E762
:100960007EEFCE01CCDF05C066E273E087EE93E058
:100970003CD68C81813019F460E971E004C08111AA
:1009800005C060E77EEFCE01C5DF05C065E373E01B
:1009900087EE93E02AD62FEF86E791E02150804042
:1009A0009040E1F700C0000060E070E0CE01DF9110
:1009B000CF91BCCFCF93DF93EC015A9AE5E0F1E001
:1009C000808181608083E9E6F0E0808180618083BE
:1009D000EA9AE8E6F0E0808182608083ECE6F0E06D
:1009E0008081826080837894E7D26C8B7D8B8E8B44
:1009F0009F8BE2D2688B798B8A8B9B8BDF91CF9117
:100A00000895FC01613029F46081718182819381B4
:100A1000089564817581868197810895CF93DF93CE
:100A2000EC01188219821A821B821C821D821E828E
:100A30001F82188619861A861B861C861D861E86AE
:100A40001F86BAD2688B798B8A8B9B8BB5D26C8BC5
:100A50007D8B8E8B9F8BCE01489692D1CE01C49612
:100A6000DF91CF918DC18F929F92AF92BF92CF9223
:100A7000DF92EF92FF921F93CF93DF93EC01162F3B
:100A80009BD2113029F4C888D988EA88FB8804C031
:100A9000CC88DD88EE88FF886C197D098E099F0956
:100AA0000E94890E6B017C01113049F48881998183
:100AB000AA81BB81488559856A857B8508C08C8160
:100AC0009D81AE81BF814C855D856E857F854C01A2
:100AD0005D01841A950AA60AB70AC501B4010E94ED
:100AE000890E4B015C01113071F488819981AA81D2
:100AF000BB8188879987AA87BB875ED2688B798BF1
:100B00008A8B9B8B0DC08C819D81AE81BF818C8730
:100B10009D87AE87BF8750D26C8B7D8B8E8B9F8BD2
:100B200020E030E04AE754E4C501B4010E943F0FE1
:100B3000A70196010E94F00DDF91CF911F91FF90C8
:100B4000EF90DF90CF90BF90AF909F908F900895DF
:100B5000CF92DF92EF92FF921F93CF93DF93EC013E
:100B6000142F613009F049C07EDF7E0120E5E20EDE
:100B7000F11CF7014485242F30E054E0459FE00D3F
:100B8000F11D112460837183828393832F5F3F4F14
:100B9000C90163E070E00E94A60FF701848720E09E
:100BA00030E0A9016081718182819381B1D7F70121
:100BB0002481358146815781ABD7F7012085318566
:100BC00042855385A5D720E030E040E450E40E9400
:100BD000F00D6B017C01112359F00E94580E4AE080
:100BE00050E087EE93E0AFD569E087EE93E0F3D471
:100BF000B701A601CE01C49648C062E034DF7E0191
:100C0000FDE5EF0EF11CF7014485242F30E054E0A0
:100C1000459FE00DF11D11246083718382839383CE
:100C20002F5F3F4FC90163E070E00E94A60FF701FC
:100C3000848720E030E0A901608171818281938105
:100C400067D7F701248135814681578161D7F70144
:100C500020853185428553855BD720E030E040E434
:100C600050E4BED76B017C01112359F00E94580E4D
:100C70004AE050E087EE93E066D569E087EE93E0C6
:100C8000AAD4B701A601CE014896DF91CF911F915A
:100C9000FF90EF90DF90CF90FAC00F931F93CF9308
:100CA000DF93EC018A01613019F4BA01C4960AC0DD
:100CB000623029F061110BC0BA01C4962FD1B8017E
:100CC000CE014896DF91CF911F910F9127C1DF91FF
:100CD000CF911F910F910895FC01613069F440811B
:100CE0005181628173814F5F5F4F6F4F7F4F4083B0
:100CF000518362837383089544815581668177812E
:100D00004F5F5F4F6F4F7F4F448355836683778379
:100D100008950F931F93CF93DF93EC012C893D89A6
:100D20004E895F89688979898A899B89F1D6288D5E
:100D3000398D4A8D5B8DECD6288539854A855B8552
:100D4000E7D6B6D78B01011584E0180714F00FEF32
:100D500013E00837110514F408E710E01F870E8729
:100D6000B801882777FD8095982FD5D76887798730
:100D70008A879B87C801DF91CF911F910F910895BA
:100D8000FC01108211821282138214821582168253
:100D90001782108611861286138617861686108A89
:100DA000118A128A138A148A158A168A178A108E53
:100DB000118E128E138E0895CF92DF92EF92FF92D2
:100DC000CF93DF93EC016A017B019A01AB0168814B
:100DD00079818A819B819BD62AE037ED43E25CE3EF
:100DE0000E943F0F688F798F8A8F9B8FC882D9822C
:100DF000EA82FB82DF91CF91FF90EF90DF90CF905E
:100E00000895EF92FF920F931F93CF93DF93EC011E
:100E1000CB01BA0127E137EB41E558E30E943F0FD0
:100E20002C813D814E815F8173D67B018C0120E056
:100E300030E048EC52E40E943B0F181674F020E0BA
:100E400030E048EC52ECB701C801C6D687FF0AC0B3
:100E500030E020E088EC92EC08C030E020E088EC44
:100E600092E403C03E2D2F2DC801432F522FBC0109
:100E70004C835D836E837F834C8B5D8B6E8B7F8B0E
:100E8000DF91CF911F910F91FF90EF9008958F9276
:100E90009F92AF92BF92CF92DF92EF92FF92CF9349
:100EA000DF93EC014A015B016C857D85882777FD26
:100EB0008095982F30D7A501940129D66B017C012C
:100EC000A5019401C501B4010E94A20F811113C0B4
:100ED0002AE037ED43EA5CE3C701B601D0D7688B5F
:100EE000798B8A8B9B8BB701A601CE018ADFB70174
:100EF000A601CE0161DF22E030E0B701A60187EE56
:100F000093E00BD5CE01DF91CF91FF90EF90DF9072
:100F1000CF90BF90AF909F908F90FBCEFC017587D4
:100F2000648708951F920F920FB60F9211242F938A
:100F30003F938F939F93AF93BF938091DF039091E3
:100F4000E003A091E103B091E2033091DE0323E0DE
:100F5000230F2D3720F40196A11DB11D05C026E8F1
:100F6000230F0296A11DB11D2093DE038093DF03A2
:100F70009093E003A093E103B093E2038091E30335
:100F80009091E403A091E503B091E6030196A11DC1
:100F9000B11D8093E3039093E403A093E503B09322
:100FA000E603BF91AF919F918F913F912F910F9049
:100FB0000FBE0F901F9018952FB7F8946091DF0324
:100FC0007091E0038091E1039091E2032FBF0895B7
:100FD0003FB7F8948091E3039091E403A091E50377
:100FE000B091E60326B5A89B05C02F3F19F00196E6
:100FF000A11DB11D3FBF6627782F892F9A2F620F41
:10100000711D811D911D42E0660F771F881F991F7A
:101010004A95D1F70895CF92DF92EF92FF92CF9346
:10102000DF936B017C01D4DFEB01C114D104E10437
:10103000F10479F06BD5CCDF6C1B7D0B683E7340FF
:10104000A0F381E0C81AD108E108F108C851DC4FCB
:10105000ECCFDF91CF91FF90EF90DF90CF9008958C
:10106000789484B5826084BD84B5816084BD85B583
:10107000826085BD85B5816085BDEEE6F0E080814A
:1010800081608083E1E8F0E010828081826080836B
:10109000808181608083E0E8F0E0808181608083EE
:1010A000E1EBF0E0808184608083E0EBF0E0808120
:1010B00081608083E1E9F0E08081826080838081CB
:1010C00081608083E0E9F0E0808181608083E1EAF3
:1010D000F0E0808182608083808181608083E0EAAB
:1010E000F0E0808181608083E1E2F1E080818260D4
:1010F0008083808181608083E0E2F1E08081816093
:101100008083EAE7F0E08081846080838081826070
:101110008083808181608083808180688083109259
:10112000C1000895FC01818D228D90E0805C9F4F6D
:10113000821B91098F7399270895FC01918D828DEF
:10114000981731F0828DE80FF11D858D90E008959C
:101150008FEF9FEF0895FC01918D828D981761F0BC
:10116000828DDF01A80FB11D5D968C91928D9F5FDE
:101170009F73928F90E008958FEF9FEF089580E620
:101180009AE0892B39F080E090E0892B19F098D112
:10119000811125C080E090E0892B41F080E090E053
:1011A000892B21F00E94000081111CC080E090E09A
:1011B000892B41F080E090E0892B21F00E94000013
:1011C000811113C080E090E0892BA1F080E090E0D5
:1011D000892B81F00E94000081110AC008950E94AD
:1011E0000000D8CF0E940000E1CF0E940000EACFAB
:1011F0000C9400000895FC01848DDF01A80FB11D3F
:10120000A35ABF4F2C91848D90E001968F7399273C
:10121000848FA689B7892C93A089B1898C91806429
:101220008C93938D848D981306C00288F389E02DEA
:1012300080818F7D80830895CF93DF93EC01888D2B
:101240008823C1F0EA89FB89808185FD05C0A889D2
:10125000B9898C9186FD0EC00FB607FCF5CF808151
:1012600085FFF2CFA889B9898C9185FFEDCFCE019A
:10127000C2DFE8CFDF91CF910895CF92DF92FF9246
:101280000F931F93CF93DF931F92CDB7DEB76C01FF
:1012900081E0D60158968C9358975B969C915B970A
:1012A0005C968C915C97981307C05096ED91FC91D9
:1012B0005197808185FD2DC0F601038D10E00F5FF1
:1012C0001F4F0F731127F02EF601848DF81210C0F6
:1012D0000FB607FCF9CFD6015096ED91FC915197CE
:1012E000808185FFF1CFC601698385DF6981ECCFFD
:1012F000838DE80FF11DE35AFF4F6083D6015B96A3
:101300000C935B975296ED91FC915397808180628C
:101310000CC0D6015696ED91FC915797608350967C
:10132000ED91FC91519780818064808381E090E011
:101330000F90DF91CF911F910F91FF90DF90CF9091
:101340000895BF92CF92DF92EF92FF92CF93DF93F7
:10135000EC016A017B01B22EE889F98982E0808381
:10136000411581EE58076105710599F060E079E05B
:101370008DE390E0A7019601FCD521503109410988
:1013800051095695479537952795211580E13807DE
:1013900090F0E889F989108260E874E88EE190E0C5
:1013A000A7019601E6D52150310941095109569509
:1013B000479537952795EC85FD853083EE85FF852C
:1013C0002083188EEC89FD89B082EA89FB898081AF
:1013D00080618083EA89FB89808188608083EA89D3
:1013E000FB89808180688083EA89FB8980818F7D89
:1013F0008083DF91CF91FF90EF90DF90CF90BF90EF
:1014000008951F920F920FB60F9211240BB60F92F0
:101410002F938F939F93EF93FF93E091F703F091B6
:10142000F8038081E091FD03F091FE0382FD12C07C
:101430009081809100048F5F8F7320910104821747
:1014400051F0E0910004F0E0E951FC4F958F80935A
:10145000000401C08081FF91EF919F918F912F91A6
:101460000F900BBE0F900FBE0F901F9018951F92FC
:101470000F920FB60F9211240BB60F922F933F933A
:101480004F935F936F937F938F939F93AF93BF938C
:10149000EF93FF9387EE93E0AEDEFF91EF91BF9164
:1014A000AF919F918F917F916F915F914F913F91FC
:1014B0002F910F900BBE0F900FBE0F901F9018959D
:1014C00087EE93E02FDE21E0892B09F420E0822FC4
:1014D00008951092EA031092E90388EE93E0A0E0E9
:1014E000B0E08093EB039093EC03A093ED03B093F3
:1014F000EE0387E493E09093E8038093E70385ECA1
:1015000090E09093F4038093F30384EC90E0909345
:10151000F6038093F50380EC90E09093F8038093BA
:10152000F70381EC90E09093FA038093F90382EC47
:1015300090E09093FC038093FB0386EC90E0909303
:10154000FE038093FD031092000410920104109298
:101550000204109203040895CF92DF92EF92FF925B
:101560000F931F93CF93DF937C016A01EB0100E09F
:1015700010E00C151D0571F06991D701ED91FC91FA
:101580000190F081E02DC7011995892B19F00F5FAB
:101590001F4FEFCFC801DF91CF911F910F91FF90A7
:1015A000EF90DF90CF9008956115710581F0DB0118
:1015B0000D900020E9F7AD0141505109461B570B32
:1015C000DC01ED91FC910280F381E02D199480E023
:1015D00090E00895E9CFDC01ED91FC910190F0815C
:1015E000E02D199463E573E0DFCF0F931F93CF9342
:1015F000DF93EC01D9DF8C01CE01F4DF800F911F66
:10160000DF91CF911F910F9108958F929F92AF928A
:10161000BF92CF92DF92EF92FF920F931F93CF93DF
:10162000DF93CDB7DEB7A1970FB6F894DEBF0FBE3C
:10163000CDBF7C01C42EE52FCB01D22E19A221E013
:101640002D1510F02AE0D22E8E010F5D1F4F8D2C2C
:10165000912CA12CB12C6C2D7E2FA501940189D445
:101660008C2DD29E80191124015011098A3014F456
:10167000805D01C0895CF801808321153105410539
:10168000510521F0C22EE32FCA01E5CFB801C701F1
:101690008BDFA1960FB6F894DEBF0FBECDBFDF91F2
:1016A000CF911F910F91FF90EF90DF90CF90BF905F
:1016B000AF909F908F900895CF92DF92EF92FF921C
:1016C0000F931F93CF93DF93EC016A017B012115E8
:1016D000310579F4E881F9810190F081E02D642FE2
:1016E000DF91CF911F910F91FF90EF90DF90CF90FE
:1016F00019942A303105D9F477FF18C06DE26BDFF9
:101700008C0144275527BA014C195D096E097F09E0
:101710002AE0CE017ADF800F911FDF91CF911F91D8
:101720000F91FF90EF90DF90CF9008952AE0B701DE
:10173000A601CE01DF91CF911F910F91FF90EF9005
:10174000DF90CF9062CF9A01AB01662757FD60957D
:10175000762FB2CF2115310541F4DC01ED91FC91DA
:101760000190F081E02D642F19944FCF4F925F923A
:101770006F927F928F929F92AF92BF92CF92DF92A1
:10178000EF92FF920F931F93CF93DF93EC016A01C7
:101790007B01B22E9A01AB01C701B601D3D38823D6
:1017A00019F066E573E024C026013701E89477F864
:1017B0002FEF3FEF4FE75FE7C301B201C3D38111C2
:1017C0000CC02FEF3FEF4FE75FE7C301B20104D238
:1017D00018161CF46AE573E00BC02FEF3FEF4FE7DC
:1017E0005FE4C701B60147D31816A4F46EE573E0B1
:1017F000CE01DF91CF911F910F91FF90EF90DF907D
:10180000CF90BF90AF909F908F907F906F905F90A0
:101810004F90CACE2FEF3FEF4FE75FECC701B60105
:10182000DBD187FDE3CF20E030E0A901C701B6019D
:10183000D3D187FF09C06DE2CE01CDDE8C01F7FA6E
:10184000F094F7F8F09402C000E010E0A12C60E002
:1018500070E080E09FE3AB1439F020E030E040E23C
:1018600051E4BED1A394F7CF9B01AC01C701B601EF
:101870004FD16B017C0121D22B013C014AD29B014B
:10188000AC01C701B60143D16B017C012AE0B30171
:10189000A201CE01BADE080F191FBB2031F062E6AB
:1018A00073E0CE0181DE080F191F7B2C772019F120
:1018B00020E030E040E251E4C701B601E0D26B0124
:1018C0007C01F6D14B01AA2497FCA094BA2C2AE003
:1018D00030E0B501A401CE01EFDE080F191FC501EC
:1018E000B40119D29B01AC01C701B60110D16B0143
:1018F0007C017A94DBCFC801DF91CF911F910F91CA
:10190000FF90EF90DF90CF90BF90AF909F908F901F
:101910007F906F905F904F9008950F931F93CF9398
:10192000DF93EC0123DF8C01CE015CDE800F911F81
:10193000DF91CF911F910F9108950F931F93CF9334
:10194000DF93EC0139DB688779878A879B87E88199
:10195000F9810084F185E02DCE01199597FF14C01F
:101960002BDB088519852A853B85601B710B820B53
:10197000930B0C811D812E813F81601771078207B7
:10198000930728F38FEF9FEFDF91CF911F910F9176
:101990000895FF920F931F93CF93DF93EC018B0178
:1019A000F42ECE01CADF9C0197FD28C08D3291052F
:1019B00019F1C0970A9710F1FF2019F02E32310566
:1019C000F9F001301105F9F00230110569F42D30FC
:1019D000310551F034F4295031092230310520F01D
:1019E00012C02032310579F4E881F9810680F7814F
:1019F000E02DCE011995D5CF8DE203C0C90105C0F8
:101A00008EE290E002C08FEF9FEFDF91CF911F91A8
:101A10000F91FF900895CF92DF92FF920F931F9343
:101A2000CF93DF9300D01F92CDB7DEB76C01042FA8
:101A300040E0AFDFFC0197FD49C020E030E0A901A4
:101A4000F12C112707FD1095E017F107E1F0ED32B9
:101A5000F105B9F0CF01C0970A97A8F4AAE0B0E069
:101A6000AAD29B01AC01CF01AA2797FDA095BA2F5E
:101A7000280F391F4A1F5B1F2053310941095109A3
:101A800002C0FF24F394D601ED91FC910680F7810A
:101A9000E02DC60129833A834B835C831995C601E7
:101AA0004CDFFC01C09729813A814B815C810A9708
:101AB00058F2E017F10741F2FF2061F0662777271F
:101AC000CB01621B730B840B950B06C060E070E0CA
:101AD000CB0102C0CA01B9010F900F900F900F9077
:101AE000DF91CF911F910F91FF90DF90CF900895DC
:101AF0000895B6DAFDDF0E94D801CFEBD8E00E944E
:101B0000F8012097E1F33BDBFACF86C208955058E5
:101B1000BB27AA270ED075C166D130F06BD120F05B
:101B200031F49F3F11F41EF45BC10EF4E095E7FB26
:101B300051C1E92F77D180F3BA1762077307840781
:101B4000950718F071F49EF58FC10EF4E0950B2EF9
:101B5000BA2FA02D0B01B90190010C01CA01A001FF
:101B60001124FF27591B99F0593F50F4503E68F15A
:101B70001A16F040A22F232F342F4427585FF3CF9B
:101B8000469537952795A795F0405395C9F77EF46C
:101B90001F16BA0B620B730B840BBAF09150A1F0B5
:101BA000FF0FBB1F661F771F881FC2F70EC0BA0F3B
:101BB000621F731F841F48F4879577956795B795C3
:101BC000F7959E3F08F0B3CF9395880F08F09927BB
:101BD000EE0F979587950895D9D008F481E0089580
:101BE0000CD00FC107D140F0FED030F021F45F3FA0
:101BF00019F0F0C0511139C1F3C014D198F39923F1
:101C0000C9F35523B1F3951B550BBB27AA276217C0
:101C10007307840738F09F5F5F4F220F331F441F05
:101C2000AA1FA9F333D00E2E3AF0E0E830D091503D
:101C30005040E695001CCAF729D0FE2F27D0660F2A
:101C4000771F881FBB1F261737074807AB07B0E869
:101C500009F0BB0B802DBF01FF2793585F4F2AF07F
:101C60009E3F510568F0B6C000C15F3FECF3983E5F
:101C7000DCF3869577956795B795F7959F5FC9F7DC
:101C8000880F911D9695879597F90895E1E0660F65
:101C9000771F881FBB1F621773078407BA0720F0DE
:101CA000621B730B840BBA0BEE1F88F7E095089547
:101CB00004D06894B111D9C00895BCD088F09F5762
:101CC00090F0B92F9927B751A0F0D1F0660F771F88
:101CD000881F991F1AF0BA95C9F712C0B13081F068
:101CE000C3D0B1E00895C0C0672F782F8827B85FB0
:101CF00039F0B93FCCF3869577956795B395D9F7C9
:101D00003EF490958095709561957F4F8F4F9F4FD2
:101D10000895E89409C097FB3EF4909580957095DE
:101D200061957F4F8F4F9F4F9923A9F0F92F96E927
:101D3000BB279395F695879577956795B795F1119C
:101D4000F8CFFAF4BB0F11F460FF1BC06F5F7F4F39
:101D50008F4F9F4F16C0882311F096E911C077234B
:101D600021F09EE8872F762F05C0662371F096E854
:101D7000862F70E060E02AF09A95660F771F881F23
:101D8000DAF7880F9695879597F90895990F0008C7
:101D9000550FAA0BE0E8FEEF16161706E807F9073D
:101DA000C0F012161306E407F50798F0621B730BD8
:101DB000840B950B39F40A2661F0232B242B252B59
:101DC00021F408950A2609F4A140A6958FEF811DFC
:101DD000811D089597F99F6780E870E060E008959D
:101DE0009FEF80EC089500240A9416161706180633
:101DF0000906089500240A9412161306140605060F
:101E00000895092E0394000C11F4882352F0BB0F9F
:101E100040F4BF2B11F460FF04C06F5F7F4F8F4F02
:101E20009F4F089557FD9058440F551F59F05F3F3D
:101E300071F04795880F97FB991F61F09F3F79F0EC
:101E400087950895121613061406551FF2CF46956E
:101E5000F1DF08C0161617061806991FF1CF8695F0
:101E60007105610508940895E894BB2766277727D4
:101E7000CB0197F908958ADF08F48FEF08950BD00E
:101E8000C0CFB1DF28F0B6DF18F0952309F0A2CF5C
:101E9000A7CF1124EACFC6DFA0F3959FD1F3950F0A
:101EA00050E0551F629FF001729FBB27F00DB11DDE
:101EB000639FAA27F00DB11DAA1F649F6627B00D6E
:101EC000A11D661F829F2227B00DA11D621F739F57
:101ED000B00DA11D621F839FA00D611D221F749F65
:101EE0003327A00D611D231F849F600D211D822FAC
:101EF000762F6A2F11249F5750408AF0E1F08823F3
:101F00004AF0EE0FFF1FBB1F661F771F881F9150FF
:101F10005040A9F79E3F510570F05CCFA6CF5F3FC0
:101F2000ECF3983EDCF3869577956795B795F79532
:101F3000E7959F5FC1F7FE2B880F911D96958795BA
:101F400097F9089523DF880B990B089597FB072EC7
:101F500016F4009406D077FD08D03BD007FC05D0DE
:101F60003EF4909581959F4F0895709561957F4FB0
:101F70000895A1E21A2EAA1BBB1BFD010DC0AA1FCA
:101F8000BB1FEE1FFF1FA217B307E407F50720F0E2
:101F9000A21BB30BE40BF50B661F771F881F991F5D
:101FA0001A9469F760957095809590959B01AC01A6
:101FB000BD01CF01089521D0A59F900DB49F900D34
:101FC000A49F800D911D112408950790F691E02D96
:101FD0001994AA1BBB1B51E107C0AA1FBB1FA61760
:101FE000B70710F0A61BB70B881F991F5A95A9F7C2
:101FF00080959095BC01CD010895A29FB001B39F3B
:10200000C001A39F700D811D1124911DB29F700D01
:10201000811D1124911D0895CF93DF938230910586
:1020200010F482E090E0E0918604F091870420E0D3
:1020300030E0A0E0B0E0309739F14081518148179D
:102040005907B8F04817590771F4828193811097A6
:1020500029F013969C938E9312972CC0909387042B
:102060008093860427C02115310531F042175307AC
:1020700018F0A901DB0101C0EF019A01BD01DF01E8
:102080000280F381E02DD7CF21153105F9F0281B0F
:10209000390B2430310580F48A819B8161157105EB
:1020A00021F0FB019383828304C090938704809383
:1020B0008604FE01329644C0FE01E20FF31F8193B5
:1020C000919322503109398328833AC020918404A6
:1020D00030918504232B41F42091020230910302B8
:1020E00030938504209384042091000230910102F2
:1020F0002115310541F42DB73EB7409104025091AE
:102100000502241B350BE0918404F0918504E2174D
:10211000F307A0F42E1B3F0B2817390778F0AC010A
:102120004E5F5F4F2417350748F04E0F5F1F5093E7
:102130008504409384048193919302C0E0E0F0E031
:10214000CF01DF91CF910895CF93DF93009709F4EA
:1021500087C0FC01329713821282C0918604D0910D
:102160008704209781F420813181280F391F8091C5
:102170008404909185048217930779F5F093850480
:10218000E09384046DC0DE0120E030E0AE17BF07AD
:1021900050F412964D915C9113979D014115510594
:1021A00009F1DA01F3CFB383A28340815181840F17
:1021B000951F8A179B0771F48D919C911197840F3D
:1021C000951F02969183808312968D919C9113970F
:1021D000938382832115310529F4F0938704E093DA
:1021E00086043EC0D9011396FC93EE9312974D914D
:1021F0005D91A40FB51FEA17FB0779F480819181E7
:10220000840F951F0296D90111969C938E9382811B
:10221000938113969C938E931297E0E0F0E08A816D
:102220009B81009719F0FE01EC01F9CFCE010296D7
:1022300028813981820F931F209184043091850475
:102240002817390769F4309729F4109287041092FF
:10225000860402C013821282D0938504C093840442
:0A226000DF91CF910895F894FFCFAD
:10226A0000008804800066696E697368656420648A
:10227A0072697665206576656E740066696E697343
:10228A00686564207475726E206576656E74006385
:10229A00757272656E743A20002C206C617374201A
:1022AA006368616E67653A002C20746172676574B1
:1022BA003A20000A0A004472697665206261636BFB
:1022CA007761726420666F722000447269766520B5
:1022DA00666F727761726420666F7220002074697B
:1022EA00636B73005475726E2000207469636B739C
:1022FA00206C65667400207469636B732072696769
:10230A00687400686F77206D616E7920636F6D6DF8
:10231A00616E64733F00706C6561736520656E74ED
:10232A006572200020636F6D6D616E647300642DA9
:10233A003E64726976652C20742D3E7475726E0047
:10234A0075736167653A20636F6D6D616E642063B2
:10235A00686172202A454E5445522A203C696E749F
:10236A006567657220706172616D657465723E00A1
:10237A00696E70757420706172736520636F6D7019
:10238A006C6574650A007269676874206E6F2062F2
:10239A0072616B65006C656674206E6F2062726193
:1023AA006B6500000000003D09AC0A9208AB089D6D
:1023BA00081C090D0A006E616E00696E66006F7670
:0423CA0066002E007B
:00000001FF
