:1000000071C000008EC000008CC000008AC00000DB
:1000100088C0000086C0000084C0000082C00000CC
:1000200080C000007EC000007CC000007AC00000DC
:1000300078C0000076C0000074C0000072C00000EC
:1000400070C000006EC000006CC000006AC00000FC
:1000500068C0000066C0000064C0000062C000000C
:1000600060C00000F6C000005CC000002BC10000B2
:1000700058C0000056C0000054C0000052C000002C
:1000800050C000004EC000004CC000004AC000003C
:1000900048C0000046C0000044C0000042C000004C
:1000A00040C000003EC000003CC000003AC000005C
:1000B00038C0000036C0000034C0000032C000006C
:1000C00030C000002EC000002CC000002AC000007C
:1000D00028C0000026C0000024C0000022C000008C
:1000E00020C0000011241FBECFEFD1E2DEBFCDBF84
:1000F00000E00CBF12E0A0E0B2E0E0EEF6E000E0CD
:100100000BBF02C007900D92A238B107D9F723E0C8
:10011000A2E8B2E001C01D92A131B207E1F797D287
:10012000DDC26ECF81E04091080350910903209118
:100130000A0330910B034217530709F480E0089536
:100140008091C00085FB882780F9089580910A037B
:1001500090910B0320910803309109032817390768
:10016000B1F0ECE0F3E0208131812150310931839D
:1001700020839C012F5F3F4F30930B0320930A0392
:100180008F739927FC01E853FD4F8081089580E02B
:100190000895CF93C82FD4DF8823E9F3C093C60016
:1001A000CF9108950F931F93CF93DF93662369F147
:1001B000C62F8C01FC018081ECDF8C2F90E0029730
:1001C00024F1D8011196C8018C0F911DC6ECD2E024
:1001D00062EC72E04D91288139812034310591F033
:1001E0002F5F3F4F39832883FB01208131818901B3
:1001F0000F5F1F4F118300832F733327F901EE57D1
:10020000FD4F4083A817B90729F7DF91CF911F91C0
:100210000F910895FC0101900020E9F73197BF018B
:10022000681B790BBFCF08951092C50082E28093BE
:10023000C400E0ECF0E0808182608083A2ECB0E05A
:100240001C92E1ECF0E0108286E08C9388E18083E0
:1002500008951F920F920FB60F9211240BB60F92B2
:100260002F934F935F938F939F93EF93FF932091DF
:10027000C60080910C0390910D0380349105A1F08C
:10028000019690930D0380930C03E8E0F3E08081E6
:100290009181AC014F5F5F4F518340838F739927EA
:1002A000FC01E853FD4F2083FF91EF919F918F91C7
:1002B0005F914F912F910F900BBE0F900FBE0F903B
:1002C0001F9018951F920F920FB60F9211240BB624
:1002D0000F922F933F938F939F93EF93FF93809170
:1002E000C4029091C5022091C2023091C302281726
:1002F0003907B9F0E6ECF2E0208131812150310973
:10030000318320839C012F5F3F4F3093C5022093A0
:10031000C4028F739927FC01EE57FD4F80818093B3
:10032000C600FF91EF919F918F913F912F910F9078
:100330000BBE0F900FBE0F901F901895882381F071
:10034000E1ECF0E0808180688083662339F0E1ECA5
:10035000F0E08081806480831092C60078940895D4
:100360006111F5CF0895442361F0FC01408121E043
:1003700030E002C0220F331F6A95E2F7242B20835E
:100380000895FC01408121E030E002C0220F331FBC
:100390006A95E2F72095242320830895882311F09D
:1003A000439A01C043988FE193E00197F1F700C0B1
:1003B0000000429A8FE193E00197F1F700C000003E
:1003C00042980895CF92DF92EF92FF920F931F937E
:1003D000CF93DF937C01449825E02A95F1F7000044
:1003E00081E0DCDF870183E0E80EF11C0F2EF7E0EF
:1003F000CF2EF02DD12C12C0F801808190E00C2E70
:1004000002C0959587950A94E2F78170C7DF21971E
:1004100098F70F5F1F4F0E151F0519F0CC2DDD2D1E
:10042000EBCFCCE0D0E080E0B9DF2197E1F7449A50
:10043000DF91CF911F910F91FF90EF90DF90CF90C0
:1004400008950F931F93CF93DF93E82F362F272F15
:10045000CEE0D3E0862F972F64E670E018D1CB0171
:100460000AE010E0B80113D1DC01AA58BD4F8C910D
:100470008883832F922FB8010AD19C01CB01B80148
:1004800006D1DC01AA58BD4F8C918983D901AA58A5
:10049000BD4F8C918A83F0E0E25FFC4F80818160E8
:1004A0008083CE018FDFDF91CF911F910F9108954F
:1004B000CF93DF939C01181619060CF5EEE0F3E0DC
:1004C00064E670E0E4D0CB01CAE0D0E0BE01DFD04A
:1004D000DC01AA58BD4F8C918083C901BE01D7D0E1
:1004E0009C01CB01BE01D3D0DC01AA58BD4F8C9139
:1004F0008183D901AA58BD4F8C91828339C02D398F
:100500008FEF3807DCF0EEE0F3E082E080838827AD
:100510009927821B930BCAE0D0E0BE01B8D09C01A2
:10052000CB01BE01B4D0DC01AA58BD4F8C918183B0
:10053000D901AA58BD4F8C9182831AC0EEE0F3E036
:1005400082E6808388279927821B930BCAE0D0E03C
:10055000BE019DD09C01CB01BE0199D0DC01AA58FF
:10056000BD4F8C918183D901AA58BD4F8C91828354
:100570008EE093E027DFDF91CF910895B12CEE2438
:10058000EA94FE2C04E610E0AA24A3940F2EF4E6CD
:10059000CF2ED12CF02D912C77247A9488248A9414
:1005A00055245394612CBEDD8823B1F0CFDD863411
:1005B00041F018F4833449F00CC0833631F08636AC
:1005C00041F485E092E026DE0EC08CE092E022DE6F
:1005D00005C083E192E01EDEB11005C0C80168DFEE
:1005E000E801B92C1AC0E801112324F4CC27DD2737
:1005F000C01BD10BCC3221E0D2072CF4CE01B601C6
:1006000046D0862F01C08A2D6C2F7D2F11231CF41C
:10061000D195C195D10915DFBA2CC73E83E0D80723
:1006200039F0C9339FEFD90729F4E52CF62C02C025
:10063000E72CF82C8E010E0D1F1D2FEF89EF90E097
:10064000215080409040E1F700C00000ACCF41E075
:1006500065E070E081E290E086DE41E064E070E019
:1006600081E290E080DE8CE187B918B812B8EEE044
:10067000F3E08CEF808380E681838AED8283D4DD92
:1006800085E08093010261E081E058DE77DF97FB2F
:10069000072E16F4009406D077FD08D00BD007FC87
:1006A00005D03EF4909581959F4F08957095619582
:1006B0007F4F0895AA1BBB1B51E107C0AA1FBB1F98
:1006C000A617B70710F0A61BB70B881F991F5A95DE
:1006D000A9F780959095BC01CD010895F894FFCFBE
:1006E000070509090B666C6F61740000636F756E16
:1006F00074000064656661756C74000064697370F1
:100700006C617920666978656420706F696E742009
:100710006E756D6265720A0000636F756E74657246
:1007200020696E637265617365640A0000656D70AF
:100730007479207278206275666665720A000075A9
:100740006E7265636F676E697A656420636F6D6D45
:10075000616E640A0000FC60DAF266B6BEE0FEF686
:02076000020095
:00000001FF
