:1000000073C00000A1C000009FC000001BC300001F
:100010009BC0000099C0000097C0000095C0000080
:1000200093C0000091C0000037C300008DC00000E5
:100030008BC0000089C0000087C0000085C00000A0
:1000400083C0000081C000007FC000007DC00000B0
:100050007BC0000079C0000077C0000056C30000DC
:1000600073C00000C1C50000F5C500006DC00000F0
:100070006BC0000069C0000067C0000065C00000E0
:1000800063C0000061C000005FC000005DC00000F0
:100090005BC0000059C0000057C0000055C0000000
:1000A00053C0000051C000004FC000004DC0000010
:1000B0004BC0000049C0000047C0000045C0000020
:1000C00043C0000041C000003FC000003DC0000030
:1000D0003BC0000039C0000037C0000035C0000040
:1000E00033C0000076035C0611241FBECFEFD1E2BF
:1000F000DEBFCDBF00E00CBF12E0A0E0B2E0EAE45A
:10010000F3E100E00BBF02C007900D92AC32B107E3
:10011000D9F723E0ACE2B2E001C01D92A633B207EA
:10012000E1F710E0C8EED0E000E006C02297010938
:10013000FE010BBF0E949F09C43ED10780E0080763
:10014000A9F718D70C94A3095BCF84B1806684B952
:10015000E1E0F1E0808188618083E1E8F0E0808186
:100160008A608083E1EAF0E080818A608083E0E851
:10017000F0E0808183608083E0EAF0E0808183604A
:1001800080830895FC01413031F040F0423061F04D
:10019000443039F0089571956195710971836083D8
:1001A00008957195619571097383628308951F9312
:1001B000CF93DF93EB01142FE5DFBE0160957095BF
:1001C0007370113019F198F0123079F11430D9F5BB
:1001D0008091A00080638093A0008091A0008F7721
:1001E0008093A0007093AB006093AA002CC0809114
:1001F00080008F7C8093800080918000806C809351
:10020000800070938900609388001DC080918000F9
:10021000806380938000809180008F77809380003E
:1002200070938B0060938A000EC08091A0008F7C39
:100230008093A0008091A000806C8093A0007093B8
:10024000A9006093A800DF91CF911F91089577FFD7
:1002500005C071956195710944E001C042E0A7CFE6
:1002600077FF05C071956195710941E001C040E0DB
:100270009ECF0F931F93CF93DF93EC018B01F0DFA1
:10028000B801CE01DF91CF911F910F91E0CFCF93B5
:10029000DF93EC015A9AE5E0F1E080818160808390
:1002A000E9E6F0E0808180618083EA9AE8E6F0E0A8
:1002B000808182608083ECE6F0E0808182608083D0
:1002C00078946DD26C8B7D8B8E8B9F8B68D2688B74
:1002D000798B8A8B9B8BDF91CF910895FC016130E4
:1002E00029F460817181828193810895648175818F
:1002F000868197810895613011F4CC9601C04896AB
:10030000FFD014D7CB0108954F925F926F927F92E6
:100310008F929F92AF92BF92CF92DF92EF92FF9215
:100320000F931F93CF93DF93EC01162F38D26B01FD
:100330007C011130A9F488889988AA88BB884881F3
:1003400059816A817B81088519852A853B85488783
:1003500059876A877B87C88AD98AEA8AFB8A14C048
:100360008C889D88AE88BF884C815D816E817F813D
:100370000C851D852E853F854C875D876E877F8721
:10038000CC8ADD8AEE8AFF8ACB01BA01601B710B31
:10039000820B930BFCD62B013C01C701B6016819F7
:1003A00079098A099B09F3D69B01AC01C301B2010B
:1003B00055D6DF91CF911F910F91FF90EF90DF9075
:1003C000CF90BF90AF909F908F907F906F905F90F5
:1003D0004F900895CF93DF93EC01613031F494DFB7
:1003E000AB01BC01CE01CC9606C062E08DDFAB0153
:1003F000BC01CE014896DF91CF9170C0FC01613005
:1004000069F440815181628173814F5F5F4F6F4F0B
:100410007F4F408351836283738308954481558164
:10042000668177814F5F5F4F6F4F7F4F4483558366
:10043000668377830895EF92FF920F931F93CF9374
:10044000DF93EC01288D398D4A8D5B8D6C897D8918
:100450008E899F899BD52C8D3D8D4E8D5F8D96D538
:10046000288539854A855B8591D57B018C0120E003
:1004700030EC4FE754E43DD7181674F020E030E03C
:1004800040E252E4B701C801E5D587FF0AC0F0E0B9
:10049000E0E030E222E409C0F0E0E0EC3FE724E4F1
:1004A00004C0FE2DEF2D302F212F4F2F5E2F632FF5
:1004B000722F4C875D876E877F87488759876A8749
:1004C0007B876F2F7E2F832F922F30D6CB01DF912A
:1004D000CF911F910F91FF90EF900895CF93DF93ED
:1004E000EC019A01AB0168A179A18AA19BA14DD52C
:1004F0006C8B7D8B8E8B9F8BCE01DF91CF919BCFB1
:10050000FC0160A171A182A193A10895BF92CF9235
:10051000DF92EF92FF920F931F93CF93DF93B82E4A
:1005200062E08CE292E0E7DE6C0161E08CE292E056
:10053000E2DE7C0162E08CE292E04CDF8C0161E063
:100540008CE292E047DFEC01B8018CE892E088DEB3
:10055000BE018CE892E07BDEBB2081F14AE050E0F6
:10056000B60189E992E0E2D469E089E992E026D413
:100570004AE050E0B70189E992E0D8D469E089E91E
:1005800092E01CD44AE050E0B80189E992E0CED470
:1005900069E089E992E012D44AE050E0BE0189E9BD
:1005A00092E0C4D489E992E0DF91CF911F910F913D
:1005B000FF90EF90DF90CF90BF9007C4DF91CF9175
:1005C0001F910F91FF90EF90DF90CF90BF90089513
:1005D00061E08CE292E082DEAB01BC012AE030E017
:1005E00089E992E0AAD460E072E089E992E0E5D37B
:1005F00062E08CE292E072DEAB01BC012AE030E006
:1006000089E992E0A6D480E081DF64E170E080E0D7
:1006100090E0F4C026E040E051EE60E070E089E94F
:1006200092E082D28CE892E090DD8CE292E02FDEC4
:1006300064EF71E08CE892E01CDE62E072E089E930
:1006400092E0C6C31F920F920FB60F9211240BB601
:100650000F922F933F934F935F936F937F938F935B
:100660009F93AF93BF93EF93FF9361E08CE292E08F
:10067000C5DEFF91EF91BF91AF919F918F917F91D7
:100680006F915F914F913F912F910F900BBE0F9003
:100690000FBE0F901F9018951F920F920FB60F92DA
:1006A00011240BB60F922F933F934F935F936F9349
:1006B0007F938F939F93AF93BF93EF93FF9362E0EA
:1006C0008CE292E09BDEFF91EF91BF91AF919F9101
:1006D0008F917F916F915F914F913F912F910F90EB
:1006E0000BBE0F900FBE0F901F90189584E2E4E4AC
:1006F000F2E0DF01982F1D929A95E9F7E8E6F2E023
:10070000DF011D928A95E9F708951F920F920FB6A7
:100710000F9211242F933F938F939F93AF93BF9387
:100720008091910290919202A0919302B0919402D3
:100730003091900223E0230F2D3720F40196A11D64
:10074000B11D05C026E8230F0296A11DB11D2093FF
:1007500090028093910290939202A0939302B0939F
:1007600094028091950290919602A0919702B09187
:1007700098020196A11DB11D809395029093960257
:10078000A0939702B0939802BF91AF919F918F91E0
:100790003F912F910F900FBE0F901F9018952FB77C
:1007A000F8946091910270919202809193029091DD
:1007B00094022FBF08953FB7F894809195029091CD
:1007C0009602A0919702B091980226B5A89B05C009
:1007D0002F3F19F00196A11DB11D3FBF6627782F4D
:1007E000892F9A2F620F711D811D911D42E0660FA6
:1007F000771F881F991F4A95D1F70895CF92DF92EE
:10080000EF92FF92CF93DF936B017C01D4DFEB017A
:10081000C114D104E104F10479F0B6D3CCDF6C1B30
:100820007D0B683E7340A0F381E0C81AD108E1084F
:10083000F108C851DC4FECCFDF91CF91FF90EF90E2
:10084000DF90CF900895789484B5826084BD84B59C
:10085000816084BD85B5826085BD85B5816085BDBB
:10086000EEE6F0E0808181608083E1E8F0E01082D4
:10087000808182608083808181608083E0E8F0E015
:10088000808181608083E1EBF0E0808184608083FF
:10089000E0EBF0E0808181608083E1E9F0E080813D
:1008A00082608083808181608083E0E9F0E08081E4
:1008B00081608083E1EAF0E08081826080838081D2
:1008C00081608083E0EAF0E0808181608083E1E202
:1008D000F1E0808182608083808181608083E0E2BA
:1008E000F1E0808181608083EAE7F0E080818460CC
:1008F0008083808182608083808181608083808129
:10090000806880831092C1000895FC01818D228D42
:1009100090E0805C9F4F821B91098F739927089507
:10092000FC01918D828D981731F0828DE80FF11DB9
:10093000858D90E008958FEF9FEF0895FC01918DD4
:10094000828D981761F0828DDF01A80FB11D5D9631
:100950008C91928D9F5F9F73928F90E008958FEF9F
:100960009FEF089583E596E0892B39F080E090E0D1
:10097000892B19F098D1811125C080E090E0892B56
:1009800041F080E090E0892B21F00E94000081116D
:100990001CC080E090E0892B41F080E090E0892B42
:1009A00021F00E940000811113C080E090E0892BAB
:1009B000A1F080E090E0892B81F00E94000081117D
:1009C0000AC008950E940000D8CF0E940000E1CF25
:1009D0000E940000EACF0C9400000895FC01848D71
:1009E000DF01A80FB11DA35ABF4F2C91848D90E059
:1009F00001968F739927848FA689B7892C93A08934
:100A0000B1898C9180648C93938D848D981306C0EA
:100A10000288F389E02D80818F7D80830895CF93B4
:100A2000DF93EC01888D8823C1F0EA89FB898081FE
:100A300085FD05C0A889B9898C9186FD0EC00FB6C9
:100A400007FCF5CF808185FFF2CFA889B9898C9109
:100A500085FFEDCFCE01C2DFE8CFDF91CF910895C2
:100A6000CF92DF92FF920F931F93CF93DF931F924A
:100A7000CDB7DEB76C0181E0D60158968C935897BC
:100A80005B969C915B975C968C915C97981307C0E2
:100A90005096ED91FC915197808185FD2DC0F60116
:100AA000038D10E00F5F1F4F0F731127F02EF6011B
:100AB000848DF81210C00FB607FCF9CFD6015096FE
:100AC000ED91FC915197808185FFF1CFC60169833B
:100AD00085DF6981ECCF838DE80FF11DE35AFF4F6D
:100AE0006083D6015B960C935B975296ED91FC91D7
:100AF0005397808180620CC0D6015696ED91FC918F
:100B0000579760835096ED91FC9151978081806456
:100B1000808381E090E00F90DF91CF911F910F9142
:100B2000FF90DF90CF900895BF92CF92DF92EF9227
:100B3000FF92CF93DF93EC016A017B01B22EE8892B
:100B4000F98982E08083411581EE580761057105BE
:100B500099F060E079E08DE390E0A7019601CDD3B4
:100B600021503109410951095695479537952795E7
:100B7000211580E1380790F0E889F989108260E852
:100B800074E88EE190E0A7019601B7D321503109B6
:100B9000410951095695479537952795EC85FD856F
:100BA0003083EE85FF852083188EEC89FD89B08225
:100BB000EA89FB89808180618083EA89FB89808161
:100BC00088608083EA89FB89808180688083EA89E4
:100BD000FB8980818F7D8083DF91CF91FF90EF90A3
:100BE000DF90CF90BF9008951F920F920FB60F9293
:100BF00011240BB60F922F938F939F93EF93FF9334
:100C0000E091A902F091AA028081E091AF02F091F7
:100C1000B00282FD12C090818091B2028F5F8F730B
:100C20002091B302821751F0E091B202F0E0E75652
:100C3000FD4F958F8093B20201C08081FF91EF91AB
:100C40009F918F912F910F900BBE0F900FBE0F9021
:100C50001F9018951F920F920FB60F9211240BB68A
:100C60000F922F933F934F935F936F937F938F9345
:100C70009F93AF93BF93EF93FF9389E992E0AEDE2A
:100C8000FF91EF91BF91AF919F918F917F916F9164
:100C90005F914F913F912F910F900BBE0F900FBE20
:100CA0000F901F90189589E992E02FDE21E0892BA3
:100CB00009F420E0822F089510929C0210929B026A
:100CC00088EE93E0A0E0B0E080939D0290939E02B6
:100CD000A0939F02B093A0028EE092E090939A02BC
:100CE0008093990285EC90E09093A6028093A502F0
:100CF00084EC90E09093A8028093A70280EC90E0AF
:100D00009093AA028093A90281EC90E09093AC02A8
:100D10008093AB0282EC90E09093AE028093AD02A0
:100D200086EC90E09093B0028093AF021092B202F2
:100D30001092B3021092B4021092B5020895CF92AD
:100D4000DF92EF92FF920F931F93CF93DF937C017B
:100D50006A01EB0100E010E00C151D0571F06991CE
:100D6000D701ED91FC910190F081E02DC70119951B
:100D7000892B19F00F5F1F4FEFCFC801DF91CF9183
:100D80001F910F91FF90EF90DF90CF900895611524
:100D9000710581F0DB010D900020E9F7AD014150B4
:100DA0005109461B570BDC01ED91FC910280F38148
:100DB000E02D199480E090E00895E9CFDC01ED91F9
:100DC000FC910190F081E02D19946AE172E0DFCF8F
:100DD0000F931F93CF93DF93EC01D9DF8C01CE01EA
:100DE000F4DF800F911FDF91CF911F910F91089534
:100DF0008F929F92AF92BF92CF92DF92EF92FF922B
:100E00000F931F93CF93DF93CDB7DEB7A1970FB6A4
:100E1000F894DEBF0FBECDBF7C01C42EE52FCB0101
:100E2000D22E19A221E02D1510F02AE0D22E8E012B
:100E30000F5D1F4F8D2C912CA12CB12C6C2D7E2F72
:100E4000A50194015AD28C2DD29E801911240150F3
:100E500011098A3014F4805D01C0895CF801808337
:100E6000211531054105510521F0C22EE32FCA019C
:100E7000E5CFB801C7018BDFA1960FB6F894DEBFAE
:100E80000FBECDBFDF91CF911F910F91FF90EF90DB
:100E9000DF90CF90BF90AF909F908F900895CF92AA
:100EA000DF92EF92FF920F931F93CF93DF93EC01AA
:100EB0006A017B012115310579F4E881F9810190FE
:100EC000F081E02D642FDF91CF911F910F91FF9062
:100ED000EF90DF90CF9019942A303105D9F477FF45
:100EE00018C06DE26BDF8C0144275527BA014C19FD
:100EF0005D096E097F092AE0CE017ADF800F911F1C
:100F0000DF91CF911F910F91FF90EF90DF90CF90E5
:100F100008952AE0B701A601CE01DF91CF911F917C
:100F20000F91FF90EF90DF90CF9062CF9A01AB01CD
:100F3000662757FD6095762FB2CF2115310541F414
:100F4000DC01ED91FC910190F081E02D642F19946A
:100F50004FCF0F931F93CF93DF93EC01EEDF8C0104
:100F6000CE0133DF800F911FDF91CF911F910F9141
:100F70000895089568DCFDDF4DDBC2EBD4E028DB8B
:100F80002097E9F3EFDCFBCF08955058BB27AA2741
:100F90000ED075C166D130F06BD120F031F49F3F97
:100FA00011F41EF45BC10EF4E095E7FB51C1E92F8B
:100FB00077D180F3BA17620773078407950718F093
:100FC00071F49EF58FC10EF4E0950B2EBA2FA02D73
:100FD0000B01B90190010C01CA01A0011124FF27E6
:100FE000591B99F0593F50F4503E68F11A16F040E1
:100FF000A22F232F342F4427585FF3CF46953795E0
:101000002795A795F0405395C9F77EF41F16BA0BA4
:10101000620B730B840BBAF09150A1F0FF0FBB1F52
:10102000661F771F881FC2F70EC0BA0F621F731F9B
:10103000841F48F4879577956795B795F7959E3FF8
:1010400008F0B3CF9395880F08F09927EE0F979586
:1010500087950895D9D008F481E008950CD00FC188
:1010600007D140F0FED030F021F45F3F19F0F0C01E
:10107000511139C1F3C014D198F39923C9F3552301
:10108000B1F3951B550BBB27AA276217730784077B
:1010900038F09F5F5F4F220F331F441FAA1FA9F331
:1010A00033D00E2E3AF0E0E830D091505040E69523
:1010B000001CCAF729D0FE2F27D0660F771F881F84
:1010C000BB1F261737074807AB07B0E809F0BB0B73
:1010D000802DBF01FF2793585F4F2AF09E3F510597
:1010E00068F0B6C000C15F3FECF3983EDCF3869534
:1010F00077956795B795F7959F5FC9F7880F911D0D
:101100009695879597F90895E1E0660F771F881FF8
:10111000BB1F621773078407BA0720F0621B730BAB
:10112000840BBA0BEE1F88F7E095089504D06894FD
:10113000B111D9C00895BCD088F09F5790F0B92F55
:101140009927B751A0F0D1F0660F771F881F991F1C
:101150001AF0BA95C9F712C0B13081F0C3D0B1E02E
:101160000895C0C0672F782F8827B85F39F0B93F3E
:10117000CCF3869577956795B395D9F73EF490951E
:101180008095709561957F4F8F4F9F4F0895E8949C
:1011900009C097FB3EF490958095709561957F4FBF
:1011A0008F4F9F4F9923A9F0F92F96E9BB2793956D
:1011B000F695879577956795B795F111F8CFFAF47D
:1011C000BB0F11F460FF1BC06F5F7F4F8F4F9F4FAE
:1011D00016C0882311F096E911C0772321F09EE80C
:1011E000872F762F05C0662371F096E8862F70E072
:1011F00060E02AF09A95660F771F881FDAF7880F4C
:101200009695879597F90895990F0008550FAA0BA1
:10121000E0E8FEEF16161706E807F907C0F0121609
:101220001306E407F50798F0621B730B840B950B0C
:1012300039F40A2661F0232B242B252B21F4089561
:101240000A2609F4A140A6958FEF811D811D0895FE
:1012500097F99F6780E870E060E008959FEF80EC69
:10126000089500240A94161617061806090608950C
:1012700000240A9412161306140605060895092E72
:101280000394000C11F4882352F0BB0F40F4BF2BE1
:1012900011F460FF04C06F5F7F4F8F4F9F4F089521
:1012A00057FD9058440F551F59F05F3F71F0479517
:1012B000880F97FB991F61F09F3F79F087950895FC
:1012C000121613061406551FF2CF4695F1DF08C01B
:1012D000161617061806991FF1CF86957105610538
:1012E00008940895E894BB2766277727CB0197F9E0
:1012F00008958ADF08F48FEF0895A1E21A2EAA1B41
:10130000BB1BFD010DC0AA1FBB1FEE1FFF1FA217B5
:10131000B307E407F50720F0A21BB30BE40BF50BB2
:10132000661F771F881F991F1A9469F7609570953B
:10133000809590959B01AC01BD01CF010895079068
:0A134000F691E02D1994F894FFCF08
:10134A003A00696E6974206F6B0000000000300576
:10135A009F0685049E0490040F050D0A006E616EB7
:0C136A0000696E66006F7666002E0000C1
:00000001FF
