:1000000073C00000A2C00000A0C00000FAC0000041
:100010009CC000009AC0000098C0000096C000007C
:1000200094C0000092C0000016C100008EC0000005
:100030008CC000008AC0000088C0000086C000009C
:1000400084C0000082C0000080C000007EC00000AC
:100050007CC000007AC0000078C0000022C400000C
:1000600074C000008DC60000C1C600006EC0000054
:100070006CC000006AC0000068C0000066C00000DC
:1000800064C0000062C0000060C000005EC00000EC
:100090005CC000005AC0000058C0000056C00000FC
:1000A00054C0000052C0000050C000004EC000000C
:1000B0004CC000004AC0000048C0000046C000001C
:1000C00044C0000042C0000040C000003EC000002C
:1000D0003CC000003AC0000038C0000036C000003C
:1000E00034C000005501280711241FBECFEFD1E214
:1000F000DEBFCDBF00E00CBF12E0A0E0B2E0E8E957
:10010000F7E100E00BBF02C007900D92AA32B107E1
:10011000D9F723E0AAE2B2E001C01D92AE34B207E3
:10012000E1F710E0C8EED0E000E006C02297010938
:10013000FE010BBF0E94B20BC43ED10780E008074E
:10014000A9F70E9451090C94CA0B5ACFFF920F9342
:100150001F93CF93DF93F82E482F62E08AE292E05C
:10016000E6D18C014F2D61E08AE292E0E0D1EC0112
:10017000B80184EA92E037D1BE0184EA92E02AD144
:10018000FF20C9F04AE050E0B80181EB92E099D736
:1001900069E081EB92E0DDD64AE050E0BE0181EB00
:1001A00092E08FD76AE081EB92E0DF91CF911F91CF
:1001B0000F91FF90CEC6DF91CF911F910F91FF90CD
:1001C000089580E0C3DF65E070E080E090E0E2C386
:1001D00026E040E051EE60E070E081EB92E070D507
:1001E00084EA92E075D08AE292E006D140E550E0E0
:1001F00060E08AE292E03DD260E072E081EB92E062
:10020000B2C61F920F920FB60F9211240BB60F9227
:100210002F933F934F935F936F937F938F939F930E
:10022000AF93BF93EF93FF9361E08AE292E040D2F5
:10023000FF91EF91BF91AF919F918F917F916F91BE
:100240005F914F913F912F910F900BBE0F900FBE7A
:100250000F901F9018951F920F920FB60F921124B6
:100260000BB60F922F933F934F935F936F937F93B0
:100270008F939F93AF93BF93EF93FF9362E08AE2D4
:1002800092E016D2FF91EF91BF91AF919F918F9124
:100290007F916F915F914F913F912F910F900BBE86
:1002A0000F900FBE0F901F90189584E2E2E4F2E0E9
:1002B000DF01982F1D929A95E9F7E6E6F2E0DF015B
:1002C0001D928A95E9F7109296021092A302089562
:1002D00084B1806684B9E1E0F1E080818861808347
:1002E000E1E8F0E080818A608083E1EAF0E08081EB
:1002F0008A608083E0E8F0E0808183608083E0EAC8
:10030000F0E08081836080830895FC01413031F00A
:1003100040F0423061F0443039F0089571956195B4
:100320007109718360830895719561957109738373
:10033000628308951F93CF93DF93EB01142FE5DFC2
:10034000BE01609570957370113019F198F01230FC
:1003500079F11430D9F58091A00080638093A000DA
:100360008091A0008F778093A0007093AB00609382
:10037000AA002CC0809180008F7C809380008091A7
:100380008000806C80938000709389006093880067
:100390001DC08091800080638093800080918000E8
:1003A0008F778093800070938B0060938A000EC0DB
:1003B0008091A0008F7C8093A0008091A000806C31
:1003C0008093A0007093A9006093A800DF91CF9163
:1003D0001F91089577FF05C071956195710944E0FB
:1003E00001C042E0A7CF77FF05C071956195710903
:1003F00041E001C040E09ECFCF93DF93EC015A9AD9
:10040000E5E0F1E0808181608083E9E6F0E08081D1
:1004100080618083EA9AE8E6F0E0808182608083F0
:10042000ECE6F0E0808182608083789484D26C8BEB
:100430007D8B8E8B9F8B7FD2688B798B8A8B9B8BEE
:10044000DF91CF9108958F929F92AF92BF92CF92FA
:10045000DF92EF92FF921F93CF93DF93EC01162F61
:100460006AD2113029F4C888D988EA88FB8804C088
:10047000CC88DD88EE88FF886C197D098E099F097C
:100480000E94600A6B017C01113049F488819981D6
:10049000AA81BB81488559856A857B8508C08C8186
:1004A0009D81AE81BF814C855D856E857F854C01C8
:1004B0005D01841A950AA60AB70AC501B4010E9413
:1004C000600A4B015C01113071F488819981AA8125
:1004D000BB8188879987AA87BB872DD2688B798B48
:1004E0008A8B9B8B0DC08C819D81AE81BF818C8757
:1004F0009D87AE87BF871FD26C8B7D8B8E8B9F8B2A
:1005000020E030E04AE754E4C501B4010E94160B34
:10051000A70196013CD7DF91CF911F91FF90EF90FB
:10052000DF90CF90BF90AF909F908F900895CF9223
:10053000DF92EF92FF921F93CF93DF93EC01142F82
:10054000613009F047C07FDF7E0120E6E20EF11C3A
:10055000F7014485242F30E054E0459FE00DF11D64
:10056000112460837183828393832F5F3F4FC9017E
:1005700063E070E00E947D0BF701848720E030E0AB
:10058000A901608171818281938199D6F7012481CB
:1005900035814681578193D6F70120853185428583
:1005A00053858DD620E030E040E450E4F0D66B0176
:1005B0007C01112351F053D74AE050E081EB92E0E7
:1005C00080D569E081EB92E0C4D4B701A601CE01E9
:1005D000CC9647C062E037DF7E01FDE6EF0EF11CEE
:1005E000F7014485242F30E054E0459FE00DF11DD4
:1005F000112460837183828393832F5F3F4FC901EE
:1006000063E070E00E947D0BF701848720E030E01A
:10061000A901608171818281938151D6F701248182
:100620003581468157814BD6F7012085318542853A
:10063000538545D620E030E040E450E4A8D66B0175
:100640007C01112351F00BD74AE050E081EB92E09E
:1006500038D569E081EB92E07CD4B701A601CE01E8
:100660004896DF91CF911F91FF90EF90DF90CF9050
:10067000D9C00F931F93CF93DF93EC018A016130B0
:1006800019F4BA01CC960AC0623029F061110BC08E
:10069000BA01CC9602D1B801CE014896DF91CF9134
:1006A0001F910F91FAC0DF91CF911F910F91089583
:1006B000FC01613069F440815181628173814F5F37
:1006C0005F4F6F4F7F4F40835183628373830895E1
:1006D00044815581668177814F5F5F4F6F4F7F4FB8
:1006E000448355836683778308950F931F93CF9335
:1006F000DF93EC01288D398D4A8D5B8D6C897D8966
:100700008E899F89DCD52C8D3D8D4E8D5F8DD7D503
:10071000288539854A855B85D2D5A1D68B010115FF
:1007200084E0180714F00FEF13E00832110514F4F9
:1007300008E210E01F870E87B801882777FD8095B3
:10074000982FC0D6688779878A879B87C801DF91F1
:10075000CF911F910F910895CF92DF92EF92FF9268
:10076000CF93DF93EC016A017B014C815D816E8147
:100770007F8122E030E081EB92E081D569E081EB7E
:1007800092E0E7D327E137EB41ED58E3C701B6012B
:100790004DD79B01AC016C817D818E819F818FD56E
:1007A0006C837D838E839F8322E030E0B701A601B6
:1007B00081EB92E065D5CC80DD80EE80FF8020E08B
:1007C00030E048EC52E4B601C7012CD7181674F09B
:1007D00020E030E048EC52ECB601C701D4D587FFE9
:1007E0000AC050E040E038EC22EC09C050E040E0A4
:1007F00038EC22E404C05C2D4D2D3E2D2F2D852F8D
:10080000942FA32FB22F8C839D83AE83BF83888FB9
:10081000998FAA8FBB8FDF91CF91FF90EF90DF90E0
:10082000CF9008958F929F92AF92BF92CF92DF9216
:10083000EF92FF92CF93DF93EC016A017B016C850D
:100840007D85882777FD8095982F3CD6A701960156
:1008500035D54B015C01A7019601C701B60149D707
:1008600081110FC02AE037ED43EA5CE3C501B40112
:10087000DDD66C8B7D8B8E8B9F8BB501A401CE0159
:100880006BDFCE01DF91CF91FF90EF90DF90CF90A3
:10089000BF90AF909F908F9028CFFC0175876487A1
:1008A00008951F920F920FB60F9211242F933F932A
:1008B0008F939F93AF93BF938091A9029091AA02C7
:1008C000A091AB02B091AC023091A80223E0230FBB
:1008D0002D3720F40196A11DB11D05C026E8230F78
:1008E0000296A11DB11D2093A8028093A9029093A6
:1008F000AA02A093AB02B093AC028091AD0290919A
:10090000AE02A091AF02B091B0020196A11DB11D3F
:100910008093AD029093AE02A093AF02B093B00269
:10092000BF91AF919F918F913F912F910F900FBEEB
:100930000F901F9018952FB7F8946091A9027091AD
:10094000AA028091AB029091AC022FBF08953FB7ED
:10095000F8948091AD029091AE02A091AF02B09157
:10096000B00226B5A89B05C02F3F19F00196A11D26
:10097000B11D3FBF6627782F892F9A2F620F711DF7
:10098000811D911D42E0660F771F881F991F4A95B0
:10099000D1F70895CF92DF92EF92FF92CF93DF933A
:1009A0006B017C01D4DFEB01C114D104E104F1043B
:1009B00079F083D4CCDF6C1B7D0B683E7340A0F3D1
:1009C00081E0C81AD108E108F108C851DC4FECCF2A
:1009D000DF91CF91FF90EF90DF90CF9008957894C2
:1009E00084B5826084BD84B5816084BD85B5826034
:1009F00085BD85B5816085BDEEE6F0E080818160D2
:100A00008083E1E8F0E010828081826080838081D1
:100A100081608083E0E8F0E0808181608083E1EBA9
:100A2000F0E0808184608083E0EBF0E08081816091
:100A30008083E1E9F0E08081826080838081816051
:100A40008083E0E9F0E0808181608083E1EAF0E08A
:100A5000808182608083808181608083E0EAF0E031
:100A6000808181608083E1E2F1E080818260808327
:100A7000808181608083E0E2F1E080818160808319
:100A8000EAE7F0E0808184608083808182608083F7
:100A90008081816080838081806880831092C10022
:100AA0000895FC01818D228D90E0805C9F4F821B18
:100AB00091098F7399270895FC01918D828D981764
:100AC00031F0828DE80FF11D858D90E008958FEF54
:100AD0009FEF0895FC01918D828D981761F0828DB2
:100AE000DF01A80FB11D5D968C91928D9F5F9F7362
:100AF000928F90E008958FEF9FEF08958FE197E038
:100B0000892B39F080E090E0892B19F098D1811180
:100B100025C080E090E0892B41F080E090E0892BB7
:100B200021F00E94000081111CC080E090E0892B20
:100B300041F080E090E0892B21F00E9400008111BB
:100B400013C080E090E0892BA1F080E090E0892B39
:100B500081F00E94000081110AC008950E940000E7
:100B6000D8CF0E940000E1CF0E940000EACF0C9491
:100B700000000895FC01848DDF01A80FB11DA35A68
:100B8000BF4F2C91848D90E001968F739927848FAD
:100B9000A689B7892C93A089B1898C9180648C93A4
:100BA000938D848D981306C00288F389E02D80818F
:100BB0008F7D80830895CF93DF93EC01888D882308
:100BC000C1F0EA89FB89808185FD05C0A889B989C2
:100BD0008C9186FD0EC00FB607FCF5CF808185FF96
:100BE000F2CFA889B9898C9185FFEDCFCE01C2DF04
:100BF000E8CFDF91CF910895CF92DF92FF920F93CC
:100C00001F93CF93DF931F92CDB7DEB76C0181E0C6
:100C1000D60158968C9358975B969C915B975C96FF
:100C20008C915C97981307C05096ED91FC91519769
:100C3000808185FD2DC0F601038D10E00F5F1F4FF1
:100C40000F731127F02EF601848DF81210C00FB625
:100C500007FCF9CFD6015096ED91FC915197808118
:100C600085FFF1CFC601698385DF6981ECCF838D74
:100C7000E80FF11DE35AFF4F6083D6015B960C939A
:100C80005B975296ED91FC915397808180620CC0E6
:100C9000D6015696ED91FC91579760835096ED9151
:100CA000FC91519780818064808381E090E00F9077
:100CB000DF91CF911F910F91FF90DF90CF9008951A
:100CC000BF92CF92DF92EF92FF92CF93DF93EC012E
:100CD0006A017B01B22EE889F98982E0808341159F
:100CE00081EE58076105710599F060E079E08DE3C8
:100CF00090E0A701960114D521503109410951090D
:100D00005695479537952795211580E1380790F03E
:100D1000E889F989108260E874E88EE190E0A70123
:100D20009601FED421503109410951095695479544
:100D300037952795EC85FD853083EE85FF852083EB
:100D4000188EEC89FD89B082EA89FB8980818061F7
:100D50008083EA89FB89808188608083EA89FB89B6
:100D6000808180688083EA89FB8980818F7D808390
:100D7000DF91CF91FF90EF90DF90CF90BF900895DB
:100D80001F920F920FB60F9211240BB60F922F9352
:100D90008F939F93EF93FF93E091C102F091C20272
:100DA0008081E091C702F091C80282FD12C090815B
:100DB0008091CA028F5F8F732091CB02821751F00E
:100DC000E091CA02F0E0EF54FD4F958F8093CA0284
:100DD00001C08081FF91EF919F918F912F910F9092
:100DE0000BBE0F900FBE0F901F9018951F920F9281
:100DF0000FB60F9211240BB60F922F933F934F9380
:100E00005F936F937F938F939F93AF93BF93EF9372
:100E1000FF9381EB92E0AEDEFF91EF91BF91AF9136
:100E20009F918F917F916F915F914F913F912F9102
:100E30000F900BBE0F900FBE0F901F90189581EB77
:100E400092E02FDE21E0892B09F420E0822F089523
:100E50001092B4021092B30288EE93E0A0E0B0E0EA
:100E60008093B5029093B602A093B702B093B802F4
:100E70008CE092E09093B2028093B10285EC90E016
:100E80009093BE028093BD0284EC90E09093C002E8
:100E90008093BF0280EC90E09093C2028093C102E5
:100EA00081EC90E09093C4028093C30282EC90E0C6
:100EB0009093C6028093C50286EC90E09093C8029E
:100EC0008093C7021092CA021092CB021092CC02F9
:100ED0001092CD020895CF92DF92EF92FF920F937E
:100EE0001F93CF93DF937C016A01EB0100E010E0D8
:100EF0000C151D0571F06991D701ED91FC910190E0
:100F0000F081E02DC7011995892B19F00F5F1F4F54
:100F1000EFCFC801DF91CF911F910F91FF90EF901C
:100F2000DF90CF9008956115710581F0DB010D9080
:100F30000020E9F7AD0141505109461B570BDC0178
:100F4000ED91FC910280F381E02D199480E090E016
:100F50000895DC01ED91FC910190F081E02D199450
:100F600068E172E0E0CF0F931F93CF93DF93EC0122
:100F7000DADF8C01CE01F4DF800F911FDF91CF917A
:100F80001F910F9108958F929F92AF92BF92CF922F
:100F9000DF92EF92FF920F931F93CF93DF93CDB722
:100FA000DEB7A1970FB6F894DEBF0FBECDBF7C01B0
:100FB000C42EE52FCB01D22E19A221E02D1510F061
:100FC0002AE0D22E8E010F5D1F4F8D2C912CA12C6B
:100FD000B12C6C2D7E2FA5019401A2D38C2DD29E15
:100FE00080191124015011098A3014F4805D01C068
:100FF000895CF8018083211531054105510521F0F7
:10100000C22EE32FCA01E5CFB801C7018CDFA1963C
:101010000FB6F894DEBF0FBECDBFDF91CF911F9109
:101020000F91FF90EF90DF90CF90BF90AF909F9087
:101030008F900895CF92DF92EF92FF920F931F93BC
:10104000CF93DF93EC016A017B012115310579F41F
:10105000E881F9810190F081E02D642FDF91CF913B
:101060001F910F91FF90EF90DF90CF9019942A304D
:101070003105D9F477FF18C06DE26BDF8C0144278E
:101080005527BA014C195D096E097F092AE0CE0186
:101090007ADF800F911FDF91CF911F910F91FF9009
:1010A000EF90DF90CF9008952AE0B701A601CE011E
:1010B000DF91CF911F910F91FF90EF90DF90CF9034
:1010C00062CF9A01AB01662757FD6095762FB2CFAC
:1010D0004F925F926F927F928F929F92AF92BF9248
:1010E000CF92DF92EF92FF920F931F93CF93DF93F4
:1010F000EC016A017B01B22E9A01AB01C701B60176
:10110000F8D2882319F06BE172E024C02601370180
:10111000E89477F82FEF3FEF4FE75FE7C301B201A5
:10112000E8D281110CC02FEF3FEF4FE75FE7C3011B
:10113000B20129D118161CF46FE172E00BC02FEF39
:101140003FEF4FE75FE4C701B6016CD21816A4F475
:1011500063E272E0CE01DF91CF911F910F91FF907A
:10116000EF90DF90CF90BF90AF909F908F907F9047
:101170006F905F904F90D7CE2FEF3FEF4FE75FEC30
:10118000C701B60100D187FDE3CF20E030E0A9011F
:10119000C701B601F8D087FF09C06DE2CE01D9DEE4
:1011A0008C01F7FAF094F7F8F09402C000E010E038
:1011B000A12C60E070E080E09FE3AB1439F020E008
:1011C00030E040E251E4E3D0A394F7CF9B01AC01BF
:1011D000C701B60174D06B017C0146D12B013C01E3
:1011E0006FD19B01AC01C701B60168D06B017C01D6
:1011F0002AE0B301A201CE01C6DE080F191FBB20F1
:1012000031F067E272E0CE018EDE080F191F7B2CF1
:10121000772019F120E030E040E251E4C701B60147
:1012200005D26B017C011BD14B01AA2497FCA09431
:10123000BA2C2AE030E0B501A401CE01FBDE080F94
:10124000191FC501B4013ED19B01AC01C701B60114
:1012500035D06B017C017A94DBCFC801DF91CF914F
:101260001F910F91FF90EF90DF90CF90BF90AF90C4
:101270009F908F907F906F905F904F90089528CFB0
:101280000F931F93CF93DF93EC0122DF8C01CE01EC
:1012900067DE800F911FDF91CF911F910F9108950D
:1012A00008959DDBFDDF0E94E800CEE7D5E00E94B7
:1012B000E1002097E1F322DCFACF08955058BB27D4
:1012C000AA270ED075C166D130F06BD120F031F471
:1012D0009F3F11F41EF45BC10EF4E095E7FB51C192
:1012E000E92F77D180F3BA17620773078407950750
:1012F00018F071F49EF58FC10EF4E0950B2EBA2F05
:10130000A02D0B01B90190010C01CA01A00111240B
:10131000FF27591B99F0593F50F4503E68F11A16B7
:10132000F040A22F232F342F4427585FF3CF469548
:1013300037952795A795F0405395C9F77EF41F166A
:10134000BA0B620B730B840BBAF09150A1F0FF0F34
:10135000BB1F661F771F881FC2F70EC0BA0F621F20
:10136000731F841F48F4879577956795B795F79510
:101370009E3F08F0B3CF9395880F08F09927EE0FA2
:10138000979587950895D9D008F481E008950CD0F9
:101390000FC107D140F0FED030F021F45F3F19F0CB
:1013A000F0C0511139C1F3C014D198F39923C9F396
:1013B0005523B1F3951B550BBB27AA27621773075B
:1013C000840738F09F5F5F4F220F331F441FAA1F0F
:1013D000A9F333D00E2E3AF0E0E830D091505040CF
:1013E000E695001CCAF729D0FE2F27D0660F771F7D
:1013F000881FBB1F261737074807AB07B0E809F05F
:10140000BB0B802DBF01FF2793585F4F2AF09E3FF3
:10141000510568F0B6C000C15F3FECF3983EDCF3C5
:10142000869577956795B795F7959F5FC9F7880F6C
:10143000911D9695879597F90895E1E0660F771FBE
:10144000881FBB1F621773078407BA0720F0621B4F
:10145000730B840BBA0BEE1F88F7E095089504D048
:101460006894B111D9C00895BCD088F09F5790F00E
:10147000B92F9927B751A0F0D1F0660F771F881FB9
:10148000991F1AF0BA95C9F712C0B13081F0C3D0D4
:10149000B1E00895C0C0672F782F8827B85F39F072
:1014A000B93FCCF3869577956795B395D9F73EF418
:1014B00090958095709561957F4F8F4F9F4F0895C0
:1014C000E89409C097FB3EF49095809570956195DE
:1014D0007F4F8F4F9F4F9923A9F0F92F96E9BB2794
:1014E0009395F695879577956795B795F111F8CF10
:1014F000FAF4BB0F11F460FF1BC06F5F7F4F8F4F7B
:101500009F4F16C0882311F096E911C0772321F070
:101510009EE8872F762F05C0662371F096E8862F08
:1015200070E060E02AF09A95660F771F881FDAF75F
:10153000880F9695879597F90895990F0008550F8C
:10154000AA0BE0E8FEEF16161706E807F907C0F049
:1015500012161306E407F50798F0621B730B840B51
:10156000950B39F40A2661F0232B242B252B21F42B
:1015700008950A2609F4A140A6958FEF811D811DCB
:10158000089597F99F6780E870E060E008959FEF05
:1015900080EC089500240A9416161706180609060A
:1015A000089500240A9412161306140605060895D9
:1015B000092E0394000C11F4882352F0BB0F40F461
:1015C000BF2B11F460FF04C06F5F7F4F8F4F9F4FA1
:1015D000089557FD9058440F551F59F05F3F71F023
:1015E0004795880F97FB991F61F09F3F79F087958A
:1015F0000895121613061406551FF2CF4695F1DF13
:1016000008C0161617061806991FF1CF86957105A2
:10161000610508940895E894BB2766277727CB01D6
:1016200097F908958ADF08F48FEF08950BD0C0CFA3
:10163000B1DF28F0B6DF18F0952309F0A2CFA7CFCD
:101640001124EACFC6DFA0F3959FD1F3950F50E0A8
:10165000551F629FF001729FBB27F00DB11D639F64
:10166000AA27F00DB11DAA1F649F6627B00DA11D0A
:10167000661F829F2227B00DA11D621F739FB00DB0
:10168000A11D621F839FA00D611D221F749F332720
:10169000A00D611D231F849F600D211D822F762FB9
:1016A0006A2F11249F5750408AF0E1F088234AF0B6
:1016B000EE0FFF1FBB1F661F771F881F9150504002
:1016C000A9F79E3F510570F05CCFA6CF5F3FECF3CA
:1016D000983EDCF3869577956795B795F795E795EE
:1016E0009F5FC1F7FE2B880F911D9695879597F9FF
:1016F000089523DF880B990B089597FB072E16F4A6
:10170000009406D077FD08D031D007FC05D03EF418
:10171000909581959F4F0895709561957F4F08959D
:10172000A1E21A2EAA1BBB1BFD010DC0AA1FBB1FE5
:10173000EE1FFF1FA217B307E407F50720F0A21B57
:10174000B30BE40BF50B661F771F881F991F1A94C4
:1017500069F760957095809590959B01AC01BD01EE
:10176000CF0108950790F691E02D1994AA1BBB1B99
:1017700051E107C0AA1FBB1FA617B70710F0A61B91
:10178000B70B881F991F5A95A9F780959095BC01B2
:08179000CD010895F894FFCF8C
:10179800696E6974206F6B0000000000FC056B0720
:1017A80051056A055C05DB050D0A006E616E00696E
:0A17B8006E66006F7666002E0000DA
:00000001FF
